{
  "_format": "hh-sol-artifact-1",
  "contractName": "CertificateNFT",
  "sourceName": "contracts/CertificateNFT.sol",
  "abi": [
    {
      "inputs": [],
      "stateMutability": "nonpayable",
      "type": "constructor"
    },
    {
      "inputs": [
        {
          "internalType": "bytes32",
          "name": "",
          "type": "bytes32"
        }
      ],
      "name": "certificates",
      "outputs": [
        {
          "internalType": "string",
          "name": "name",
          "type": "string"
        },
        {
          "internalType": "string",
          "name": "roll",
          "type": "string"
        },
        {
          "internalType": "string",
          "name": "degreeName",
          "type": "string"
        },
        {
          "internalType": "string",
          "name": "subject",
          "type": "string"
        },
        {
          "internalType": "address",
          "name": "recipient",
          "type": "address"
        },
        {
          "internalType": "uint256",
          "name": "timestamp",
          "type": "uint256"
        },
        {
          "internalType": "uint256",
          "name": "expiration",
          "type": "uint256"
        },
        {
          "internalType": "bool",
          "name": "isIssued",
          "type": "bool"
        },
        {
          "internalType": "bool",
          "name": "isRevoked",
          "type": "bool"
        },
        {
          "internalType": "string",
          "name": "fileCID",
          "type": "string"
        },
        {
          "internalType": "bytes",
          "name": "signature",
          "type": "bytes"
        }
      ],
      "stateMutability": "view",
      "type": "function"
    },
    {
      "inputs": [],
      "name": "getAllCertificates",
      "outputs": [
        {
          "components": [
            {
              "internalType": "string",
              "name": "name",
              "type": "string"
            },
            {
              "internalType": "string",
              "name": "roll",
              "type": "string"
            },
            {
              "internalType": "string",
              "name": "degreeName",
              "type": "string"
            },
            {
              "internalType": "string",
              "name": "subject",
              "type": "string"
            },
            {
              "internalType": "address",
              "name": "recipient",
              "type": "address"
            },
            {
              "internalType": "uint256",
              "name": "timestamp",
              "type": "uint256"
            },
            {
              "internalType": "uint256",
              "name": "expiration",
              "type": "uint256"
            },
            {
              "internalType": "bool",
              "name": "isIssued",
              "type": "bool"
            },
            {
              "internalType": "bool",
              "name": "isRevoked",
              "type": "bool"
            },
            {
              "internalType": "string",
              "name": "fileCID",
              "type": "string"
            },
            {
              "internalType": "bytes",
              "name": "signature",
              "type": "bytes"
            }
          ],
          "internalType": "struct CertificateNFT.Certificate[]",
          "name": "",
          "type": "tuple[]"
        }
      ],
      "stateMutability": "view",
      "type": "function"
    },
    {
      "inputs": [
        {
          "internalType": "address",
          "name": "student",
          "type": "address"
        },
        {
          "internalType": "address",
          "name": "employer",
          "type": "address"
        }
      ],
      "name": "isCertificateSharedWith",
      "outputs": [
        {
          "internalType": "bool",
          "name": "",
          "type": "bool"
        }
      ],
      "stateMutability": "view",
      "type": "function"
    },
    {
      "inputs": [
        {
          "internalType": "string",
          "name": "name",
          "type": "string"
        },
        {
          "internalType": "string",
          "name": "roll",
          "type": "string"
        },
        {
          "internalType": "string",
          "name": "degreeName",
          "type": "string"
        },
        {
          "internalType": "string",
          "name": "subject",
          "type": "string"
        },
        {
          "internalType": "address",
          "name": "recipient",
          "type": "address"
        },
        {
          "internalType": "uint256",
          "name": "timestamp",
          "type": "uint256"
        },
        {
          "internalType": "uint256",
          "name": "expiration",
          "type": "uint256"
        },
        {
          "internalType": "string",
          "name": "fileCID",
          "type": "string"
        },
        {
          "internalType": "bytes",
          "name": "signature",
          "type": "bytes"
        }
      ],
      "name": "issueCertificate",
      "outputs": [],
      "stateMutability": "nonpayable",
      "type": "function"
    },
    {
      "inputs": [],
      "name": "owner",
      "outputs": [
        {
          "internalType": "address",
          "name": "",
          "type": "address"
        }
      ],
      "stateMutability": "view",
      "type": "function"
    },
    {
      "inputs": [
        {
          "internalType": "uint256",
          "name": "",
          "type": "uint256"
        }
      ],
      "name": "recipients",
      "outputs": [
        {
          "internalType": "address",
          "name": "",
          "type": "address"
        }
      ],
      "stateMutability": "view",
      "type": "function"
    },
    {
      "inputs": [
        {
          "internalType": "address",
          "name": "recipient",
          "type": "address"
        }
      ],
      "name": "revokeCertificate",
      "outputs": [],
      "stateMutability": "nonpayable",
      "type": "function"
    },
    {
      "inputs": [
        {
          "internalType": "address",
          "name": "student",
          "type": "address"
        },
        {
          "internalType": "address",
          "name": "employer",
          "type": "address"
        }
      ],
      "name": "shareCertificate",
      "outputs": [],
      "stateMutability": "nonpayable",
      "type": "function"
    },
    {
      "inputs": [
        {
          "internalType": "bytes32",
          "name": "",
          "type": "bytes32"
        },
        {
          "internalType": "uint256",
          "name": "",
          "type": "uint256"
        }
      ],
      "name": "sharedCertificates",
      "outputs": [
        {
          "internalType": "address",
          "name": "",
          "type": "address"
        }
      ],
      "stateMutability": "view",
      "type": "function"
    },
    {
      "inputs": [
        {
          "internalType": "address",
          "name": "recipient",
          "type": "address"
        }
      ],
      "name": "verifyCertificate",
      "outputs": [
        {
          "internalType": "bool",
          "name": "",
          "type": "bool"
        }
      ],
      "stateMutability": "view",
      "type": "function"
    },
    {
      "inputs": [
        {
          "internalType": "address",
          "name": "studentAddress",
          "type": "address"
        }
      ],
      "name": "viewCertificate",
      "outputs": [
        {
          "internalType": "string",
          "name": "name",
          "type": "string"
        },
        {
          "internalType": "string",
          "name": "roll",
          "type": "string"
        },
        {
          "internalType": "string",
          "name": "degreeName",
          "type": "string"
        },
        {
          "internalType": "string",
          "name": "subject",
          "type": "string"
        },
        {
          "internalType": "uint256",
          "name": "timestamp",
          "type": "uint256"
        },
        {
          "internalType": "uint256",
          "name": "expiration",
          "type": "uint256"
        },
        {
          "internalType": "string",
          "name": "fileCID",
          "type": "string"
        },
        {
          "internalType": "bytes",
          "name": "signature",
          "type": "bytes"
        }
      ],
      "stateMutability": "view",
      "type": "function"
    }
  ],
  "bytecode": "0x608060405234801561001057600080fd5b50336000806101000a81548173ffffffffffffffffffffffffffffffffffffffff021916908373ffffffffffffffffffffffffffffffffffffffff1602179055506131ac806100606000396000f3fe608060405234801561001057600080fd5b50600436106100a95760003560e01c80636b9afc90116100715780636b9afc901461017f578063742f0688146101af57806385cea6f6146101e95780638da5cb5b14610205578063bf01d4c114610223578063d1bc76a11461023f576100a9565b806313fcfe80146100ae5780632c5dcee9146100cc5780632e06a88a146100fc5780635f893bfa1461012c57806364dbbaa214610148575b600080fd5b6100b661026f565b6040516100c39190611f99565b60405180910390f35b6100e660048036038101906100e19190612031565b6107ac565b6040516100f39190612080565b60405180910390f35b610116600480360381019061011191906120c7565b6107fa565b6040516101239190612116565b60405180910390f35b61014660048036038101906101419190612131565b610948565b005b610162600480360381019061015d9190612131565b610b24565b604051610176989796959493929190612201565b60405180910390f35b61019960048036038101906101949190612131565b611079565b6040516101a69190612116565b60405180910390f35b6101c960048036038101906101c491906122a9565b611211565b6040516101e09b9a999897969594939291906122d6565b60405180910390f35b61020360048036038101906101fe91906120c7565b6115d5565b005b61020d6117ce565b60405161021a9190612080565b60405180910390f35b61023d60048036038101906102389190612581565b6117f2565b005b610259600480360381019061025491906126f3565b611bb8565b6040516102669190612080565b60405180910390f35b6060600060038054905067ffffffffffffffff811115610292576102916123b5565b5b6040519080825280602002602001820160405280156102cb57816020015b6102b8611bf7565b8152602001906001900390816102b05790505b50905060005b6003805490508110156107a4576000600382815481106102f4576102f3612720565b5b9060005260206000200160009054906101000a900473ffffffffffffffffffffffffffffffffffffffff1660405160200161032f9190612797565b6040516020818303038152906040528051906020012090506001600082815260200190815260200160002060405180610160016040529081600082018054610376906127e1565b80601f01602080910402602001604051908101604052809291908181526020018280546103a2906127e1565b80156103ef5780601f106103c4576101008083540402835291602001916103ef565b820191906000526020600020905b8154815290600101906020018083116103d257829003601f168201915b50505050508152602001600182018054610408906127e1565b80601f0160208091040260200160405190810160405280929190818152602001828054610434906127e1565b80156104815780601f1061045657610100808354040283529160200191610481565b820191906000526020600020905b81548152906001019060200180831161046457829003601f168201915b5050505050815260200160028201805461049a906127e1565b80601f01602080910402602001604051908101604052809291908181526020018280546104c6906127e1565b80156105135780601f106104e857610100808354040283529160200191610513565b820191906000526020600020905b8154815290600101906020018083116104f657829003601f168201915b5050505050815260200160038201805461052c906127e1565b80601f0160208091040260200160405190810160405280929190818152602001828054610558906127e1565b80156105a55780601f1061057a576101008083540402835291602001916105a5565b820191906000526020600020905b81548152906001019060200180831161058857829003601f168201915b505050505081526020016004820160009054906101000a900473ffffffffffffffffffffffffffffffffffffffff1673ffffffffffffffffffffffffffffffffffffffff1673ffffffffffffffffffffffffffffffffffffffff16815260200160058201548152602001600682015481526020016007820160009054906101000a900460ff161515151581526020016007820160019054906101000a900460ff1615151515815260200160088201805461065e906127e1565b80601f016020809104026020016040519081016040528092919081815260200182805461068a906127e1565b80156106d75780601f106106ac576101008083540402835291602001916106d7565b820191906000526020600020905b8154815290600101906020018083116106ba57829003601f168201915b505050505081526020016009820180546106f0906127e1565b80601f016020809104026020016040519081016040528092919081815260200182805461071c906127e1565b80156107695780601f1061073e57610100808354040283529160200191610769565b820191906000526020600020905b81548152906001019060200180831161074c57829003601f168201915b50505050508152505083838151811061078557610784612720565b5b602002602001018190525050808061079c90612841565b9150506102d1565b508091505090565b600260205281600052604060002081815481106107c857600080fd5b906000526020600020016000915091509054906101000a900473ffffffffffffffffffffffffffffffffffffffff1681565b6000808360405160200161080e9190612797565b6040516020818303038152906040528051906020012090506000600260008381526020019081526020016000208054806020026020016040519081016040528092919081815260200182805480156108bb57602002820191906000526020600020905b8160009054906101000a900473ffffffffffffffffffffffffffffffffffffffff1673ffffffffffffffffffffffffffffffffffffffff1681526020019060010190808311610871575b5050505050905060005b815181101561093a578473ffffffffffffffffffffffffffffffffffffffff168282815181106108f8576108f7612720565b5b602002602001015173ffffffffffffffffffffffffffffffffffffffff16036109275760019350505050610942565b808061093290612841565b9150506108c5565b506000925050505b92915050565b60008054906101000a900473ffffffffffffffffffffffffffffffffffffffff1673ffffffffffffffffffffffffffffffffffffffff163373ffffffffffffffffffffffffffffffffffffffff16146109d6576040517f08c379a00000000000000000000000000000000000000000000000000000000081526004016109cd906128fb565b60405180910390fd5b60008054906101000a900473ffffffffffffffffffffffffffffffffffffffff1673ffffffffffffffffffffffffffffffffffffffff163373ffffffffffffffffffffffffffffffffffffffff1614610a64576040517f08c379a0000000000000000000000000000000000000000000000000000000008152600401610a5b9061298d565b60405180910390fd5b600081604051602001610a779190612797565b6040516020818303038152906040528051906020012090506001600082815260200190815260200160002060070160009054906101000a900460ff16610af2576040517f08c379a0000000000000000000000000000000000000000000000000000000008152600401610ae990612a1f565b60405180910390fd5b600180600083815260200190815260200160002060070160016101000a81548160ff0219169083151502179055505050565b606080606080600080606080600089604051602001610b439190612797565b6040516020818303038152906040528051906020012090508973ffffffffffffffffffffffffffffffffffffffff166001600083815260200190815260200160002060040160009054906101000a900473ffffffffffffffffffffffffffffffffffffffff1673ffffffffffffffffffffffffffffffffffffffff1614610bff576040517f08c379a0000000000000000000000000000000000000000000000000000000008152600401610bf690612ab1565b60405180910390fd5b6001600082815260200190815260200160002060070160019054906101000a900460ff1615610c63576040517f08c379a0000000000000000000000000000000000000000000000000000000008152600401610c5a90612b43565b60405180910390fd5b60016000828152602001908152602001600020600001600160008381526020019081526020016000206001016001600084815260200190815260200160002060020160016000858152602001908152602001600020600301600160008681526020019081526020016000206005015460016000878152602001908152602001600020600601546001600088815260200190815260200160002060080160016000898152602001908152602001600020600901878054610d21906127e1565b80601f0160208091040260200160405190810160405280929190818152602001828054610d4d906127e1565b8015610d9a5780601f10610d6f57610100808354040283529160200191610d9a565b820191906000526020600020905b815481529060010190602001808311610d7d57829003601f168201915b50505050509750868054610dad906127e1565b80601f0160208091040260200160405190810160405280929190818152602001828054610dd9906127e1565b8015610e265780601f10610dfb57610100808354040283529160200191610e26565b820191906000526020600020905b815481529060010190602001808311610e0957829003601f168201915b50505050509650858054610e39906127e1565b80601f0160208091040260200160405190810160405280929190818152602001828054610e65906127e1565b8015610eb25780601f10610e8757610100808354040283529160200191610eb2565b820191906000526020600020905b815481529060010190602001808311610e9557829003601f168201915b50505050509550848054610ec5906127e1565b80601f0160208091040260200160405190810160405280929190818152602001828054610ef1906127e1565b8015610f3e5780601f10610f1357610100808354040283529160200191610f3e565b820191906000526020600020905b815481529060010190602001808311610f2157829003601f168201915b50505050509450818054610f51906127e1565b80601f0160208091040260200160405190810160405280929190818152602001828054610f7d906127e1565b8015610fca5780601f10610f9f57610100808354040283529160200191610fca565b820191906000526020600020905b815481529060010190602001808311610fad57829003601f168201915b50505050509150808054610fdd906127e1565b80601f0160208091040260200160405190810160405280929190818152602001828054611009906127e1565b80156110565780601f1061102b57610100808354040283529160200191611056565b820191906000526020600020905b81548152906001019060200180831161103957829003601f168201915b505050505090509850985098509850985098509850985050919395975091939597565b60008073ffffffffffffffffffffffffffffffffffffffff168273ffffffffffffffffffffffffffffffffffffffff16036110e9576040517f08c379a00000000000000000000000000000000000000000000000000000000081526004016110e090612baf565b60405180910390fd5b6000826040516020016110fc9190612797565b6040516020818303038152906040528051906020012090508273ffffffffffffffffffffffffffffffffffffffff166001600083815260200190815260200160002060040160009054906101000a900473ffffffffffffffffffffffffffffffffffffffff1673ffffffffffffffffffffffffffffffffffffffff16146111b8576040517f08c379a00000000000000000000000000000000000000000000000000000000081526004016111af90612c41565b60405180910390fd5b6001600082815260200190815260200160002060070160009054906101000a900460ff16801561120957506001600082815260200190815260200160002060070160019054906101000a900460ff16155b915050919050565b6001602052806000526040600020600091509050806000018054611234906127e1565b80601f0160208091040260200160405190810160405280929190818152602001828054611260906127e1565b80156112ad5780601f10611282576101008083540402835291602001916112ad565b820191906000526020600020905b81548152906001019060200180831161129057829003601f168201915b5050505050908060010180546112c2906127e1565b80601f01602080910402602001604051908101604052809291908181526020018280546112ee906127e1565b801561133b5780601f106113105761010080835404028352916020019161133b565b820191906000526020600020905b81548152906001019060200180831161131e57829003601f168201915b505050505090806002018054611350906127e1565b80601f016020809104026020016040519081016040528092919081815260200182805461137c906127e1565b80156113c95780601f1061139e576101008083540402835291602001916113c9565b820191906000526020600020905b8154815290600101906020018083116113ac57829003601f168201915b5050505050908060030180546113de906127e1565b80601f016020809104026020016040519081016040528092919081815260200182805461140a906127e1565b80156114575780601f1061142c57610100808354040283529160200191611457565b820191906000526020600020905b81548152906001019060200180831161143a57829003601f168201915b5050505050908060040160009054906101000a900473ffffffffffffffffffffffffffffffffffffffff16908060050154908060060154908060070160009054906101000a900460ff16908060070160019054906101000a900460ff16908060080180546114c4906127e1565b80601f01602080910402602001604051908101604052809291908181526020018280546114f0906127e1565b801561153d5780601f106115125761010080835404028352916020019161153d565b820191906000526020600020905b81548152906001019060200180831161152057829003601f168201915b505050505090806009018054611552906127e1565b80601f016020809104026020016040519081016040528092919081815260200182805461157e906127e1565b80156115cb5780601f106115a0576101008083540402835291602001916115cb565b820191906000526020600020905b8154815290600101906020018083116115ae57829003601f168201915b505050505090508b565b60008054906101000a900473ffffffffffffffffffffffffffffffffffffffff1673ffffffffffffffffffffffffffffffffffffffff163373ffffffffffffffffffffffffffffffffffffffff1614611663576040517f08c379a000000000000000000000000000000000000000000000000000000000815260040161165a906128fb565b60405180910390fd5b6000826040516020016116769190612797565b6040516020818303038152906040528051906020012090506001600082815260200190815260200160002060070160009054906101000a900460ff166116f1576040517f08c379a00000000000000000000000000000000000000000000000000000000081526004016116e890612cad565b60405180910390fd5b6001600082815260200190815260200160002060070160019054906101000a900460ff1615611755576040517f08c379a000000000000000000000000000000000000000000000000000000000815260040161174c90612d19565b60405180910390fd5b60026000828152602001908152602001600020829080600181540180825580915050600190039060005260206000200160009091909190916101000a81548173ffffffffffffffffffffffffffffffffffffffff021916908373ffffffffffffffffffffffffffffffffffffffff160217905550505050565b60008054906101000a900473ffffffffffffffffffffffffffffffffffffffff1681565b60008054906101000a900473ffffffffffffffffffffffffffffffffffffffff1673ffffffffffffffffffffffffffffffffffffffff163373ffffffffffffffffffffffffffffffffffffffff1614611880576040517f08c379a0000000000000000000000000000000000000000000000000000000008152600401611877906128fb565b60405180910390fd5b600073ffffffffffffffffffffffffffffffffffffffff168573ffffffffffffffffffffffffffffffffffffffff16036118ef576040517f08c379a00000000000000000000000000000000000000000000000000000000081526004016118e690612baf565b60405180910390fd5b6003859080600181540180825580915050600190039060005260206000200160009091909190916101000a81548173ffffffffffffffffffffffffffffffffffffffff021916908373ffffffffffffffffffffffffffffffffffffffff1602179055506000856040516020016119659190612797565b6040516020818303038152906040528051906020012090506001600082815260200190815260200160002060070160009054906101000a900460ff1615806119cd57506001600082815260200190815260200160002060070160019054906101000a900460ff165b611a0c576040517f08c379a0000000000000000000000000000000000000000000000000000000008152600401611a0390612dab565b60405180910390fd5b6040518061016001604052808b81526020018a81526020018981526020018881526020018773ffffffffffffffffffffffffffffffffffffffff16815260200186815260200185815260200160011515815260200160001515815260200184815260200183815250600160008381526020019081526020016000206000820151816000019081611a9c9190612f77565b506020820151816001019081611ab29190612f77565b506040820151816002019081611ac89190612f77565b506060820151816003019081611ade9190612f77565b5060808201518160040160006101000a81548173ffffffffffffffffffffffffffffffffffffffff021916908373ffffffffffffffffffffffffffffffffffffffff16021790555060a0820151816005015560c0820151816006015560e08201518160070160006101000a81548160ff0219169083151502179055506101008201518160070160016101000a81548160ff021916908315150217905550610120820151816008019081611b919190612f77565b50610140820151816009019081611ba891906130a4565b5090505050505050505050505050565b60038181548110611bc857600080fd5b906000526020600020016000915054906101000a900473ffffffffffffffffffffffffffffffffffffffff1681565b60405180610160016040528060608152602001606081526020016060815260200160608152602001600073ffffffffffffffffffffffffffffffffffffffff168152602001600081526020016000815260200160001515815260200160001515815260200160608152602001606081525090565b600081519050919050565b600082825260208201905092915050565b6000819050602082019050919050565b600081519050919050565b600082825260208201905092915050565b60005b83811015611cd1578082015181840152602081019050611cb6565b60008484015250505050565b6000601f19601f8301169050919050565b6000611cf982611c97565b611d038185611ca2565b9350611d13818560208601611cb3565b611d1c81611cdd565b840191505092915050565b600073ffffffffffffffffffffffffffffffffffffffff82169050919050565b6000611d5282611d27565b9050919050565b611d6281611d47565b82525050565b6000819050919050565b611d7b81611d68565b82525050565b60008115159050919050565b611d9681611d81565b82525050565b600081519050919050565b600082825260208201905092915050565b6000611dc382611d9c565b611dcd8185611da7565b9350611ddd818560208601611cb3565b611de681611cdd565b840191505092915050565b6000610160830160008301518482036000860152611e0f8282611cee565b91505060208301518482036020860152611e298282611cee565b91505060408301518482036040860152611e438282611cee565b91505060608301518482036060860152611e5d8282611cee565b9150506080830151611e726080860182611d59565b5060a0830151611e8560a0860182611d72565b5060c0830151611e9860c0860182611d72565b5060e0830151611eab60e0860182611d8d565b50610100830151611ec0610100860182611d8d565b50610120830151848203610120860152611eda8282611cee565b915050610140830151848203610140860152611ef68282611db8565b9150508091505092915050565b6000611f0f8383611df1565b905092915050565b6000602082019050919050565b6000611f2f82611c6b565b611f398185611c76565b935083602082028501611f4b85611c87565b8060005b85811015611f875784840389528151611f688582611f03565b9450611f7383611f17565b925060208a01995050600181019050611f4f565b50829750879550505050505092915050565b60006020820190508181036000830152611fb38184611f24565b905092915050565b6000604051905090565b600080fd5b600080fd5b6000819050919050565b611fe281611fcf565b8114611fed57600080fd5b50565b600081359050611fff81611fd9565b92915050565b61200e81611d68565b811461201957600080fd5b50565b60008135905061202b81612005565b92915050565b6000806040838503121561204857612047611fc5565b5b600061205685828601611ff0565b92505060206120678582860161201c565b9150509250929050565b61207a81611d47565b82525050565b60006020820190506120956000830184612071565b92915050565b6120a481611d47565b81146120af57600080fd5b50565b6000813590506120c18161209b565b92915050565b600080604083850312156120de576120dd611fc5565b5b60006120ec858286016120b2565b92505060206120fd858286016120b2565b9150509250929050565b61211081611d81565b82525050565b600060208201905061212b6000830184612107565b92915050565b60006020828403121561214757612146611fc5565b5b6000612155848285016120b2565b91505092915050565b600082825260208201905092915050565b600061217a82611c97565b612184818561215e565b9350612194818560208601611cb3565b61219d81611cdd565b840191505092915050565b6121b181611d68565b82525050565b600082825260208201905092915050565b60006121d382611d9c565b6121dd81856121b7565b93506121ed818560208601611cb3565b6121f681611cdd565b840191505092915050565b600061010082019050818103600083015261221c818b61216f565b90508181036020830152612230818a61216f565b90508181036040830152612244818961216f565b90508181036060830152612258818861216f565b905061226760808301876121a8565b61227460a08301866121a8565b81810360c0830152612286818561216f565b905081810360e083015261229a81846121c8565b90509998505050505050505050565b6000602082840312156122bf576122be611fc5565b5b60006122cd84828501611ff0565b91505092915050565b60006101608201905081810360008301526122f1818e61216f565b90508181036020830152612305818d61216f565b90508181036040830152612319818c61216f565b9050818103606083015261232d818b61216f565b905061233c608083018a612071565b61234960a08301896121a8565b61235660c08301886121a8565b61236360e0830187612107565b612371610100830186612107565b818103610120830152612384818561216f565b905081810361014083015261239981846121c8565b90509c9b505050505050505050505050565b600080fd5b600080fd5b7f4e487b7100000000000000000000000000000000000000000000000000000000600052604160045260246000fd5b6123ed82611cdd565b810181811067ffffffffffffffff8211171561240c5761240b6123b5565b5b80604052505050565b600061241f611fbb565b905061242b82826123e4565b919050565b600067ffffffffffffffff82111561244b5761244a6123b5565b5b61245482611cdd565b9050602081019050919050565b82818337600083830152505050565b600061248361247e84612430565b612415565b90508281526020810184848401111561249f5761249e6123b0565b5b6124aa848285612461565b509392505050565b600082601f8301126124c7576124c66123ab565b5b81356124d7848260208601612470565b91505092915050565b600067ffffffffffffffff8211156124fb576124fa6123b5565b5b61250482611cdd565b9050602081019050919050565b600061252461251f846124e0565b612415565b9050828152602081018484840111156125405761253f6123b0565b5b61254b848285612461565b509392505050565b600082601f830112612568576125676123ab565b5b8135612578848260208601612511565b91505092915050565b60008060008060008060008060006101208a8c0312156125a4576125a3611fc5565b5b60008a013567ffffffffffffffff8111156125c2576125c1611fca565b5b6125ce8c828d016124b2565b99505060208a013567ffffffffffffffff8111156125ef576125ee611fca565b5b6125fb8c828d016124b2565b98505060408a013567ffffffffffffffff81111561261c5761261b611fca565b5b6126288c828d016124b2565b97505060608a013567ffffffffffffffff81111561264957612648611fca565b5b6126558c828d016124b2565b96505060806126668c828d016120b2565b95505060a06126778c828d0161201c565b94505060c06126888c828d0161201c565b93505060e08a013567ffffffffffffffff8111156126a9576126a8611fca565b5b6126b58c828d016124b2565b9250506101008a013567ffffffffffffffff8111156126d7576126d6611fca565b5b6126e38c828d01612553565b9150509295985092959850929598565b60006020828403121561270957612708611fc5565b5b60006127178482850161201c565b91505092915050565b7f4e487b7100000000000000000000000000000000000000000000000000000000600052603260045260246000fd5b60008160601b9050919050565b60006127678261274f565b9050919050565b60006127798261275c565b9050919050565b61279161278c82611d47565b61276e565b82525050565b60006127a38284612780565b60148201915081905092915050565b7f4e487b7100000000000000000000000000000000000000000000000000000000600052602260045260246000fd5b600060028204905060018216806127f957607f821691505b60208210810361280c5761280b6127b2565b5b50919050565b7f4e487b7100000000000000000000000000000000000000000000000000000000600052601160045260246000fd5b600061284c82611d68565b91507fffffffffffffffffffffffffffffffffffffffffffffffffffffffffffffffff820361287e5761287d612812565b5b600182019050919050565b7f4f6e6c792074686520556e69766572736974792063616e2063616c6c2074686960008201527f732066756e6374696f6e00000000000000000000000000000000000000000000602082015250565b60006128e5602a8361215e565b91506128f082612889565b604082019050919050565b60006020820190508181036000830152612914816128d8565b9050919050565b7f4f6e6c792074686520556e69766572736974792063616e207265766f6b65206360008201527f6572746966696361746573000000000000000000000000000000000000000000602082015250565b6000612977602b8361215e565b91506129828261291b565b604082019050919050565b600060208201905081810360008301526129a68161296a565b9050919050565b7f4365727469666963617465206e6f7420697373756564206f7220616c7265616460008201527f79207265766f6b65640000000000000000000000000000000000000000000000602082015250565b6000612a0960298361215e565b9150612a14826129ad565b604082019050919050565b60006020820190508181036000830152612a38816129fc565b9050919050565b7f4e6f20636572746966696361746520666f756e6420666f72207468697320737460008201527f7564656e74000000000000000000000000000000000000000000000000000000602082015250565b6000612a9b60258361215e565b9150612aa682612a3f565b604082019050919050565b60006020820190508181036000830152612aca81612a8e565b9050919050565b7f5468697320636572746966696361746520686173206265656e207265766f6b6560008201527f6400000000000000000000000000000000000000000000000000000000000000602082015250565b6000612b2d60218361215e565b9150612b3882612ad1565b604082019050919050565b60006020820190508181036000830152612b5c81612b20565b9050919050565b7f496e76616c696420726563697069656e74206164647265737300000000000000600082015250565b6000612b9960198361215e565b9150612ba482612b63565b602082019050919050565b60006020820190508181036000830152612bc881612b8c565b9050919050565b7f4e6f20636572746966696361746520666f756e6420666f72207468697320726560008201527f63697069656e7400000000000000000000000000000000000000000000000000602082015250565b6000612c2b60278361215e565b9150612c3682612bcf565b604082019050919050565b60006020820190508181036000830152612c5a81612c1e565b9050919050565b7f4365727469666963617465206e6f742069737375656400000000000000000000600082015250565b6000612c9760168361215e565b9150612ca282612c61565b602082019050919050565b60006020820190508181036000830152612cc681612c8a565b9050919050565b7f4365727469666963617465206973207265766f6b656400000000000000000000600082015250565b6000612d0360168361215e565b9150612d0e82612ccd565b602082019050919050565b60006020820190508181036000830152612d3281612cf6565b9050919050565b7f436572746966696361746520616c726561647920697373756564206f7220726560008201527f766f6b656420666f72207468697320726563697069656e740000000000000000602082015250565b6000612d9560388361215e565b9150612da082612d39565b604082019050919050565b60006020820190508181036000830152612dc481612d88565b9050919050565b60008190508160005260206000209050919050565b60006020601f8301049050919050565b600082821b905092915050565b600060088302612e2d7fffffffffffffffffffffffffffffffffffffffffffffffffffffffffffffffff82612df0565b612e378683612df0565b95508019841693508086168417925050509392505050565b6000819050919050565b6000612e74612e6f612e6a84611d68565b612e4f565b611d68565b9050919050565b6000819050919050565b612e8e83612e59565b612ea2612e9a82612e7b565b848454612dfd565b825550505050565b600090565b612eb7612eaa565b612ec2818484612e85565b505050565b5b81811015612ee657612edb600082612eaf565b600181019050612ec8565b5050565b601f821115612f2b57612efc81612dcb565b612f0584612de0565b81016020851015612f14578190505b612f28612f2085612de0565b830182612ec7565b50505b505050565b600082821c905092915050565b6000612f4e60001984600802612f30565b1980831691505092915050565b6000612f678383612f3d565b9150826002028217905092915050565b612f8082611c97565b67ffffffffffffffff811115612f9957612f986123b5565b5b612fa382546127e1565b612fae828285612eea565b600060209050601f831160018114612fe15760008415612fcf578287015190505b612fd98582612f5b565b865550613041565b601f198416612fef86612dcb565b60005b8281101561301757848901518255600182019150602085019450602081019050612ff2565b868310156130345784890151613030601f891682612f3d565b8355505b6001600288020188555050505b505050505050565b60008190508160005260206000209050919050565b601f82111561309f5761307081613049565b61307984612de0565b81016020851015613088578190505b61309c61309485612de0565b830182612ec7565b50505b505050565b6130ad82611d9c565b67ffffffffffffffff8111156130c6576130c56123b5565b5b6130d082546127e1565b6130db82828561305e565b600060209050601f83116001811461310e57600084156130fc578287015190505b6131068582612f5b565b86555061316e565b601f19841661311c86613049565b60005b828110156131445784890151825560018201915060208501945060208101905061311f565b86831015613161578489015161315d601f891682612f3d565b8355505b6001600288020188555050505b50505050505056fea26469706673582212205a1739f8666e4e61f0d04bad18262c24c494c0ada1c539f8acef1aceb6f8464564736f6c63430008130033",
  "linkReferences": {},
  "deployedLinkReferences": {}
}