{
  "_format": "hh-sol-artifact-1",
  "contractName": "CertificateNFT",
  "sourceName": "contracts/CertificateNFT.sol",
  "abi": [
    {
      "inputs": [],
      "stateMutability": "nonpayable",
      "type": "constructor"
    },
    {
      "inputs": [
        {
          "internalType": "bytes32",
          "name": "",
          "type": "bytes32"
        }
      ],
      "name": "certificates",
      "outputs": [
        {
          "internalType": "string",
          "name": "name",
          "type": "string"
        },
        {
          "internalType": "string",
          "name": "roll",
          "type": "string"
        },
        {
          "internalType": "string",
          "name": "degreeName",
          "type": "string"
        },
        {
          "internalType": "string",
          "name": "subject",
          "type": "string"
        },
        {
          "internalType": "address",
          "name": "recipient",
          "type": "address"
        },
        {
          "internalType": "uint256",
          "name": "timestamp",
          "type": "uint256"
        },
        {
          "internalType": "bool",
          "name": "isIssued",
          "type": "bool"
        },
        {
          "internalType": "string",
          "name": "fileCID",
          "type": "string"
        }
      ],
      "stateMutability": "view",
      "type": "function"
    },
    {
      "inputs": [
        {
          "internalType": "string",
          "name": "name",
          "type": "string"
        },
        {
          "internalType": "string",
          "name": "roll",
          "type": "string"
        },
        {
          "internalType": "string",
          "name": "degreeName",
          "type": "string"
        },
        {
          "internalType": "string",
          "name": "subject",
          "type": "string"
        },
        {
          "internalType": "address",
          "name": "recipient",
          "type": "address"
        },
        {
          "internalType": "uint256",
          "name": "timestamp",
          "type": "uint256"
        },
        {
          "internalType": "string",
          "name": "fileCID",
          "type": "string"
        }
      ],
      "name": "issueCertificate",
      "outputs": [],
      "stateMutability": "nonpayable",
      "type": "function"
    },
    {
      "inputs": [],
      "name": "owner",
      "outputs": [
        {
          "internalType": "address",
          "name": "",
          "type": "address"
        }
      ],
      "stateMutability": "view",
      "type": "function"
    },
    {
      "inputs": [
        {
          "internalType": "address",
          "name": "recipient",
          "type": "address"
        }
      ],
      "name": "revokeCertificate",
      "outputs": [],
      "stateMutability": "nonpayable",
      "type": "function"
    },
    {
      "inputs": [
        {
          "internalType": "address",
          "name": "recipient",
          "type": "address"
        }
      ],
      "name": "verifyCertificate",
      "outputs": [
        {
          "internalType": "bool",
          "name": "",
          "type": "bool"
        }
      ],
      "stateMutability": "view",
      "type": "function"
    },
    {
      "inputs": [
        {
          "internalType": "address",
          "name": "studentAddress",
          "type": "address"
        }
      ],
      "name": "viewCertificate",
      "outputs": [
        {
          "internalType": "string",
          "name": "name",
          "type": "string"
        },
        {
          "internalType": "string",
          "name": "roll",
          "type": "string"
        },
        {
          "internalType": "string",
          "name": "degreeName",
          "type": "string"
        },
        {
          "internalType": "string",
          "name": "subject",
          "type": "string"
        },
        {
          "internalType": "uint256",
          "name": "timestamp",
          "type": "uint256"
        },
        {
          "internalType": "string",
          "name": "fileCID",
          "type": "string"
        }
      ],
      "stateMutability": "view",
      "type": "function"
    }
  ],
  "bytecode": "0x608060405234801561001057600080fd5b50336000806101000a81548173ffffffffffffffffffffffffffffffffffffffff021916908373ffffffffffffffffffffffffffffffffffffffff160217905550611913806100606000396000f3fe608060405234801561001057600080fd5b50600436106100625760003560e01c806339031ab6146100675780635f893bfa1461008357806364dbbaa21461009f5780636b9afc90146100d4578063742f0688146101045780638da5cb5b1461013b575b600080fd5b610081600480360381019061007c9190610f3d565b610159565b005b61009d6004803603810190610098919061106b565b610437565b005b6100b960048036038101906100b4919061106b565b610586565b6040516100cb96959493929190611126565b60405180910390f35b6100ee60048036038101906100e9919061106b565b6109b6565b6040516100fb91906111c5565b60405180910390f35b61011e60048036038101906101199190611216565b610a0e565b604051610132989796959493929190611252565b60405180910390f35b610143610d2b565b60405161015091906112f3565b60405180910390f35b60008054906101000a900473ffffffffffffffffffffffffffffffffffffffff1673ffffffffffffffffffffffffffffffffffffffff163373ffffffffffffffffffffffffffffffffffffffff16146101e7576040517f08c379a00000000000000000000000000000000000000000000000000000000081526004016101de90611380565b60405180910390fd5b600073ffffffffffffffffffffffffffffffffffffffff168373ffffffffffffffffffffffffffffffffffffffff1603610256576040517f08c379a000000000000000000000000000000000000000000000000000000000815260040161024d906113ec565b60405180910390fd5b6000836040516020016102699190611454565b6040516020818303038152906040528051906020012090506001600082815260200190815260200160002060060160009054906101000a900460ff16156102e5576040517f08c379a00000000000000000000000000000000000000000000000000000000081526004016102dc906114bb565b60405180910390fd5b6040518061010001604052808981526020018881526020018781526020018681526020018573ffffffffffffffffffffffffffffffffffffffff1681526020018481526020016001151581526020018381525060016000838152602001908152602001600020600082015181600001908161036091906116e7565b50602082015181600101908161037691906116e7565b50604082015181600201908161038c91906116e7565b5060608201518160030190816103a291906116e7565b5060808201518160040160006101000a81548173ffffffffffffffffffffffffffffffffffffffff021916908373ffffffffffffffffffffffffffffffffffffffff16021790555060a0820151816005015560c08201518160060160006101000a81548160ff02191690831515021790555060e082015181600701908161042991906116e7565b509050505050505050505050565b60008054906101000a900473ffffffffffffffffffffffffffffffffffffffff1673ffffffffffffffffffffffffffffffffffffffff163373ffffffffffffffffffffffffffffffffffffffff16146104c5576040517f08c379a00000000000000000000000000000000000000000000000000000000081526004016104bc90611380565b60405180910390fd5b6000816040516020016104d89190611454565b6040516020818303038152906040528051906020012090506001600082815260200190815260200160002060060160009054906101000a900460ff16610553576040517f08c379a000000000000000000000000000000000000000000000000000000000815260040161054a9061182b565b60405180910390fd5b60006001600083815260200190815260200160002060060160006101000a81548160ff0219169083151502179055505050565b606080606080600060606000876040516020016105a39190611454565b6040516020818303038152906040528051906020012090508773ffffffffffffffffffffffffffffffffffffffff166001600083815260200190815260200160002060040160009054906101000a900473ffffffffffffffffffffffffffffffffffffffff1673ffffffffffffffffffffffffffffffffffffffff161461065f576040517f08c379a0000000000000000000000000000000000000000000000000000000008152600401610656906118bd565b60405180910390fd5b600160008281526020019081526020016000206000016001600083815260200190815260200160002060010160016000848152602001908152602001600020600201600160008581526020019081526020016000206003016001600086815260200190815260200160002060050154600160008781526020019081526020016000206007018580546106f09061150a565b80601f016020809104026020016040519081016040528092919081815260200182805461071c9061150a565b80156107695780601f1061073e57610100808354040283529160200191610769565b820191906000526020600020905b81548152906001019060200180831161074c57829003601f168201915b5050505050955084805461077c9061150a565b80601f01602080910402602001604051908101604052809291908181526020018280546107a89061150a565b80156107f55780601f106107ca576101008083540402835291602001916107f5565b820191906000526020600020905b8154815290600101906020018083116107d857829003601f168201915b505050505094508380546108089061150a565b80601f01602080910402602001604051908101604052809291908181526020018280546108349061150a565b80156108815780601f1061085657610100808354040283529160200191610881565b820191906000526020600020905b81548152906001019060200180831161086457829003601f168201915b505050505093508280546108949061150a565b80601f01602080910402602001604051908101604052809291908181526020018280546108c09061150a565b801561090d5780601f106108e25761010080835404028352916020019161090d565b820191906000526020600020905b8154815290600101906020018083116108f057829003601f168201915b505050505092508080546109209061150a565b80601f016020809104026020016040519081016040528092919081815260200182805461094c9061150a565b80156109995780601f1061096e57610100808354040283529160200191610999565b820191906000526020600020905b81548152906001019060200180831161097c57829003601f168201915b505050505090509650965096509650965096505091939550919395565b600080826040516020016109ca9190611454565b6040516020818303038152906040528051906020012090506001600082815260200190815260200160002060060160009054906101000a900460ff16915050919050565b6001602052806000526040600020600091509050806000018054610a319061150a565b80601f0160208091040260200160405190810160405280929190818152602001828054610a5d9061150a565b8015610aaa5780601f10610a7f57610100808354040283529160200191610aaa565b820191906000526020600020905b815481529060010190602001808311610a8d57829003601f168201915b505050505090806001018054610abf9061150a565b80601f0160208091040260200160405190810160405280929190818152602001828054610aeb9061150a565b8015610b385780601f10610b0d57610100808354040283529160200191610b38565b820191906000526020600020905b815481529060010190602001808311610b1b57829003601f168201915b505050505090806002018054610b4d9061150a565b80601f0160208091040260200160405190810160405280929190818152602001828054610b799061150a565b8015610bc65780601f10610b9b57610100808354040283529160200191610bc6565b820191906000526020600020905b815481529060010190602001808311610ba957829003601f168201915b505050505090806003018054610bdb9061150a565b80601f0160208091040260200160405190810160405280929190818152602001828054610c079061150a565b8015610c545780601f10610c2957610100808354040283529160200191610c54565b820191906000526020600020905b815481529060010190602001808311610c3757829003601f168201915b5050505050908060040160009054906101000a900473ffffffffffffffffffffffffffffffffffffffff16908060050154908060060160009054906101000a900460ff1690806007018054610ca89061150a565b80601f0160208091040260200160405190810160405280929190818152602001828054610cd49061150a565b8015610d215780601f10610cf657610100808354040283529160200191610d21565b820191906000526020600020905b815481529060010190602001808311610d0457829003601f168201915b5050505050905088565b60008054906101000a900473ffffffffffffffffffffffffffffffffffffffff1681565b6000604051905090565b600080fd5b600080fd5b600080fd5b600080fd5b6000601f19601f8301169050919050565b7f4e487b7100000000000000000000000000000000000000000000000000000000600052604160045260246000fd5b610db682610d6d565b810181811067ffffffffffffffff82111715610dd557610dd4610d7e565b5b80604052505050565b6000610de8610d4f565b9050610df48282610dad565b919050565b600067ffffffffffffffff821115610e1457610e13610d7e565b5b610e1d82610d6d565b9050602081019050919050565b82818337600083830152505050565b6000610e4c610e4784610df9565b610dde565b905082815260208101848484011115610e6857610e67610d68565b5b610e73848285610e2a565b509392505050565b600082601f830112610e9057610e8f610d63565b5b8135610ea0848260208601610e39565b91505092915050565b600073ffffffffffffffffffffffffffffffffffffffff82169050919050565b6000610ed482610ea9565b9050919050565b610ee481610ec9565b8114610eef57600080fd5b50565b600081359050610f0181610edb565b92915050565b6000819050919050565b610f1a81610f07565b8114610f2557600080fd5b50565b600081359050610f3781610f11565b92915050565b600080600080600080600060e0888a031215610f5c57610f5b610d59565b5b600088013567ffffffffffffffff811115610f7a57610f79610d5e565b5b610f868a828b01610e7b565b975050602088013567ffffffffffffffff811115610fa757610fa6610d5e565b5b610fb38a828b01610e7b565b965050604088013567ffffffffffffffff811115610fd457610fd3610d5e565b5b610fe08a828b01610e7b565b955050606088013567ffffffffffffffff81111561100157611000610d5e565b5b61100d8a828b01610e7b565b945050608061101e8a828b01610ef2565b93505060a061102f8a828b01610f28565b92505060c088013567ffffffffffffffff8111156110505761104f610d5e565b5b61105c8a828b01610e7b565b91505092959891949750929550565b60006020828403121561108157611080610d59565b5b600061108f84828501610ef2565b91505092915050565b600081519050919050565b600082825260208201905092915050565b60005b838110156110d25780820151818401526020810190506110b7565b60008484015250505050565b60006110e982611098565b6110f381856110a3565b93506111038185602086016110b4565b61110c81610d6d565b840191505092915050565b61112081610f07565b82525050565b600060c082019050818103600083015261114081896110de565b9050818103602083015261115481886110de565b9050818103604083015261116881876110de565b9050818103606083015261117c81866110de565b905061118b6080830185611117565b81810360a083015261119d81846110de565b9050979650505050505050565b60008115159050919050565b6111bf816111aa565b82525050565b60006020820190506111da60008301846111b6565b92915050565b6000819050919050565b6111f3816111e0565b81146111fe57600080fd5b50565b600081359050611210816111ea565b92915050565b60006020828403121561122c5761122b610d59565b5b600061123a84828501611201565b91505092915050565b61124c81610ec9565b82525050565b600061010082019050818103600083015261126d818b6110de565b90508181036020830152611281818a6110de565b9050818103604083015261129581896110de565b905081810360608301526112a981886110de565b90506112b86080830187611243565b6112c560a0830186611117565b6112d260c08301856111b6565b81810360e08301526112e481846110de565b90509998505050505050505050565b60006020820190506113086000830184611243565b92915050565b7f4f6e6c7920746865206f776e65722063616e2063616c6c20746869732066756e60008201527f6374696f6e000000000000000000000000000000000000000000000000000000602082015250565b600061136a6025836110a3565b91506113758261130e565b604082019050919050565b600060208201905081810360008301526113998161135d565b9050919050565b7f496e76616c696420726563697069656e74206164647265737300000000000000600082015250565b60006113d66019836110a3565b91506113e1826113a0565b602082019050919050565b60006020820190508181036000830152611405816113c9565b9050919050565b60008160601b9050919050565b60006114248261140c565b9050919050565b600061143682611419565b9050919050565b61144e61144982610ec9565b61142b565b82525050565b6000611460828461143d565b60148201915081905092915050565b7f436572746966696361746520616c726561647920697373756564000000000000600082015250565b60006114a5601a836110a3565b91506114b08261146f565b602082019050919050565b600060208201905081810360008301526114d481611498565b9050919050565b7f4e487b7100000000000000000000000000000000000000000000000000000000600052602260045260246000fd5b6000600282049050600182168061152257607f821691505b602082108103611535576115346114db565b5b50919050565b60008190508160005260206000209050919050565b60006020601f8301049050919050565b600082821b905092915050565b60006008830261159d7fffffffffffffffffffffffffffffffffffffffffffffffffffffffffffffffff82611560565b6115a78683611560565b95508019841693508086168417925050509392505050565b6000819050919050565b60006115e46115df6115da84610f07565b6115bf565b610f07565b9050919050565b6000819050919050565b6115fe836115c9565b61161261160a826115eb565b84845461156d565b825550505050565b600090565b61162761161a565b6116328184846115f5565b505050565b5b818110156116565761164b60008261161f565b600181019050611638565b5050565b601f82111561169b5761166c8161153b565b61167584611550565b81016020851015611684578190505b61169861169085611550565b830182611637565b50505b505050565b600082821c905092915050565b60006116be600019846008026116a0565b1980831691505092915050565b60006116d783836116ad565b9150826002028217905092915050565b6116f082611098565b67ffffffffffffffff81111561170957611708610d7e565b5b611713825461150a565b61171e82828561165a565b600060209050601f831160018114611751576000841561173f578287015190505b61174985826116cb565b8655506117b1565b601f19841661175f8661153b565b60005b8281101561178757848901518255600182019150602085019450602081019050611762565b868310156117a457848901516117a0601f8916826116ad565b8355505b6001600288020188555050505b505050505050565b7f4365727469666963617465206e6f7420697373756564206f7220616c7265616460008201527f79207265766f6b65640000000000000000000000000000000000000000000000602082015250565b60006118156029836110a3565b9150611820826117b9565b604082019050919050565b6000602082019050818103600083015261184481611808565b9050919050565b7f4e6f20636572746966696361746520666f756e6420666f72207468697320737460008201527f7564656e74000000000000000000000000000000000000000000000000000000602082015250565b60006118a76025836110a3565b91506118b28261184b565b604082019050919050565b600060208201905081810360008301526118d68161189a565b905091905056fea26469706673582212204ef3488d418ae74ac6851350aec18a1ae7066f5bb01f4b1ca9ad16816ce9a06464736f6c63430008130033",
  "linkReferences": {},
  "deployedLinkReferences": {}
}