{
  "_format": "hh-sol-artifact-1",
  "contractName": "CertificateNFT",
  "sourceName": "contracts/CertificateNFT.sol",
  "abi": [
    {
      "inputs": [],
      "stateMutability": "nonpayable",
      "type": "constructor"
    },
    {
      "inputs": [
        {
          "internalType": "bytes32",
          "name": "",
          "type": "bytes32"
        }
      ],
      "name": "certificates",
      "outputs": [
        {
          "internalType": "string",
          "name": "name",
          "type": "string"
        },
        {
          "internalType": "string",
          "name": "roll",
          "type": "string"
        },
        {
          "internalType": "string",
          "name": "degreeName",
          "type": "string"
        },
        {
          "internalType": "string",
          "name": "subject",
          "type": "string"
        },
        {
          "internalType": "address",
          "name": "recipient",
          "type": "address"
        },
        {
          "internalType": "uint256",
          "name": "timestamp",
          "type": "uint256"
        },
        {
          "internalType": "bool",
          "name": "isIssued",
          "type": "bool"
        },
        {
          "internalType": "string",
          "name": "fileCID",
          "type": "string"
        }
      ],
      "stateMutability": "view",
      "type": "function"
    },
    {
      "inputs": [
        {
          "internalType": "string",
          "name": "name",
          "type": "string"
        },
        {
          "internalType": "string",
          "name": "roll",
          "type": "string"
        },
        {
          "internalType": "string",
          "name": "degreeName",
          "type": "string"
        },
        {
          "internalType": "string",
          "name": "subject",
          "type": "string"
        },
        {
          "internalType": "address",
          "name": "recipient",
          "type": "address"
        },
        {
          "internalType": "uint256",
          "name": "timestamp",
          "type": "uint256"
        },
        {
          "internalType": "string",
          "name": "fileCID",
          "type": "string"
        }
      ],
      "name": "issueCertificate",
      "outputs": [],
      "stateMutability": "nonpayable",
      "type": "function"
    },
    {
      "inputs": [],
      "name": "owner",
      "outputs": [
        {
          "internalType": "address",
          "name": "",
          "type": "address"
        }
      ],
      "stateMutability": "view",
      "type": "function"
    },
    {
      "inputs": [
        {
          "internalType": "address",
          "name": "recipient",
          "type": "address"
        }
      ],
      "name": "verifyCertificate",
      "outputs": [
        {
          "internalType": "bool",
          "name": "",
          "type": "bool"
        }
      ],
      "stateMutability": "view",
      "type": "function"
    },
    {
      "inputs": [
        {
          "internalType": "address",
          "name": "studentAddress",
          "type": "address"
        }
      ],
      "name": "viewCertificate",
      "outputs": [
        {
          "internalType": "string",
          "name": "name",
          "type": "string"
        },
        {
          "internalType": "string",
          "name": "roll",
          "type": "string"
        },
        {
          "internalType": "string",
          "name": "degreeName",
          "type": "string"
        },
        {
          "internalType": "string",
          "name": "subject",
          "type": "string"
        },
        {
          "internalType": "uint256",
          "name": "timestamp",
          "type": "uint256"
        },
        {
          "internalType": "string",
          "name": "fileCID",
          "type": "string"
        }
      ],
      "stateMutability": "view",
      "type": "function"
    }
  ],
  "bytecode": "0x608060405234801561001057600080fd5b50336000806101000a81548173ffffffffffffffffffffffffffffffffffffffff021916908373ffffffffffffffffffffffffffffffffffffffff16021790555061170b806100606000396000f3fe608060405234801561001057600080fd5b50600436106100575760003560e01c806339031ab61461005c57806364dbbaa2146100785780636b9afc90146100ad578063742f0688146100dd5780638da5cb5b14610114575b600080fd5b61007660048036038101906100719190610dc7565b610132565b005b610092600480360381019061008d9190610ef5565b610410565b6040516100a496959493929190610fb0565b60405180910390f35b6100c760048036038101906100c29190610ef5565b610840565b6040516100d4919061104f565b60405180910390f35b6100f760048036038101906100f291906110a0565b610898565b60405161010b9897969594939291906110dc565b60405180910390f35b61011c610bb5565b604051610129919061117d565b60405180910390f35b60008054906101000a900473ffffffffffffffffffffffffffffffffffffffff1673ffffffffffffffffffffffffffffffffffffffff163373ffffffffffffffffffffffffffffffffffffffff16146101c0576040517f08c379a00000000000000000000000000000000000000000000000000000000081526004016101b79061120a565b60405180910390fd5b600073ffffffffffffffffffffffffffffffffffffffff168373ffffffffffffffffffffffffffffffffffffffff160361022f576040517f08c379a000000000000000000000000000000000000000000000000000000000815260040161022690611276565b60405180910390fd5b60008360405160200161024291906112de565b6040516020818303038152906040528051906020012090506001600082815260200190815260200160002060060160009054906101000a900460ff16156102be576040517f08c379a00000000000000000000000000000000000000000000000000000000081526004016102b590611345565b60405180910390fd5b6040518061010001604052808981526020018881526020018781526020018681526020018573ffffffffffffffffffffffffffffffffffffffff168152602001848152602001600115158152602001838152506001600083815260200190815260200160002060008201518160000190816103399190611571565b50602082015181600101908161034f9190611571565b5060408201518160020190816103659190611571565b50606082015181600301908161037b9190611571565b5060808201518160040160006101000a81548173ffffffffffffffffffffffffffffffffffffffff021916908373ffffffffffffffffffffffffffffffffffffffff16021790555060a0820151816005015560c08201518160060160006101000a81548160ff02191690831515021790555060e08201518160070190816104029190611571565b509050505050505050505050565b6060806060806000606060008760405160200161042d91906112de565b6040516020818303038152906040528051906020012090508773ffffffffffffffffffffffffffffffffffffffff166001600083815260200190815260200160002060040160009054906101000a900473ffffffffffffffffffffffffffffffffffffffff1673ffffffffffffffffffffffffffffffffffffffff16146104e9576040517f08c379a00000000000000000000000000000000000000000000000000000000081526004016104e0906116b5565b60405180910390fd5b6001600082815260200190815260200160002060000160016000838152602001908152602001600020600101600160008481526020019081526020016000206002016001600085815260200190815260200160002060030160016000868152602001908152602001600020600501546001600087815260200190815260200160002060070185805461057a90611394565b80601f01602080910402602001604051908101604052809291908181526020018280546105a690611394565b80156105f35780601f106105c8576101008083540402835291602001916105f3565b820191906000526020600020905b8154815290600101906020018083116105d657829003601f168201915b5050505050955084805461060690611394565b80601f016020809104026020016040519081016040528092919081815260200182805461063290611394565b801561067f5780601f106106545761010080835404028352916020019161067f565b820191906000526020600020905b81548152906001019060200180831161066257829003601f168201915b5050505050945083805461069290611394565b80601f01602080910402602001604051908101604052809291908181526020018280546106be90611394565b801561070b5780601f106106e05761010080835404028352916020019161070b565b820191906000526020600020905b8154815290600101906020018083116106ee57829003601f168201915b5050505050935082805461071e90611394565b80601f016020809104026020016040519081016040528092919081815260200182805461074a90611394565b80156107975780601f1061076c57610100808354040283529160200191610797565b820191906000526020600020905b81548152906001019060200180831161077a57829003601f168201915b505050505092508080546107aa90611394565b80601f01602080910402602001604051908101604052809291908181526020018280546107d690611394565b80156108235780601f106107f857610100808354040283529160200191610823565b820191906000526020600020905b81548152906001019060200180831161080657829003601f168201915b505050505090509650965096509650965096505091939550919395565b6000808260405160200161085491906112de565b6040516020818303038152906040528051906020012090506001600082815260200190815260200160002060060160009054906101000a900460ff16915050919050565b60016020528060005260406000206000915090508060000180546108bb90611394565b80601f01602080910402602001604051908101604052809291908181526020018280546108e790611394565b80156109345780601f1061090957610100808354040283529160200191610934565b820191906000526020600020905b81548152906001019060200180831161091757829003601f168201915b50505050509080600101805461094990611394565b80601f016020809104026020016040519081016040528092919081815260200182805461097590611394565b80156109c25780601f10610997576101008083540402835291602001916109c2565b820191906000526020600020905b8154815290600101906020018083116109a557829003601f168201915b5050505050908060020180546109d790611394565b80601f0160208091040260200160405190810160405280929190818152602001828054610a0390611394565b8015610a505780601f10610a2557610100808354040283529160200191610a50565b820191906000526020600020905b815481529060010190602001808311610a3357829003601f168201915b505050505090806003018054610a6590611394565b80601f0160208091040260200160405190810160405280929190818152602001828054610a9190611394565b8015610ade5780601f10610ab357610100808354040283529160200191610ade565b820191906000526020600020905b815481529060010190602001808311610ac157829003601f168201915b5050505050908060040160009054906101000a900473ffffffffffffffffffffffffffffffffffffffff16908060050154908060060160009054906101000a900460ff1690806007018054610b3290611394565b80601f0160208091040260200160405190810160405280929190818152602001828054610b5e90611394565b8015610bab5780601f10610b8057610100808354040283529160200191610bab565b820191906000526020600020905b815481529060010190602001808311610b8e57829003601f168201915b5050505050905088565b60008054906101000a900473ffffffffffffffffffffffffffffffffffffffff1681565b6000604051905090565b600080fd5b600080fd5b600080fd5b600080fd5b6000601f19601f8301169050919050565b7f4e487b7100000000000000000000000000000000000000000000000000000000600052604160045260246000fd5b610c4082610bf7565b810181811067ffffffffffffffff82111715610c5f57610c5e610c08565b5b80604052505050565b6000610c72610bd9565b9050610c7e8282610c37565b919050565b600067ffffffffffffffff821115610c9e57610c9d610c08565b5b610ca782610bf7565b9050602081019050919050565b82818337600083830152505050565b6000610cd6610cd184610c83565b610c68565b905082815260208101848484011115610cf257610cf1610bf2565b5b610cfd848285610cb4565b509392505050565b600082601f830112610d1a57610d19610bed565b5b8135610d2a848260208601610cc3565b91505092915050565b600073ffffffffffffffffffffffffffffffffffffffff82169050919050565b6000610d5e82610d33565b9050919050565b610d6e81610d53565b8114610d7957600080fd5b50565b600081359050610d8b81610d65565b92915050565b6000819050919050565b610da481610d91565b8114610daf57600080fd5b50565b600081359050610dc181610d9b565b92915050565b600080600080600080600060e0888a031215610de657610de5610be3565b5b600088013567ffffffffffffffff811115610e0457610e03610be8565b5b610e108a828b01610d05565b975050602088013567ffffffffffffffff811115610e3157610e30610be8565b5b610e3d8a828b01610d05565b965050604088013567ffffffffffffffff811115610e5e57610e5d610be8565b5b610e6a8a828b01610d05565b955050606088013567ffffffffffffffff811115610e8b57610e8a610be8565b5b610e978a828b01610d05565b9450506080610ea88a828b01610d7c565b93505060a0610eb98a828b01610db2565b92505060c088013567ffffffffffffffff811115610eda57610ed9610be8565b5b610ee68a828b01610d05565b91505092959891949750929550565b600060208284031215610f0b57610f0a610be3565b5b6000610f1984828501610d7c565b91505092915050565b600081519050919050565b600082825260208201905092915050565b60005b83811015610f5c578082015181840152602081019050610f41565b60008484015250505050565b6000610f7382610f22565b610f7d8185610f2d565b9350610f8d818560208601610f3e565b610f9681610bf7565b840191505092915050565b610faa81610d91565b82525050565b600060c0820190508181036000830152610fca8189610f68565b90508181036020830152610fde8188610f68565b90508181036040830152610ff28187610f68565b905081810360608301526110068186610f68565b90506110156080830185610fa1565b81810360a08301526110278184610f68565b9050979650505050505050565b60008115159050919050565b61104981611034565b82525050565b60006020820190506110646000830184611040565b92915050565b6000819050919050565b61107d8161106a565b811461108857600080fd5b50565b60008135905061109a81611074565b92915050565b6000602082840312156110b6576110b5610be3565b5b60006110c48482850161108b565b91505092915050565b6110d681610d53565b82525050565b60006101008201905081810360008301526110f7818b610f68565b9050818103602083015261110b818a610f68565b9050818103604083015261111f8189610f68565b905081810360608301526111338188610f68565b905061114260808301876110cd565b61114f60a0830186610fa1565b61115c60c0830185611040565b81810360e083015261116e8184610f68565b90509998505050505050505050565b600060208201905061119260008301846110cd565b92915050565b7f4f6e6c7920746865206f776e65722063616e2063616c6c20746869732066756e60008201527f6374696f6e000000000000000000000000000000000000000000000000000000602082015250565b60006111f4602583610f2d565b91506111ff82611198565b604082019050919050565b60006020820190508181036000830152611223816111e7565b9050919050565b7f496e76616c696420726563697069656e74206164647265737300000000000000600082015250565b6000611260601983610f2d565b915061126b8261122a565b602082019050919050565b6000602082019050818103600083015261128f81611253565b9050919050565b60008160601b9050919050565b60006112ae82611296565b9050919050565b60006112c0826112a3565b9050919050565b6112d86112d382610d53565b6112b5565b82525050565b60006112ea82846112c7565b60148201915081905092915050565b7f436572746966696361746520616c726561647920697373756564000000000000600082015250565b600061132f601a83610f2d565b915061133a826112f9565b602082019050919050565b6000602082019050818103600083015261135e81611322565b9050919050565b7f4e487b7100000000000000000000000000000000000000000000000000000000600052602260045260246000fd5b600060028204905060018216806113ac57607f821691505b6020821081036113bf576113be611365565b5b50919050565b60008190508160005260206000209050919050565b60006020601f8301049050919050565b600082821b905092915050565b6000600883026114277fffffffffffffffffffffffffffffffffffffffffffffffffffffffffffffffff826113ea565b61143186836113ea565b95508019841693508086168417925050509392505050565b6000819050919050565b600061146e61146961146484610d91565b611449565b610d91565b9050919050565b6000819050919050565b61148883611453565b61149c61149482611475565b8484546113f7565b825550505050565b600090565b6114b16114a4565b6114bc81848461147f565b505050565b5b818110156114e0576114d56000826114a9565b6001810190506114c2565b5050565b601f821115611525576114f6816113c5565b6114ff846113da565b8101602085101561150e578190505b61152261151a856113da565b8301826114c1565b50505b505050565b600082821c905092915050565b60006115486000198460080261152a565b1980831691505092915050565b60006115618383611537565b9150826002028217905092915050565b61157a82610f22565b67ffffffffffffffff81111561159357611592610c08565b5b61159d8254611394565b6115a88282856114e4565b600060209050601f8311600181146115db57600084156115c9578287015190505b6115d38582611555565b86555061163b565b601f1984166115e9866113c5565b60005b82811015611611578489015182556001820191506020850194506020810190506115ec565b8683101561162e578489015161162a601f891682611537565b8355505b6001600288020188555050505b505050505050565b7f4e6f20636572746966696361746520666f756e6420666f72207468697320737460008201527f7564656e74000000000000000000000000000000000000000000000000000000602082015250565b600061169f602583610f2d565b91506116aa82611643565b604082019050919050565b600060208201905081810360008301526116ce81611692565b905091905056fea2646970667358221220515ad54e8ba04569f03d30ac3e2431864a3902651b4fa0fc3fc37f154ccc3a3164736f6c63430008130033",
  "linkReferences": {},
  "deployedLinkReferences": {}
}