{
  "_format": "hh-sol-artifact-1",
  "contractName": "CertificateNFT",
  "sourceName": "contracts/CertificateNFT.sol",
  "abi": [
    {
      "inputs": [],
      "stateMutability": "nonpayable",
      "type": "constructor"
    },
    {
      "inputs": [
        {
          "internalType": "bytes32",
          "name": "",
          "type": "bytes32"
        }
      ],
      "name": "certificates",
      "outputs": [
        {
          "internalType": "string",
          "name": "name",
          "type": "string"
        },
        {
          "internalType": "string",
          "name": "roll",
          "type": "string"
        },
        {
          "internalType": "string",
          "name": "degreeName",
          "type": "string"
        },
        {
          "internalType": "string",
          "name": "subject",
          "type": "string"
        },
        {
          "internalType": "address",
          "name": "recipient",
          "type": "address"
        },
        {
          "internalType": "uint256",
          "name": "timestamp",
          "type": "uint256"
        },
        {
          "internalType": "bool",
          "name": "isIssued",
          "type": "bool"
        },
        {
          "internalType": "bool",
          "name": "isRevoked",
          "type": "bool"
        },
        {
          "internalType": "string",
          "name": "fileCID",
          "type": "string"
        }
      ],
      "stateMutability": "view",
      "type": "function"
    },
    {
      "inputs": [
        {
          "internalType": "string",
          "name": "name",
          "type": "string"
        },
        {
          "internalType": "string",
          "name": "roll",
          "type": "string"
        },
        {
          "internalType": "string",
          "name": "degreeName",
          "type": "string"
        },
        {
          "internalType": "string",
          "name": "subject",
          "type": "string"
        },
        {
          "internalType": "address",
          "name": "recipient",
          "type": "address"
        },
        {
          "internalType": "uint256",
          "name": "timestamp",
          "type": "uint256"
        },
        {
          "internalType": "string",
          "name": "fileCID",
          "type": "string"
        }
      ],
      "name": "issueCertificate",
      "outputs": [],
      "stateMutability": "nonpayable",
      "type": "function"
    },
    {
      "inputs": [],
      "name": "owner",
      "outputs": [
        {
          "internalType": "address",
          "name": "",
          "type": "address"
        }
      ],
      "stateMutability": "view",
      "type": "function"
    },
    {
      "inputs": [
        {
          "internalType": "address",
          "name": "recipient",
          "type": "address"
        }
      ],
      "name": "revokeCertificate",
      "outputs": [],
      "stateMutability": "nonpayable",
      "type": "function"
    },
    {
      "inputs": [
        {
          "internalType": "address",
          "name": "recipient",
          "type": "address"
        }
      ],
      "name": "verifyCertificate",
      "outputs": [
        {
          "internalType": "bool",
          "name": "",
          "type": "bool"
        }
      ],
      "stateMutability": "view",
      "type": "function"
    },
    {
      "inputs": [
        {
          "internalType": "address",
          "name": "studentAddress",
          "type": "address"
        }
      ],
      "name": "viewCertificate",
      "outputs": [
        {
          "internalType": "string",
          "name": "name",
          "type": "string"
        },
        {
          "internalType": "string",
          "name": "roll",
          "type": "string"
        },
        {
          "internalType": "string",
          "name": "degreeName",
          "type": "string"
        },
        {
          "internalType": "string",
          "name": "subject",
          "type": "string"
        },
        {
          "internalType": "uint256",
          "name": "timestamp",
          "type": "uint256"
        },
        {
          "internalType": "string",
          "name": "fileCID",
          "type": "string"
        }
      ],
      "stateMutability": "view",
      "type": "function"
    }
  ],
  "bytecode": "0x608060405234801561001057600080fd5b50336000806101000a81548173ffffffffffffffffffffffffffffffffffffffff021916908373ffffffffffffffffffffffffffffffffffffffff160217905550611c09806100606000396000f3fe608060405234801561001057600080fd5b50600436106100625760003560e01c806339031ab6146100675780635f893bfa1461008357806364dbbaa21461009f5780636b9afc90146100d4578063742f0688146101045780638da5cb5b1461013c575b600080fd5b610081600480360381019061007c91906110da565b61015a565b005b61009d60048036038101906100989190611208565b61048d565b005b6100b960048036038101906100b49190611208565b6105db565b6040516100cb969594939291906112c3565b60405180910390f35b6100ee60048036038101906100e99190611208565b610a6f565b6040516100fb9190611362565b60405180910390f35b61011e600480360381019061011991906113b3565b610b98565b604051610133999897969594939291906113ef565b60405180910390f35b610144610ec8565b604051610151919061149f565b60405180910390f35b60008054906101000a900473ffffffffffffffffffffffffffffffffffffffff1673ffffffffffffffffffffffffffffffffffffffff163373ffffffffffffffffffffffffffffffffffffffff16146101e8576040517f08c379a00000000000000000000000000000000000000000000000000000000081526004016101df9061152c565b60405180910390fd5b600073ffffffffffffffffffffffffffffffffffffffff168373ffffffffffffffffffffffffffffffffffffffff1603610257576040517f08c379a000000000000000000000000000000000000000000000000000000000815260040161024e90611598565b60405180910390fd5b60008360405160200161026a9190611600565b6040516020818303038152906040528051906020012090506001600082815260200190815260200160002060060160009054906101000a900460ff1615806102d257506001600082815260200190815260200160002060060160019054906101000a900460ff165b610311576040517f08c379a00000000000000000000000000000000000000000000000000000000081526004016103089061168d565b60405180910390fd5b6040518061012001604052808981526020018881526020018781526020018681526020018573ffffffffffffffffffffffffffffffffffffffff1681526020018481526020016001151581526020016000151581526020018381525060016000838152602001908152602001600020600082015181600001908161039591906118b9565b5060208201518160010190816103ab91906118b9565b5060408201518160020190816103c191906118b9565b5060608201518160030190816103d791906118b9565b5060808201518160040160006101000a81548173ffffffffffffffffffffffffffffffffffffffff021916908373ffffffffffffffffffffffffffffffffffffffff16021790555060a0820151816005015560c08201518160060160006101000a81548160ff02191690831515021790555060e08201518160060160016101000a81548160ff02191690831515021790555061010082015181600701908161047f91906118b9565b509050505050505050505050565b60008054906101000a900473ffffffffffffffffffffffffffffffffffffffff1673ffffffffffffffffffffffffffffffffffffffff163373ffffffffffffffffffffffffffffffffffffffff161461051b576040517f08c379a00000000000000000000000000000000000000000000000000000000081526004016105129061152c565b60405180910390fd5b60008160405160200161052e9190611600565b6040516020818303038152906040528051906020012090506001600082815260200190815260200160002060060160009054906101000a900460ff166105a9576040517f08c379a00000000000000000000000000000000000000000000000000000000081526004016105a0906119fd565b60405180910390fd5b600180600083815260200190815260200160002060060160016101000a81548160ff0219169083151502179055505050565b606080606080600060606000876040516020016105f89190611600565b6040516020818303038152906040528051906020012090508773ffffffffffffffffffffffffffffffffffffffff166001600083815260200190815260200160002060040160009054906101000a900473ffffffffffffffffffffffffffffffffffffffff1673ffffffffffffffffffffffffffffffffffffffff16146106b4576040517f08c379a00000000000000000000000000000000000000000000000000000000081526004016106ab90611a8f565b60405180910390fd5b6001600082815260200190815260200160002060060160019054906101000a900460ff1615610718576040517f08c379a000000000000000000000000000000000000000000000000000000000815260040161070f90611b21565b60405180910390fd5b600160008281526020019081526020016000206000016001600083815260200190815260200160002060010160016000848152602001908152602001600020600201600160008581526020019081526020016000206003016001600086815260200190815260200160002060050154600160008781526020019081526020016000206007018580546107a9906116dc565b80601f01602080910402602001604051908101604052809291908181526020018280546107d5906116dc565b80156108225780601f106107f757610100808354040283529160200191610822565b820191906000526020600020905b81548152906001019060200180831161080557829003601f168201915b50505050509550848054610835906116dc565b80601f0160208091040260200160405190810160405280929190818152602001828054610861906116dc565b80156108ae5780601f10610883576101008083540402835291602001916108ae565b820191906000526020600020905b81548152906001019060200180831161089157829003601f168201915b505050505094508380546108c1906116dc565b80601f01602080910402602001604051908101604052809291908181526020018280546108ed906116dc565b801561093a5780601f1061090f5761010080835404028352916020019161093a565b820191906000526020600020905b81548152906001019060200180831161091d57829003601f168201915b5050505050935082805461094d906116dc565b80601f0160208091040260200160405190810160405280929190818152602001828054610979906116dc565b80156109c65780601f1061099b576101008083540402835291602001916109c6565b820191906000526020600020905b8154815290600101906020018083116109a957829003601f168201915b505050505092508080546109d9906116dc565b80601f0160208091040260200160405190810160405280929190818152602001828054610a05906116dc565b8015610a525780601f10610a2757610100808354040283529160200191610a52565b820191906000526020600020905b815481529060010190602001808311610a3557829003601f168201915b505050505090509650965096509650965096505091939550919395565b60008082604051602001610a839190611600565b6040516020818303038152906040528051906020012090508273ffffffffffffffffffffffffffffffffffffffff166001600083815260200190815260200160002060040160009054906101000a900473ffffffffffffffffffffffffffffffffffffffff1673ffffffffffffffffffffffffffffffffffffffff1614610b3f576040517f08c379a0000000000000000000000000000000000000000000000000000000008152600401610b3690611bb3565b60405180910390fd5b6001600082815260200190815260200160002060060160009054906101000a900460ff168015610b9057506001600082815260200190815260200160002060060160019054906101000a900460ff16155b915050919050565b6001602052806000526040600020600091509050806000018054610bbb906116dc565b80601f0160208091040260200160405190810160405280929190818152602001828054610be7906116dc565b8015610c345780601f10610c0957610100808354040283529160200191610c34565b820191906000526020600020905b815481529060010190602001808311610c1757829003601f168201915b505050505090806001018054610c49906116dc565b80601f0160208091040260200160405190810160405280929190818152602001828054610c75906116dc565b8015610cc25780601f10610c9757610100808354040283529160200191610cc2565b820191906000526020600020905b815481529060010190602001808311610ca557829003601f168201915b505050505090806002018054610cd7906116dc565b80601f0160208091040260200160405190810160405280929190818152602001828054610d03906116dc565b8015610d505780601f10610d2557610100808354040283529160200191610d50565b820191906000526020600020905b815481529060010190602001808311610d3357829003601f168201915b505050505090806003018054610d65906116dc565b80601f0160208091040260200160405190810160405280929190818152602001828054610d91906116dc565b8015610dde5780601f10610db357610100808354040283529160200191610dde565b820191906000526020600020905b815481529060010190602001808311610dc157829003601f168201915b5050505050908060040160009054906101000a900473ffffffffffffffffffffffffffffffffffffffff16908060050154908060060160009054906101000a900460ff16908060060160019054906101000a900460ff1690806007018054610e45906116dc565b80601f0160208091040260200160405190810160405280929190818152602001828054610e71906116dc565b8015610ebe5780601f10610e9357610100808354040283529160200191610ebe565b820191906000526020600020905b815481529060010190602001808311610ea157829003601f168201915b5050505050905089565b60008054906101000a900473ffffffffffffffffffffffffffffffffffffffff1681565b6000604051905090565b600080fd5b600080fd5b600080fd5b600080fd5b6000601f19601f8301169050919050565b7f4e487b7100000000000000000000000000000000000000000000000000000000600052604160045260246000fd5b610f5382610f0a565b810181811067ffffffffffffffff82111715610f7257610f71610f1b565b5b80604052505050565b6000610f85610eec565b9050610f918282610f4a565b919050565b600067ffffffffffffffff821115610fb157610fb0610f1b565b5b610fba82610f0a565b9050602081019050919050565b82818337600083830152505050565b6000610fe9610fe484610f96565b610f7b565b90508281526020810184848401111561100557611004610f05565b5b611010848285610fc7565b509392505050565b600082601f83011261102d5761102c610f00565b5b813561103d848260208601610fd6565b91505092915050565b600073ffffffffffffffffffffffffffffffffffffffff82169050919050565b600061107182611046565b9050919050565b61108181611066565b811461108c57600080fd5b50565b60008135905061109e81611078565b92915050565b6000819050919050565b6110b7816110a4565b81146110c257600080fd5b50565b6000813590506110d4816110ae565b92915050565b600080600080600080600060e0888a0312156110f9576110f8610ef6565b5b600088013567ffffffffffffffff81111561111757611116610efb565b5b6111238a828b01611018565b975050602088013567ffffffffffffffff81111561114457611143610efb565b5b6111508a828b01611018565b965050604088013567ffffffffffffffff81111561117157611170610efb565b5b61117d8a828b01611018565b955050606088013567ffffffffffffffff81111561119e5761119d610efb565b5b6111aa8a828b01611018565b94505060806111bb8a828b0161108f565b93505060a06111cc8a828b016110c5565b92505060c088013567ffffffffffffffff8111156111ed576111ec610efb565b5b6111f98a828b01611018565b91505092959891949750929550565b60006020828403121561121e5761121d610ef6565b5b600061122c8482850161108f565b91505092915050565b600081519050919050565b600082825260208201905092915050565b60005b8381101561126f578082015181840152602081019050611254565b60008484015250505050565b600061128682611235565b6112908185611240565b93506112a0818560208601611251565b6112a981610f0a565b840191505092915050565b6112bd816110a4565b82525050565b600060c08201905081810360008301526112dd818961127b565b905081810360208301526112f1818861127b565b90508181036040830152611305818761127b565b90508181036060830152611319818661127b565b905061132860808301856112b4565b81810360a083015261133a818461127b565b9050979650505050505050565b60008115159050919050565b61135c81611347565b82525050565b60006020820190506113776000830184611353565b92915050565b6000819050919050565b6113908161137d565b811461139b57600080fd5b50565b6000813590506113ad81611387565b92915050565b6000602082840312156113c9576113c8610ef6565b5b60006113d78482850161139e565b91505092915050565b6113e981611066565b82525050565b600061012082019050818103600083015261140a818c61127b565b9050818103602083015261141e818b61127b565b90508181036040830152611432818a61127b565b90508181036060830152611446818961127b565b905061145560808301886113e0565b61146260a08301876112b4565b61146f60c0830186611353565b61147c60e0830185611353565b81810361010083015261148f818461127b565b90509a9950505050505050505050565b60006020820190506114b460008301846113e0565b92915050565b7f4f6e6c7920746865206f776e65722063616e2063616c6c20746869732066756e60008201527f6374696f6e000000000000000000000000000000000000000000000000000000602082015250565b6000611516602583611240565b9150611521826114ba565b604082019050919050565b6000602082019050818103600083015261154581611509565b9050919050565b7f496e76616c696420726563697069656e74206164647265737300000000000000600082015250565b6000611582601983611240565b915061158d8261154c565b602082019050919050565b600060208201905081810360008301526115b181611575565b9050919050565b60008160601b9050919050565b60006115d0826115b8565b9050919050565b60006115e2826115c5565b9050919050565b6115fa6115f582611066565b6115d7565b82525050565b600061160c82846115e9565b60148201915081905092915050565b7f436572746966696361746520616c726561647920697373756564206f7220726560008201527f766f6b656420666f72207468697320726563697069656e740000000000000000602082015250565b6000611677603883611240565b91506116828261161b565b604082019050919050565b600060208201905081810360008301526116a68161166a565b9050919050565b7f4e487b7100000000000000000000000000000000000000000000000000000000600052602260045260246000fd5b600060028204905060018216806116f457607f821691505b602082108103611707576117066116ad565b5b50919050565b60008190508160005260206000209050919050565b60006020601f8301049050919050565b600082821b905092915050565b60006008830261176f7fffffffffffffffffffffffffffffffffffffffffffffffffffffffffffffffff82611732565b6117798683611732565b95508019841693508086168417925050509392505050565b6000819050919050565b60006117b66117b16117ac846110a4565b611791565b6110a4565b9050919050565b6000819050919050565b6117d08361179b565b6117e46117dc826117bd565b84845461173f565b825550505050565b600090565b6117f96117ec565b6118048184846117c7565b505050565b5b818110156118285761181d6000826117f1565b60018101905061180a565b5050565b601f82111561186d5761183e8161170d565b61184784611722565b81016020851015611856578190505b61186a61186285611722565b830182611809565b50505b505050565b600082821c905092915050565b600061189060001984600802611872565b1980831691505092915050565b60006118a9838361187f565b9150826002028217905092915050565b6118c282611235565b67ffffffffffffffff8111156118db576118da610f1b565b5b6118e582546116dc565b6118f082828561182c565b600060209050601f8311600181146119235760008415611911578287015190505b61191b858261189d565b865550611983565b601f1984166119318661170d565b60005b8281101561195957848901518255600182019150602085019450602081019050611934565b868310156119765784890151611972601f89168261187f565b8355505b6001600288020188555050505b505050505050565b7f4365727469666963617465206e6f7420697373756564206f7220616c7265616460008201527f79207265766f6b65640000000000000000000000000000000000000000000000602082015250565b60006119e7602983611240565b91506119f28261198b565b604082019050919050565b60006020820190508181036000830152611a16816119da565b9050919050565b7f4e6f20636572746966696361746520666f756e6420666f72207468697320737460008201527f7564656e74000000000000000000000000000000000000000000000000000000602082015250565b6000611a79602583611240565b9150611a8482611a1d565b604082019050919050565b60006020820190508181036000830152611aa881611a6c565b9050919050565b7f5468697320636572746966696361746520686173206265656e207265766f6b6560008201527f6400000000000000000000000000000000000000000000000000000000000000602082015250565b6000611b0b602183611240565b9150611b1682611aaf565b604082019050919050565b60006020820190508181036000830152611b3a81611afe565b9050919050565b7f4e6f20636572746966696361746520666f756e6420666f72207468697320726560008201527f63697069656e7400000000000000000000000000000000000000000000000000602082015250565b6000611b9d602783611240565b9150611ba882611b41565b604082019050919050565b60006020820190508181036000830152611bcc81611b90565b905091905056fea26469706673582212207d841ea05850fb344eee4ad820cc804fbc1214c630274f402dd46b0b6797311064736f6c63430008130033",
  "linkReferences": {},
  "deployedLinkReferences": {}
}