{
  "_format": "hh-sol-artifact-1",
  "contractName": "CertificateNFT",
  "sourceName": "contracts/CertificateNFT.sol",
  "abi": [
    {
      "inputs": [],
      "stateMutability": "nonpayable",
      "type": "constructor"
    },
    {
      "inputs": [
        {
          "internalType": "address",
          "name": "",
          "type": "address"
        }
      ],
      "name": "certificates",
      "outputs": [
        {
          "internalType": "address",
          "name": "recipient",
          "type": "address"
        },
        {
          "internalType": "string",
          "name": "encryptedData",
          "type": "string"
        },
        {
          "internalType": "bytes32",
          "name": "dataHash",
          "type": "bytes32"
        },
        {
          "internalType": "bytes",
          "name": "signature",
          "type": "bytes"
        },
        {
          "internalType": "bool",
          "name": "isIssued",
          "type": "bool"
        },
        {
          "internalType": "bool",
          "name": "isRevoked",
          "type": "bool"
        }
      ],
      "stateMutability": "view",
      "type": "function"
    },
    {
      "inputs": [],
      "name": "getAllCertificates",
      "outputs": [
        {
          "components": [
            {
              "internalType": "address",
              "name": "recipient",
              "type": "address"
            },
            {
              "internalType": "string",
              "name": "encryptedData",
              "type": "string"
            },
            {
              "internalType": "bytes32",
              "name": "dataHash",
              "type": "bytes32"
            },
            {
              "internalType": "bytes",
              "name": "signature",
              "type": "bytes"
            },
            {
              "internalType": "bool",
              "name": "isIssued",
              "type": "bool"
            },
            {
              "internalType": "bool",
              "name": "isRevoked",
              "type": "bool"
            }
          ],
          "internalType": "struct CertificateNFT.Certificate[]",
          "name": "",
          "type": "tuple[]"
        }
      ],
      "stateMutability": "view",
      "type": "function"
    },
    {
      "inputs": [
        {
          "internalType": "address",
          "name": "student",
          "type": "address"
        },
        {
          "internalType": "address",
          "name": "employer",
          "type": "address"
        }
      ],
      "name": "isCertificateSharedWith",
      "outputs": [
        {
          "internalType": "bool",
          "name": "",
          "type": "bool"
        }
      ],
      "stateMutability": "view",
      "type": "function"
    },
    {
      "inputs": [
        {
          "internalType": "address",
          "name": "recipient",
          "type": "address"
        },
        {
          "internalType": "string",
          "name": "encryptedData",
          "type": "string"
        },
        {
          "internalType": "bytes32",
          "name": "dataHash",
          "type": "bytes32"
        },
        {
          "internalType": "bytes",
          "name": "signature",
          "type": "bytes"
        }
      ],
      "name": "issueCertificate",
      "outputs": [],
      "stateMutability": "nonpayable",
      "type": "function"
    },
    {
      "inputs": [],
      "name": "owner",
      "outputs": [
        {
          "internalType": "address",
          "name": "",
          "type": "address"
        }
      ],
      "stateMutability": "view",
      "type": "function"
    },
    {
      "inputs": [
        {
          "internalType": "uint256",
          "name": "",
          "type": "uint256"
        }
      ],
      "name": "recipients",
      "outputs": [
        {
          "internalType": "address",
          "name": "",
          "type": "address"
        }
      ],
      "stateMutability": "view",
      "type": "function"
    },
    {
      "inputs": [
        {
          "internalType": "address",
          "name": "recipient",
          "type": "address"
        }
      ],
      "name": "revokeCertificate",
      "outputs": [],
      "stateMutability": "nonpayable",
      "type": "function"
    },
    {
      "inputs": [
        {
          "internalType": "address",
          "name": "student",
          "type": "address"
        },
        {
          "internalType": "address",
          "name": "employer",
          "type": "address"
        }
      ],
      "name": "shareCertificate",
      "outputs": [],
      "stateMutability": "nonpayable",
      "type": "function"
    },
    {
      "inputs": [
        {
          "internalType": "address",
          "name": "",
          "type": "address"
        },
        {
          "internalType": "uint256",
          "name": "",
          "type": "uint256"
        }
      ],
      "name": "sharedCertificates",
      "outputs": [
        {
          "internalType": "address",
          "name": "",
          "type": "address"
        }
      ],
      "stateMutability": "view",
      "type": "function"
    },
    {
      "inputs": [
        {
          "internalType": "address",
          "name": "recipient",
          "type": "address"
        },
        {
          "internalType": "string",
          "name": "encryptedData",
          "type": "string"
        },
        {
          "internalType": "bytes32",
          "name": "dataHash",
          "type": "bytes32"
        },
        {
          "internalType": "bytes",
          "name": "signature",
          "type": "bytes"
        }
      ],
      "name": "updateCertificate",
      "outputs": [],
      "stateMutability": "nonpayable",
      "type": "function"
    },
    {
      "inputs": [
        {
          "internalType": "address",
          "name": "recipient",
          "type": "address"
        }
      ],
      "name": "verifyCertificate",
      "outputs": [
        {
          "internalType": "bool",
          "name": "",
          "type": "bool"
        }
      ],
      "stateMutability": "view",
      "type": "function"
    },
    {
      "inputs": [
        {
          "internalType": "address",
          "name": "studentAddress",
          "type": "address"
        }
      ],
      "name": "viewCertificate",
      "outputs": [
        {
          "internalType": "string",
          "name": "encryptedData",
          "type": "string"
        },
        {
          "internalType": "bytes32",
          "name": "dataHash",
          "type": "bytes32"
        },
        {
          "internalType": "bytes",
          "name": "signature",
          "type": "bytes"
        }
      ],
      "stateMutability": "view",
      "type": "function"
    }
  ],
  "bytecode": "0x608060405234801561001057600080fd5b50336000806101000a81548173ffffffffffffffffffffffffffffffffffffffff021916908373ffffffffffffffffffffffffffffffffffffffff160217905550612bfd806100606000396000f3fe608060405234801561001057600080fd5b50600436106100b35760003560e01c80636b9afc90116100715780636b9afc90146101b957806385cea6f6146101e95780638da5cb5b146102055780638dce674a14610223578063cbe26a2a1461023f578063d1bc76a11461025b576100b3565b806216e526146100b857806313fcfe80146100ed5780632e06a88a1461010b5780634581e0d51461013b5780635f893bfa1461016b57806364dbbaa214610187575b600080fd5b6100d260048036038101906100cd919061194a565b61028b565b6040516100e496959493929190611a9f565b60405180910390f35b6100f5610411565b6040516101029190611d21565b60405180910390f35b61012560048036038101906101209190611d43565b6106fb565b6040516101329190611d83565b60405180910390f35b61015560048036038101906101509190611dd4565b610848565b6040516101629190611e14565b60405180910390f35b6101856004803603810190610180919061194a565b610896565b005b6101a1600480360381019061019c919061194a565b610a9e565b6040516101b093929190611e2f565b60405180910390f35b6101d360048036038101906101ce919061194a565b610df0565b6040516101e09190611d83565b60405180910390f35b61020360048036038101906101fe9190611d43565b610fe0565b005b61020d611231565b60405161021a9190611e14565b60405180910390f35b61023d60048036038101906102389190612076565b611255565b005b61025960048036038101906102549190612076565b6114b1565b005b61027560048036038101906102709190612115565b611846565b6040516102829190611e14565b60405180910390f35b60016020528060005260406000206000915090508060000160009054906101000a900473ffffffffffffffffffffffffffffffffffffffff16908060010180546102d490612171565b80601f016020809104026020016040519081016040528092919081815260200182805461030090612171565b801561034d5780601f106103225761010080835404028352916020019161034d565b820191906000526020600020905b81548152906001019060200180831161033057829003601f168201915b50505050509080600201549080600301805461036890612171565b80601f016020809104026020016040519081016040528092919081815260200182805461039490612171565b80156103e15780601f106103b6576101008083540402835291602001916103e1565b820191906000526020600020905b8154815290600101906020018083116103c457829003601f168201915b5050505050908060040160009054906101000a900460ff16908060040160019054906101000a900460ff16905086565b6060600060038054905067ffffffffffffffff81111561043457610433611e7e565b5b60405190808252806020026020018201604052801561046d57816020015b61045a611885565b8152602001906001900390816104525790505b50905060005b6003805490508110156106f3576001600060038381548110610498576104976121a2565b5b9060005260206000200160009054906101000a900473ffffffffffffffffffffffffffffffffffffffff1673ffffffffffffffffffffffffffffffffffffffff1673ffffffffffffffffffffffffffffffffffffffff1681526020019081526020016000206040518060c00160405290816000820160009054906101000a900473ffffffffffffffffffffffffffffffffffffffff1673ffffffffffffffffffffffffffffffffffffffff1673ffffffffffffffffffffffffffffffffffffffff16815260200160018201805461056e90612171565b80601f016020809104026020016040519081016040528092919081815260200182805461059a90612171565b80156105e75780601f106105bc576101008083540402835291602001916105e7565b820191906000526020600020905b8154815290600101906020018083116105ca57829003601f168201915b505050505081526020016002820154815260200160038201805461060a90612171565b80601f016020809104026020016040519081016040528092919081815260200182805461063690612171565b80156106835780601f1061065857610100808354040283529160200191610683565b820191906000526020600020905b81548152906001019060200180831161066657829003601f168201915b505050505081526020016004820160009054906101000a900460ff161515151581526020016004820160019054906101000a900460ff1615151515815250508282815181106106d5576106d46121a2565b5b602002602001018190525080806106eb90612200565b915050610473565b508091505090565b600080600260008573ffffffffffffffffffffffffffffffffffffffff1673ffffffffffffffffffffffffffffffffffffffff1681526020019081526020016000208054806020026020016040519081016040528092919081815260200182805480156107bd57602002820191906000526020600020905b8160009054906101000a900473ffffffffffffffffffffffffffffffffffffffff1673ffffffffffffffffffffffffffffffffffffffff1681526020019060010190808311610773575b5050505050905060005b815181101561083b578373ffffffffffffffffffffffffffffffffffffffff168282815181106107fa576107f96121a2565b5b602002602001015173ffffffffffffffffffffffffffffffffffffffff160361082857600192505050610842565b808061083390612200565b9150506107c7565b5060009150505b92915050565b6002602052816000526040600020818154811061086457600080fd5b906000526020600020016000915091509054906101000a900473ffffffffffffffffffffffffffffffffffffffff1681565b60008054906101000a900473ffffffffffffffffffffffffffffffffffffffff1673ffffffffffffffffffffffffffffffffffffffff163373ffffffffffffffffffffffffffffffffffffffff1614610924576040517f08c379a000000000000000000000000000000000000000000000000000000000815260040161091b906122ba565b60405180910390fd5b60008054906101000a900473ffffffffffffffffffffffffffffffffffffffff1673ffffffffffffffffffffffffffffffffffffffff163373ffffffffffffffffffffffffffffffffffffffff16146109b2576040517f08c379a00000000000000000000000000000000000000000000000000000000081526004016109a99061234c565b60405180910390fd5b600160008273ffffffffffffffffffffffffffffffffffffffff1673ffffffffffffffffffffffffffffffffffffffff16815260200190815260200160002060040160009054906101000a900460ff16610a41576040517f08c379a0000000000000000000000000000000000000000000000000000000008152600401610a38906123de565b60405180910390fd5b60018060008373ffffffffffffffffffffffffffffffffffffffff1673ffffffffffffffffffffffffffffffffffffffff16815260200190815260200160002060040160016101000a81548160ff02191690831515021790555050565b6060600060608373ffffffffffffffffffffffffffffffffffffffff16600160008673ffffffffffffffffffffffffffffffffffffffff1673ffffffffffffffffffffffffffffffffffffffff16815260200190815260200160002060000160009054906101000a900473ffffffffffffffffffffffffffffffffffffffff1673ffffffffffffffffffffffffffffffffffffffff1614610b74576040517f08c379a0000000000000000000000000000000000000000000000000000000008152600401610b6b90612470565b60405180910390fd5b600160008573ffffffffffffffffffffffffffffffffffffffff1673ffffffffffffffffffffffffffffffffffffffff16815260200190815260200160002060040160019054906101000a900460ff1615610c04576040517f08c379a0000000000000000000000000000000000000000000000000000000008152600401610bfb90612502565b60405180910390fd5b600160008573ffffffffffffffffffffffffffffffffffffffff1673ffffffffffffffffffffffffffffffffffffffff168152602001908152602001600020600101600160008673ffffffffffffffffffffffffffffffffffffffff1673ffffffffffffffffffffffffffffffffffffffff16815260200190815260200160002060020154600160008773ffffffffffffffffffffffffffffffffffffffff1673ffffffffffffffffffffffffffffffffffffffff168152602001908152602001600020600301828054610cd790612171565b80601f0160208091040260200160405190810160405280929190818152602001828054610d0390612171565b8015610d505780601f10610d2557610100808354040283529160200191610d50565b820191906000526020600020905b815481529060010190602001808311610d3357829003601f168201915b50505050509250808054610d6390612171565b80601f0160208091040260200160405190810160405280929190818152602001828054610d8f90612171565b8015610ddc5780601f10610db157610100808354040283529160200191610ddc565b820191906000526020600020905b815481529060010190602001808311610dbf57829003601f168201915b505050505090509250925092509193909250565b60008073ffffffffffffffffffffffffffffffffffffffff168273ffffffffffffffffffffffffffffffffffffffff1603610e60576040517f08c379a0000000000000000000000000000000000000000000000000000000008152600401610e579061256e565b60405180910390fd5b8173ffffffffffffffffffffffffffffffffffffffff16600160008473ffffffffffffffffffffffffffffffffffffffff1673ffffffffffffffffffffffffffffffffffffffff16815260200190815260200160002060000160009054906101000a900473ffffffffffffffffffffffffffffffffffffffff1673ffffffffffffffffffffffffffffffffffffffff1614610f30576040517f08c379a0000000000000000000000000000000000000000000000000000000008152600401610f2790612600565b60405180910390fd5b600160008373ffffffffffffffffffffffffffffffffffffffff1673ffffffffffffffffffffffffffffffffffffffff16815260200190815260200160002060040160009054906101000a900460ff168015610fd95750600160008373ffffffffffffffffffffffffffffffffffffffff1673ffffffffffffffffffffffffffffffffffffffff16815260200190815260200160002060040160019054906101000a900460ff16155b9050919050565b60008054906101000a900473ffffffffffffffffffffffffffffffffffffffff1673ffffffffffffffffffffffffffffffffffffffff163373ffffffffffffffffffffffffffffffffffffffff161461106e576040517f08c379a0000000000000000000000000000000000000000000000000000000008152600401611065906122ba565b60405180910390fd5b600160008373ffffffffffffffffffffffffffffffffffffffff1673ffffffffffffffffffffffffffffffffffffffff16815260200190815260200160002060040160009054906101000a900460ff166110fd576040517f08c379a00000000000000000000000000000000000000000000000000000000081526004016110f49061266c565b60405180910390fd5b600160008373ffffffffffffffffffffffffffffffffffffffff1673ffffffffffffffffffffffffffffffffffffffff16815260200190815260200160002060040160019054906101000a900460ff161561118d576040517f08c379a0000000000000000000000000000000000000000000000000000000008152600401611184906126d8565b60405180910390fd5b600260008373ffffffffffffffffffffffffffffffffffffffff1673ffffffffffffffffffffffffffffffffffffffff168152602001908152602001600020819080600181540180825580915050600190039060005260206000200160009091909190916101000a81548173ffffffffffffffffffffffffffffffffffffffff021916908373ffffffffffffffffffffffffffffffffffffffff1602179055505050565b60008054906101000a900473ffffffffffffffffffffffffffffffffffffffff1681565b60008054906101000a900473ffffffffffffffffffffffffffffffffffffffff1673ffffffffffffffffffffffffffffffffffffffff163373ffffffffffffffffffffffffffffffffffffffff16146112e3576040517f08c379a00000000000000000000000000000000000000000000000000000000081526004016112da906122ba565b60405180910390fd5b600073ffffffffffffffffffffffffffffffffffffffff168473ffffffffffffffffffffffffffffffffffffffff1603611352576040517f08c379a00000000000000000000000000000000000000000000000000000000081526004016113499061256e565b60405180910390fd5b600160008573ffffffffffffffffffffffffffffffffffffffff1673ffffffffffffffffffffffffffffffffffffffff16815260200190815260200160002060040160009054906101000a900460ff1680156113fb5750600160008573ffffffffffffffffffffffffffffffffffffffff1673ffffffffffffffffffffffffffffffffffffffff16815260200190815260200160002060040160019054906101000a900460ff16155b61143a576040517f08c379a00000000000000000000000000000000000000000000000000000000081526004016114319061276a565b60405180910390fd5b6000600160008673ffffffffffffffffffffffffffffffffffffffff1673ffffffffffffffffffffffffffffffffffffffff16815260200190815260200160002090508381600101908161148e9190612936565b50828160020181905550818160030190816114a99190612a63565b505050505050565b60008054906101000a900473ffffffffffffffffffffffffffffffffffffffff1673ffffffffffffffffffffffffffffffffffffffff163373ffffffffffffffffffffffffffffffffffffffff161461153f576040517f08c379a0000000000000000000000000000000000000000000000000000000008152600401611536906122ba565b60405180910390fd5b600073ffffffffffffffffffffffffffffffffffffffff168473ffffffffffffffffffffffffffffffffffffffff16036115ae576040517f08c379a00000000000000000000000000000000000000000000000000000000081526004016115a59061256e565b60405180910390fd5b6003849080600181540180825580915050600190039060005260206000200160009091909190916101000a81548173ffffffffffffffffffffffffffffffffffffffff021916908373ffffffffffffffffffffffffffffffffffffffff160217905550600160008573ffffffffffffffffffffffffffffffffffffffff1673ffffffffffffffffffffffffffffffffffffffff16815260200190815260200160002060040160009054906101000a900460ff1615806116b95750600160008573ffffffffffffffffffffffffffffffffffffffff1673ffffffffffffffffffffffffffffffffffffffff16815260200190815260200160002060040160019054906101000a900460ff165b6116f8576040517f08c379a00000000000000000000000000000000000000000000000000000000081526004016116ef90612ba7565b60405180910390fd5b6040518060c001604052808573ffffffffffffffffffffffffffffffffffffffff16815260200184815260200183815260200182815260200160011515815260200160001515815250600160008673ffffffffffffffffffffffffffffffffffffffff1673ffffffffffffffffffffffffffffffffffffffff16815260200190815260200160002060008201518160000160006101000a81548173ffffffffffffffffffffffffffffffffffffffff021916908373ffffffffffffffffffffffffffffffffffffffff16021790555060208201518160010190816117dc9190612936565b506040820151816002015560608201518160030190816117fc9190612a63565b5060808201518160040160006101000a81548160ff02191690831515021790555060a08201518160040160016101000a81548160ff02191690831515021790555090505050505050565b6003818154811061185657600080fd5b906000526020600020016000915054906101000a900473ffffffffffffffffffffffffffffffffffffffff1681565b6040518060c00160405280600073ffffffffffffffffffffffffffffffffffffffff1681526020016060815260200160008019168152602001606081526020016000151581526020016000151581525090565b6000604051905090565b600080fd5b600080fd5b600073ffffffffffffffffffffffffffffffffffffffff82169050919050565b6000611917826118ec565b9050919050565b6119278161190c565b811461193257600080fd5b50565b6000813590506119448161191e565b92915050565b6000602082840312156119605761195f6118e2565b5b600061196e84828501611935565b91505092915050565b6119808161190c565b82525050565b600081519050919050565b600082825260208201905092915050565b60005b838110156119c05780820151818401526020810190506119a5565b60008484015250505050565b6000601f19601f8301169050919050565b60006119e882611986565b6119f28185611991565b9350611a028185602086016119a2565b611a0b816119cc565b840191505092915050565b6000819050919050565b611a2981611a16565b82525050565b600081519050919050565b600082825260208201905092915050565b6000611a5682611a2f565b611a608185611a3a565b9350611a708185602086016119a2565b611a79816119cc565b840191505092915050565b60008115159050919050565b611a9981611a84565b82525050565b600060c082019050611ab46000830189611977565b8181036020830152611ac681886119dd565b9050611ad56040830187611a20565b8181036060830152611ae78186611a4b565b9050611af66080830185611a90565b611b0360a0830184611a90565b979650505050505050565b600081519050919050565b600082825260208201905092915050565b6000819050602082019050919050565b611b438161190c565b82525050565b600082825260208201905092915050565b6000611b6582611986565b611b6f8185611b49565b9350611b7f8185602086016119a2565b611b88816119cc565b840191505092915050565b611b9c81611a16565b82525050565b600082825260208201905092915050565b6000611bbe82611a2f565b611bc88185611ba2565b9350611bd88185602086016119a2565b611be1816119cc565b840191505092915050565b611bf581611a84565b82525050565b600060c083016000830151611c136000860182611b3a565b5060208301518482036020860152611c2b8282611b5a565b9150506040830151611c406040860182611b93565b5060608301518482036060860152611c588282611bb3565b9150506080830151611c6d6080860182611bec565b5060a0830151611c8060a0860182611bec565b508091505092915050565b6000611c978383611bfb565b905092915050565b6000602082019050919050565b6000611cb782611b0e565b611cc18185611b19565b935083602082028501611cd385611b2a565b8060005b85811015611d0f5784840389528151611cf08582611c8b565b9450611cfb83611c9f565b925060208a01995050600181019050611cd7565b50829750879550505050505092915050565b60006020820190508181036000830152611d3b8184611cac565b905092915050565b60008060408385031215611d5a57611d596118e2565b5b6000611d6885828601611935565b9250506020611d7985828601611935565b9150509250929050565b6000602082019050611d986000830184611a90565b92915050565b6000819050919050565b611db181611d9e565b8114611dbc57600080fd5b50565b600081359050611dce81611da8565b92915050565b60008060408385031215611deb57611dea6118e2565b5b6000611df985828601611935565b9250506020611e0a85828601611dbf565b9150509250929050565b6000602082019050611e296000830184611977565b92915050565b60006060820190508181036000830152611e4981866119dd565b9050611e586020830185611a20565b8181036040830152611e6a8184611a4b565b9050949350505050565b600080fd5b600080fd5b7f4e487b7100000000000000000000000000000000000000000000000000000000600052604160045260246000fd5b611eb6826119cc565b810181811067ffffffffffffffff82111715611ed557611ed4611e7e565b5b80604052505050565b6000611ee86118d8565b9050611ef48282611ead565b919050565b600067ffffffffffffffff821115611f1457611f13611e7e565b5b611f1d826119cc565b9050602081019050919050565b82818337600083830152505050565b6000611f4c611f4784611ef9565b611ede565b905082815260208101848484011115611f6857611f67611e79565b5b611f73848285611f2a565b509392505050565b600082601f830112611f9057611f8f611e74565b5b8135611fa0848260208601611f39565b91505092915050565b611fb281611a16565b8114611fbd57600080fd5b50565b600081359050611fcf81611fa9565b92915050565b600067ffffffffffffffff821115611ff057611fef611e7e565b5b611ff9826119cc565b9050602081019050919050565b600061201961201484611fd5565b611ede565b90508281526020810184848401111561203557612034611e79565b5b612040848285611f2a565b509392505050565b600082601f83011261205d5761205c611e74565b5b813561206d848260208601612006565b91505092915050565b600080600080608085870312156120905761208f6118e2565b5b600061209e87828801611935565b945050602085013567ffffffffffffffff8111156120bf576120be6118e7565b5b6120cb87828801611f7b565b93505060406120dc87828801611fc0565b925050606085013567ffffffffffffffff8111156120fd576120fc6118e7565b5b61210987828801612048565b91505092959194509250565b60006020828403121561212b5761212a6118e2565b5b600061213984828501611dbf565b91505092915050565b7f4e487b7100000000000000000000000000000000000000000000000000000000600052602260045260246000fd5b6000600282049050600182168061218957607f821691505b60208210810361219c5761219b612142565b5b50919050565b7f4e487b7100000000000000000000000000000000000000000000000000000000600052603260045260246000fd5b7f4e487b7100000000000000000000000000000000000000000000000000000000600052601160045260246000fd5b600061220b82611d9e565b91507fffffffffffffffffffffffffffffffffffffffffffffffffffffffffffffffff820361223d5761223c6121d1565b5b600182019050919050565b7f4f6e6c792074686520556e69766572736974792063616e2063616c6c2074686960008201527f732066756e6374696f6e00000000000000000000000000000000000000000000602082015250565b60006122a4602a83611991565b91506122af82612248565b604082019050919050565b600060208201905081810360008301526122d381612297565b9050919050565b7f4f6e6c792074686520556e69766572736974792063616e207265766f6b65206360008201527f6572746966696361746573000000000000000000000000000000000000000000602082015250565b6000612336602b83611991565b9150612341826122da565b604082019050919050565b6000602082019050818103600083015261236581612329565b9050919050565b7f4365727469666963617465206e6f7420697373756564206f7220616c7265616460008201527f79207265766f6b65640000000000000000000000000000000000000000000000602082015250565b60006123c8602983611991565b91506123d38261236c565b604082019050919050565b600060208201905081810360008301526123f7816123bb565b9050919050565b7f4e6f20636572746966696361746520666f756e6420666f72207468697320737460008201527f7564656e74000000000000000000000000000000000000000000000000000000602082015250565b600061245a602583611991565b9150612465826123fe565b604082019050919050565b600060208201905081810360008301526124898161244d565b9050919050565b7f5468697320636572746966696361746520686173206265656e207265766f6b6560008201527f6400000000000000000000000000000000000000000000000000000000000000602082015250565b60006124ec602183611991565b91506124f782612490565b604082019050919050565b6000602082019050818103600083015261251b816124df565b9050919050565b7f496e76616c696420726563697069656e74206164647265737300000000000000600082015250565b6000612558601983611991565b915061256382612522565b602082019050919050565b600060208201905081810360008301526125878161254b565b9050919050565b7f4e6f20636572746966696361746520666f756e6420666f72207468697320726560008201527f63697069656e7400000000000000000000000000000000000000000000000000602082015250565b60006125ea602783611991565b91506125f58261258e565b604082019050919050565b60006020820190508181036000830152612619816125dd565b9050919050565b7f4365727469666963617465206e6f742069737375656400000000000000000000600082015250565b6000612656601683611991565b915061266182612620565b602082019050919050565b6000602082019050818103600083015261268581612649565b9050919050565b7f4365727469666963617465206973207265766f6b656400000000000000000000600082015250565b60006126c2601683611991565b91506126cd8261268c565b602082019050919050565b600060208201905081810360008301526126f1816126b5565b9050919050565b7f4365727469666963617465206e6f7420697373756564206f7220616c7265616460008201527f79207265766f6b656420666f72207468697320726563697069656e7400000000602082015250565b6000612754603c83611991565b915061275f826126f8565b604082019050919050565b6000602082019050818103600083015261278381612747565b9050919050565b60008190508160005260206000209050919050565b60006020601f8301049050919050565b600082821b905092915050565b6000600883026127ec7fffffffffffffffffffffffffffffffffffffffffffffffffffffffffffffffff826127af565b6127f686836127af565b95508019841693508086168417925050509392505050565b6000819050919050565b600061283361282e61282984611d9e565b61280e565b611d9e565b9050919050565b6000819050919050565b61284d83612818565b6128616128598261283a565b8484546127bc565b825550505050565b600090565b612876612869565b612881818484612844565b505050565b5b818110156128a55761289a60008261286e565b600181019050612887565b5050565b601f8211156128ea576128bb8161278a565b6128c48461279f565b810160208510156128d3578190505b6128e76128df8561279f565b830182612886565b50505b505050565b600082821c905092915050565b600061290d600019846008026128ef565b1980831691505092915050565b600061292683836128fc565b9150826002028217905092915050565b61293f82611986565b67ffffffffffffffff81111561295857612957611e7e565b5b6129628254612171565b61296d8282856128a9565b600060209050601f8311600181146129a0576000841561298e578287015190505b612998858261291a565b865550612a00565b601f1984166129ae8661278a565b60005b828110156129d6578489015182556001820191506020850194506020810190506129b1565b868310156129f357848901516129ef601f8916826128fc565b8355505b6001600288020188555050505b505050505050565b60008190508160005260206000209050919050565b601f821115612a5e57612a2f81612a08565b612a388461279f565b81016020851015612a47578190505b612a5b612a538561279f565b830182612886565b50505b505050565b612a6c82611a2f565b67ffffffffffffffff811115612a8557612a84611e7e565b5b612a8f8254612171565b612a9a828285612a1d565b600060209050601f831160018114612acd5760008415612abb578287015190505b612ac5858261291a565b865550612b2d565b601f198416612adb86612a08565b60005b82811015612b0357848901518255600182019150602085019450602081019050612ade565b86831015612b205784890151612b1c601f8916826128fc565b8355505b6001600288020188555050505b505050505050565b7f436572746966696361746520616c726561647920697373756564206f7220726560008201527f766f6b656420666f72207468697320726563697069656e740000000000000000602082015250565b6000612b91603883611991565b9150612b9c82612b35565b604082019050919050565b60006020820190508181036000830152612bc081612b84565b905091905056fea26469706673582212205daa928d95d6517de64ec7a32dcb5a39786219641967b1c531c6157041cb73f364736f6c63430008130033",
  "linkReferences": {},
  "deployedLinkReferences": {}
}