{
  "_format": "hh-sol-artifact-1",
  "contractName": "CertificateNFT",
  "sourceName": "contracts/CertificateNFT.sol",
  "abi": [
    {
      "inputs": [],
      "stateMutability": "nonpayable",
      "type": "constructor"
    },
    {
      "inputs": [
        {
          "internalType": "address",
          "name": "",
          "type": "address"
        }
      ],
      "name": "certificates",
      "outputs": [
        {
          "internalType": "address",
          "name": "recipient",
          "type": "address"
        },
        {
          "internalType": "string",
          "name": "encryptedData",
          "type": "string"
        },
        {
          "internalType": "bytes32",
          "name": "dataHash",
          "type": "bytes32"
        },
        {
          "internalType": "bytes",
          "name": "signature",
          "type": "bytes"
        },
        {
          "internalType": "bool",
          "name": "isIssued",
          "type": "bool"
        },
        {
          "internalType": "bool",
          "name": "isRevoked",
          "type": "bool"
        }
      ],
      "stateMutability": "view",
      "type": "function"
    },
    {
      "inputs": [],
      "name": "getAllCertificates",
      "outputs": [
        {
          "components": [
            {
              "internalType": "address",
              "name": "recipient",
              "type": "address"
            },
            {
              "internalType": "string",
              "name": "encryptedData",
              "type": "string"
            },
            {
              "internalType": "bytes32",
              "name": "dataHash",
              "type": "bytes32"
            },
            {
              "internalType": "bytes",
              "name": "signature",
              "type": "bytes"
            },
            {
              "internalType": "bool",
              "name": "isIssued",
              "type": "bool"
            },
            {
              "internalType": "bool",
              "name": "isRevoked",
              "type": "bool"
            }
          ],
          "internalType": "struct CertificateNFT.Certificate[]",
          "name": "",
          "type": "tuple[]"
        }
      ],
      "stateMutability": "view",
      "type": "function"
    },
    {
      "inputs": [
        {
          "internalType": "address",
          "name": "student",
          "type": "address"
        },
        {
          "internalType": "address",
          "name": "employer",
          "type": "address"
        }
      ],
      "name": "isCertificateSharedWith",
      "outputs": [
        {
          "internalType": "bool",
          "name": "",
          "type": "bool"
        }
      ],
      "stateMutability": "view",
      "type": "function"
    },
    {
      "inputs": [
        {
          "internalType": "address",
          "name": "recipient",
          "type": "address"
        },
        {
          "internalType": "string",
          "name": "encryptedData",
          "type": "string"
        },
        {
          "internalType": "bytes32",
          "name": "dataHash",
          "type": "bytes32"
        },
        {
          "internalType": "bytes",
          "name": "signature",
          "type": "bytes"
        }
      ],
      "name": "issueCertificate",
      "outputs": [],
      "stateMutability": "nonpayable",
      "type": "function"
    },
    {
      "inputs": [],
      "name": "owner",
      "outputs": [
        {
          "internalType": "address",
          "name": "",
          "type": "address"
        }
      ],
      "stateMutability": "view",
      "type": "function"
    },
    {
      "inputs": [
        {
          "internalType": "uint256",
          "name": "",
          "type": "uint256"
        }
      ],
      "name": "recipients",
      "outputs": [
        {
          "internalType": "address",
          "name": "",
          "type": "address"
        }
      ],
      "stateMutability": "view",
      "type": "function"
    },
    {
      "inputs": [
        {
          "internalType": "address",
          "name": "recipient",
          "type": "address"
        }
      ],
      "name": "revokeCertificate",
      "outputs": [],
      "stateMutability": "nonpayable",
      "type": "function"
    },
    {
      "inputs": [
        {
          "internalType": "address",
          "name": "student",
          "type": "address"
        },
        {
          "internalType": "address",
          "name": "employer",
          "type": "address"
        }
      ],
      "name": "shareCertificate",
      "outputs": [],
      "stateMutability": "nonpayable",
      "type": "function"
    },
    {
      "inputs": [
        {
          "internalType": "address",
          "name": "",
          "type": "address"
        },
        {
          "internalType": "uint256",
          "name": "",
          "type": "uint256"
        }
      ],
      "name": "sharedCertificates",
      "outputs": [
        {
          "internalType": "address",
          "name": "",
          "type": "address"
        }
      ],
      "stateMutability": "view",
      "type": "function"
    },
    {
      "inputs": [
        {
          "internalType": "address",
          "name": "student",
          "type": "address"
        },
        {
          "internalType": "address",
          "name": "employer",
          "type": "address"
        }
      ],
      "name": "unshareCertificate",
      "outputs": [],
      "stateMutability": "nonpayable",
      "type": "function"
    },
    {
      "inputs": [
        {
          "internalType": "address",
          "name": "recipient",
          "type": "address"
        },
        {
          "internalType": "string",
          "name": "encryptedData",
          "type": "string"
        },
        {
          "internalType": "bytes32",
          "name": "dataHash",
          "type": "bytes32"
        },
        {
          "internalType": "bytes",
          "name": "signature",
          "type": "bytes"
        }
      ],
      "name": "updateCertificate",
      "outputs": [],
      "stateMutability": "nonpayable",
      "type": "function"
    },
    {
      "inputs": [
        {
          "internalType": "address",
          "name": "recipient",
          "type": "address"
        }
      ],
      "name": "verifyCertificate",
      "outputs": [
        {
          "internalType": "bool",
          "name": "",
          "type": "bool"
        }
      ],
      "stateMutability": "view",
      "type": "function"
    },
    {
      "inputs": [
        {
          "internalType": "address",
          "name": "studentAddress",
          "type": "address"
        }
      ],
      "name": "viewCertificate",
      "outputs": [
        {
          "internalType": "string",
          "name": "encryptedData",
          "type": "string"
        },
        {
          "internalType": "bytes32",
          "name": "dataHash",
          "type": "bytes32"
        },
        {
          "internalType": "bytes",
          "name": "signature",
          "type": "bytes"
        }
      ],
      "stateMutability": "view",
      "type": "function"
    }
  ],
  "bytecode": "0x608060405234801561001057600080fd5b50336000806101000a81548173ffffffffffffffffffffffffffffffffffffffff021916908373ffffffffffffffffffffffffffffffffffffffff160217905550613053806100606000396000f3fe608060405234801561001057600080fd5b50600436106100ce5760003560e01c80636b9afc901161008c5780638da5cb5b116100665780638da5cb5b1461023c5780638dce674a1461025a578063cbe26a2a14610276578063d1bc76a114610292576100ce565b80636b9afc90146101d4578063753cd2081461020457806385cea6f614610220576100ce565b806216e526146100d357806313fcfe80146101085780632e06a88a146101265780634581e0d5146101565780635f893bfa1461018657806364dbbaa2146101a2575b600080fd5b6100ed60048036038101906100e89190611cab565b6102c2565b6040516100ff96959493929190611e00565b60405180910390f35b610110610448565b60405161011d9190612082565b60405180910390f35b610140600480360381019061013b91906120a4565b610732565b60405161014d91906120e4565b60405180910390f35b610170600480360381019061016b9190612135565b61087f565b60405161017d9190612175565b60405180910390f35b6101a0600480360381019061019b9190611cab565b6108cd565b005b6101bc60048036038101906101b79190611cab565b610ad5565b6040516101cb93929190612190565b60405180910390f35b6101ee60048036038101906101e99190611cab565b610e27565b6040516101fb91906120e4565b60405180910390f35b61021e600480360381019061021991906120a4565b611017565b005b61023a600480360381019061023591906120a4565b6113cf565b005b610244611620565b6040516102519190612175565b60405180910390f35b610274600480360381019061026f91906123d7565b611644565b005b610290600480360381019061028b91906123d7565b611812565b005b6102ac60048036038101906102a79190612476565b611ba7565b6040516102b99190612175565b60405180910390f35b60016020528060005260406000206000915090508060000160009054906101000a900473ffffffffffffffffffffffffffffffffffffffff169080600101805461030b906124d2565b80601f0160208091040260200160405190810160405280929190818152602001828054610337906124d2565b80156103845780601f1061035957610100808354040283529160200191610384565b820191906000526020600020905b81548152906001019060200180831161036757829003601f168201915b50505050509080600201549080600301805461039f906124d2565b80601f01602080910402602001604051908101604052809291908181526020018280546103cb906124d2565b80156104185780601f106103ed57610100808354040283529160200191610418565b820191906000526020600020905b8154815290600101906020018083116103fb57829003601f168201915b5050505050908060040160009054906101000a900460ff16908060040160019054906101000a900460ff16905086565b6060600060038054905067ffffffffffffffff81111561046b5761046a6121df565b5b6040519080825280602002602001820160405280156104a457816020015b610491611be6565b8152602001906001900390816104895790505b50905060005b60038054905081101561072a5760016000600383815481106104cf576104ce612503565b5b9060005260206000200160009054906101000a900473ffffffffffffffffffffffffffffffffffffffff1673ffffffffffffffffffffffffffffffffffffffff1673ffffffffffffffffffffffffffffffffffffffff1681526020019081526020016000206040518060c00160405290816000820160009054906101000a900473ffffffffffffffffffffffffffffffffffffffff1673ffffffffffffffffffffffffffffffffffffffff1673ffffffffffffffffffffffffffffffffffffffff1681526020016001820180546105a5906124d2565b80601f01602080910402602001604051908101604052809291908181526020018280546105d1906124d2565b801561061e5780601f106105f35761010080835404028352916020019161061e565b820191906000526020600020905b81548152906001019060200180831161060157829003601f168201915b5050505050815260200160028201548152602001600382018054610641906124d2565b80601f016020809104026020016040519081016040528092919081815260200182805461066d906124d2565b80156106ba5780601f1061068f576101008083540402835291602001916106ba565b820191906000526020600020905b81548152906001019060200180831161069d57829003601f168201915b505050505081526020016004820160009054906101000a900460ff161515151581526020016004820160019054906101000a900460ff16151515158152505082828151811061070c5761070b612503565b5b6020026020010181905250808061072290612561565b9150506104aa565b508091505090565b600080600260008573ffffffffffffffffffffffffffffffffffffffff1673ffffffffffffffffffffffffffffffffffffffff1681526020019081526020016000208054806020026020016040519081016040528092919081815260200182805480156107f457602002820191906000526020600020905b8160009054906101000a900473ffffffffffffffffffffffffffffffffffffffff1673ffffffffffffffffffffffffffffffffffffffff16815260200190600101908083116107aa575b5050505050905060005b8151811015610872578373ffffffffffffffffffffffffffffffffffffffff1682828151811061083157610830612503565b5b602002602001015173ffffffffffffffffffffffffffffffffffffffff160361085f57600192505050610879565b808061086a90612561565b9150506107fe565b5060009150505b92915050565b6002602052816000526040600020818154811061089b57600080fd5b906000526020600020016000915091509054906101000a900473ffffffffffffffffffffffffffffffffffffffff1681565b60008054906101000a900473ffffffffffffffffffffffffffffffffffffffff1673ffffffffffffffffffffffffffffffffffffffff163373ffffffffffffffffffffffffffffffffffffffff161461095b576040517f08c379a00000000000000000000000000000000000000000000000000000000081526004016109529061261b565b60405180910390fd5b60008054906101000a900473ffffffffffffffffffffffffffffffffffffffff1673ffffffffffffffffffffffffffffffffffffffff163373ffffffffffffffffffffffffffffffffffffffff16146109e9576040517f08c379a00000000000000000000000000000000000000000000000000000000081526004016109e0906126ad565b60405180910390fd5b600160008273ffffffffffffffffffffffffffffffffffffffff1673ffffffffffffffffffffffffffffffffffffffff16815260200190815260200160002060040160009054906101000a900460ff16610a78576040517f08c379a0000000000000000000000000000000000000000000000000000000008152600401610a6f9061273f565b60405180910390fd5b60018060008373ffffffffffffffffffffffffffffffffffffffff1673ffffffffffffffffffffffffffffffffffffffff16815260200190815260200160002060040160016101000a81548160ff02191690831515021790555050565b6060600060608373ffffffffffffffffffffffffffffffffffffffff16600160008673ffffffffffffffffffffffffffffffffffffffff1673ffffffffffffffffffffffffffffffffffffffff16815260200190815260200160002060000160009054906101000a900473ffffffffffffffffffffffffffffffffffffffff1673ffffffffffffffffffffffffffffffffffffffff1614610bab576040517f08c379a0000000000000000000000000000000000000000000000000000000008152600401610ba2906127d1565b60405180910390fd5b600160008573ffffffffffffffffffffffffffffffffffffffff1673ffffffffffffffffffffffffffffffffffffffff16815260200190815260200160002060040160019054906101000a900460ff1615610c3b576040517f08c379a0000000000000000000000000000000000000000000000000000000008152600401610c3290612863565b60405180910390fd5b600160008573ffffffffffffffffffffffffffffffffffffffff1673ffffffffffffffffffffffffffffffffffffffff168152602001908152602001600020600101600160008673ffffffffffffffffffffffffffffffffffffffff1673ffffffffffffffffffffffffffffffffffffffff16815260200190815260200160002060020154600160008773ffffffffffffffffffffffffffffffffffffffff1673ffffffffffffffffffffffffffffffffffffffff168152602001908152602001600020600301828054610d0e906124d2565b80601f0160208091040260200160405190810160405280929190818152602001828054610d3a906124d2565b8015610d875780601f10610d5c57610100808354040283529160200191610d87565b820191906000526020600020905b815481529060010190602001808311610d6a57829003601f168201915b50505050509250808054610d9a906124d2565b80601f0160208091040260200160405190810160405280929190818152602001828054610dc6906124d2565b8015610e135780601f10610de857610100808354040283529160200191610e13565b820191906000526020600020905b815481529060010190602001808311610df657829003601f168201915b505050505090509250925092509193909250565b60008073ffffffffffffffffffffffffffffffffffffffff168273ffffffffffffffffffffffffffffffffffffffff1603610e97576040517f08c379a0000000000000000000000000000000000000000000000000000000008152600401610e8e906128cf565b60405180910390fd5b8173ffffffffffffffffffffffffffffffffffffffff16600160008473ffffffffffffffffffffffffffffffffffffffff1673ffffffffffffffffffffffffffffffffffffffff16815260200190815260200160002060000160009054906101000a900473ffffffffffffffffffffffffffffffffffffffff1673ffffffffffffffffffffffffffffffffffffffff1614610f67576040517f08c379a0000000000000000000000000000000000000000000000000000000008152600401610f5e90612961565b60405180910390fd5b600160008373ffffffffffffffffffffffffffffffffffffffff1673ffffffffffffffffffffffffffffffffffffffff16815260200190815260200160002060040160009054906101000a900460ff1680156110105750600160008373ffffffffffffffffffffffffffffffffffffffff1673ffffffffffffffffffffffffffffffffffffffff16815260200190815260200160002060040160019054906101000a900460ff16155b9050919050565b60008054906101000a900473ffffffffffffffffffffffffffffffffffffffff1673ffffffffffffffffffffffffffffffffffffffff163373ffffffffffffffffffffffffffffffffffffffff16146110a5576040517f08c379a000000000000000000000000000000000000000000000000000000000815260040161109c9061261b565b60405180910390fd5b600160008373ffffffffffffffffffffffffffffffffffffffff1673ffffffffffffffffffffffffffffffffffffffff16815260200190815260200160002060040160009054906101000a900460ff16611134576040517f08c379a000000000000000000000000000000000000000000000000000000000815260040161112b906129cd565b60405180910390fd5b600160008373ffffffffffffffffffffffffffffffffffffffff1673ffffffffffffffffffffffffffffffffffffffff16815260200190815260200160002060040160019054906101000a900460ff16156111c4576040517f08c379a00000000000000000000000000000000000000000000000000000000081526004016111bb90612a39565b60405180910390fd5b6000600260008473ffffffffffffffffffffffffffffffffffffffff1673ffffffffffffffffffffffffffffffffffffffff168152602001908152602001600020905060005b818054905081101561138f578273ffffffffffffffffffffffffffffffffffffffff168282815481106112405761123f612503565b5b9060005260206000200160009054906101000a900473ffffffffffffffffffffffffffffffffffffffff1673ffffffffffffffffffffffffffffffffffffffff160361137c5781600183805490506112989190612a59565b815481106112a9576112a8612503565b5b9060005260206000200160009054906101000a900473ffffffffffffffffffffffffffffffffffffffff168282815481106112e7576112e6612503565b5b9060005260206000200160006101000a81548173ffffffffffffffffffffffffffffffffffffffff021916908373ffffffffffffffffffffffffffffffffffffffff160217905550818054806113405761133f612a8d565b5b6001900381819060005260206000200160006101000a81549073ffffffffffffffffffffffffffffffffffffffff0219169055905550506113cb565b808061138790612561565b91505061120a565b506040517f08c379a00000000000000000000000000000000000000000000000000000000081526004016113c290612b2e565b60405180910390fd5b5050565b60008054906101000a900473ffffffffffffffffffffffffffffffffffffffff1673ffffffffffffffffffffffffffffffffffffffff163373ffffffffffffffffffffffffffffffffffffffff161461145d576040517f08c379a00000000000000000000000000000000000000000000000000000000081526004016114549061261b565b60405180910390fd5b600160008373ffffffffffffffffffffffffffffffffffffffff1673ffffffffffffffffffffffffffffffffffffffff16815260200190815260200160002060040160009054906101000a900460ff166114ec576040517f08c379a00000000000000000000000000000000000000000000000000000000081526004016114e3906129cd565b60405180910390fd5b600160008373ffffffffffffffffffffffffffffffffffffffff1673ffffffffffffffffffffffffffffffffffffffff16815260200190815260200160002060040160019054906101000a900460ff161561157c576040517f08c379a000000000000000000000000000000000000000000000000000000000815260040161157390612a39565b60405180910390fd5b600260008373ffffffffffffffffffffffffffffffffffffffff1673ffffffffffffffffffffffffffffffffffffffff168152602001908152602001600020819080600181540180825580915050600190039060005260206000200160009091909190916101000a81548173ffffffffffffffffffffffffffffffffffffffff021916908373ffffffffffffffffffffffffffffffffffffffff1602179055505050565b60008054906101000a900473ffffffffffffffffffffffffffffffffffffffff1681565b600073ffffffffffffffffffffffffffffffffffffffff168473ffffffffffffffffffffffffffffffffffffffff16036116b3576040517f08c379a00000000000000000000000000000000000000000000000000000000081526004016116aa906128cf565b60405180910390fd5b600160008573ffffffffffffffffffffffffffffffffffffffff1673ffffffffffffffffffffffffffffffffffffffff16815260200190815260200160002060040160009054906101000a900460ff16801561175c5750600160008573ffffffffffffffffffffffffffffffffffffffff1673ffffffffffffffffffffffffffffffffffffffff16815260200190815260200160002060040160019054906101000a900460ff16155b61179b576040517f08c379a000000000000000000000000000000000000000000000000000000000815260040161179290612bc0565b60405180910390fd5b6000600160008673ffffffffffffffffffffffffffffffffffffffff1673ffffffffffffffffffffffffffffffffffffffff1681526020019081526020016000209050838160010190816117ef9190612d8c565b508281600201819055508181600301908161180a9190612eb9565b505050505050565b60008054906101000a900473ffffffffffffffffffffffffffffffffffffffff1673ffffffffffffffffffffffffffffffffffffffff163373ffffffffffffffffffffffffffffffffffffffff16146118a0576040517f08c379a00000000000000000000000000000000000000000000000000000000081526004016118979061261b565b60405180910390fd5b600073ffffffffffffffffffffffffffffffffffffffff168473ffffffffffffffffffffffffffffffffffffffff160361190f576040517f08c379a0000000000000000000000000000000000000000000000000000000008152600401611906906128cf565b60405180910390fd5b6003849080600181540180825580915050600190039060005260206000200160009091909190916101000a81548173ffffffffffffffffffffffffffffffffffffffff021916908373ffffffffffffffffffffffffffffffffffffffff160217905550600160008573ffffffffffffffffffffffffffffffffffffffff1673ffffffffffffffffffffffffffffffffffffffff16815260200190815260200160002060040160009054906101000a900460ff161580611a1a5750600160008573ffffffffffffffffffffffffffffffffffffffff1673ffffffffffffffffffffffffffffffffffffffff16815260200190815260200160002060040160019054906101000a900460ff165b611a59576040517f08c379a0000000000000000000000000000000000000000000000000000000008152600401611a5090612ffd565b60405180910390fd5b6040518060c001604052808573ffffffffffffffffffffffffffffffffffffffff16815260200184815260200183815260200182815260200160011515815260200160001515815250600160008673ffffffffffffffffffffffffffffffffffffffff1673ffffffffffffffffffffffffffffffffffffffff16815260200190815260200160002060008201518160000160006101000a81548173ffffffffffffffffffffffffffffffffffffffff021916908373ffffffffffffffffffffffffffffffffffffffff1602179055506020820151816001019081611b3d9190612d8c565b50604082015181600201556060820151816003019081611b5d9190612eb9565b5060808201518160040160006101000a81548160ff02191690831515021790555060a08201518160040160016101000a81548160ff02191690831515021790555090505050505050565b60038181548110611bb757600080fd5b906000526020600020016000915054906101000a900473ffffffffffffffffffffffffffffffffffffffff1681565b6040518060c00160405280600073ffffffffffffffffffffffffffffffffffffffff1681526020016060815260200160008019168152602001606081526020016000151581526020016000151581525090565b6000604051905090565b600080fd5b600080fd5b600073ffffffffffffffffffffffffffffffffffffffff82169050919050565b6000611c7882611c4d565b9050919050565b611c8881611c6d565b8114611c9357600080fd5b50565b600081359050611ca581611c7f565b92915050565b600060208284031215611cc157611cc0611c43565b5b6000611ccf84828501611c96565b91505092915050565b611ce181611c6d565b82525050565b600081519050919050565b600082825260208201905092915050565b60005b83811015611d21578082015181840152602081019050611d06565b60008484015250505050565b6000601f19601f8301169050919050565b6000611d4982611ce7565b611d538185611cf2565b9350611d63818560208601611d03565b611d6c81611d2d565b840191505092915050565b6000819050919050565b611d8a81611d77565b82525050565b600081519050919050565b600082825260208201905092915050565b6000611db782611d90565b611dc18185611d9b565b9350611dd1818560208601611d03565b611dda81611d2d565b840191505092915050565b60008115159050919050565b611dfa81611de5565b82525050565b600060c082019050611e156000830189611cd8565b8181036020830152611e278188611d3e565b9050611e366040830187611d81565b8181036060830152611e488186611dac565b9050611e576080830185611df1565b611e6460a0830184611df1565b979650505050505050565b600081519050919050565b600082825260208201905092915050565b6000819050602082019050919050565b611ea481611c6d565b82525050565b600082825260208201905092915050565b6000611ec682611ce7565b611ed08185611eaa565b9350611ee0818560208601611d03565b611ee981611d2d565b840191505092915050565b611efd81611d77565b82525050565b600082825260208201905092915050565b6000611f1f82611d90565b611f298185611f03565b9350611f39818560208601611d03565b611f4281611d2d565b840191505092915050565b611f5681611de5565b82525050565b600060c083016000830151611f746000860182611e9b565b5060208301518482036020860152611f8c8282611ebb565b9150506040830151611fa16040860182611ef4565b5060608301518482036060860152611fb98282611f14565b9150506080830151611fce6080860182611f4d565b5060a0830151611fe160a0860182611f4d565b508091505092915050565b6000611ff88383611f5c565b905092915050565b6000602082019050919050565b600061201882611e6f565b6120228185611e7a565b93508360208202850161203485611e8b565b8060005b8581101561207057848403895281516120518582611fec565b945061205c83612000565b925060208a01995050600181019050612038565b50829750879550505050505092915050565b6000602082019050818103600083015261209c818461200d565b905092915050565b600080604083850312156120bb576120ba611c43565b5b60006120c985828601611c96565b92505060206120da85828601611c96565b9150509250929050565b60006020820190506120f96000830184611df1565b92915050565b6000819050919050565b612112816120ff565b811461211d57600080fd5b50565b60008135905061212f81612109565b92915050565b6000806040838503121561214c5761214b611c43565b5b600061215a85828601611c96565b925050602061216b85828601612120565b9150509250929050565b600060208201905061218a6000830184611cd8565b92915050565b600060608201905081810360008301526121aa8186611d3e565b90506121b96020830185611d81565b81810360408301526121cb8184611dac565b9050949350505050565b600080fd5b600080fd5b7f4e487b7100000000000000000000000000000000000000000000000000000000600052604160045260246000fd5b61221782611d2d565b810181811067ffffffffffffffff82111715612236576122356121df565b5b80604052505050565b6000612249611c39565b9050612255828261220e565b919050565b600067ffffffffffffffff821115612275576122746121df565b5b61227e82611d2d565b9050602081019050919050565b82818337600083830152505050565b60006122ad6122a88461225a565b61223f565b9050828152602081018484840111156122c9576122c86121da565b5b6122d484828561228b565b509392505050565b600082601f8301126122f1576122f06121d5565b5b813561230184826020860161229a565b91505092915050565b61231381611d77565b811461231e57600080fd5b50565b6000813590506123308161230a565b92915050565b600067ffffffffffffffff821115612351576123506121df565b5b61235a82611d2d565b9050602081019050919050565b600061237a61237584612336565b61223f565b905082815260208101848484011115612396576123956121da565b5b6123a184828561228b565b509392505050565b600082601f8301126123be576123bd6121d5565b5b81356123ce848260208601612367565b91505092915050565b600080600080608085870312156123f1576123f0611c43565b5b60006123ff87828801611c96565b945050602085013567ffffffffffffffff8111156124205761241f611c48565b5b61242c878288016122dc565b935050604061243d87828801612321565b925050606085013567ffffffffffffffff81111561245e5761245d611c48565b5b61246a878288016123a9565b91505092959194509250565b60006020828403121561248c5761248b611c43565b5b600061249a84828501612120565b91505092915050565b7f4e487b7100000000000000000000000000000000000000000000000000000000600052602260045260246000fd5b600060028204905060018216806124ea57607f821691505b6020821081036124fd576124fc6124a3565b5b50919050565b7f4e487b7100000000000000000000000000000000000000000000000000000000600052603260045260246000fd5b7f4e487b7100000000000000000000000000000000000000000000000000000000600052601160045260246000fd5b600061256c826120ff565b91507fffffffffffffffffffffffffffffffffffffffffffffffffffffffffffffffff820361259e5761259d612532565b5b600182019050919050565b7f4f6e6c792074686520556e69766572736974792063616e2063616c6c2074686960008201527f732066756e6374696f6e00000000000000000000000000000000000000000000602082015250565b6000612605602a83611cf2565b9150612610826125a9565b604082019050919050565b60006020820190508181036000830152612634816125f8565b9050919050565b7f4f6e6c792074686520556e69766572736974792063616e207265766f6b65206360008201527f6572746966696361746573000000000000000000000000000000000000000000602082015250565b6000612697602b83611cf2565b91506126a28261263b565b604082019050919050565b600060208201905081810360008301526126c68161268a565b9050919050565b7f4365727469666963617465206e6f7420697373756564206f7220616c7265616460008201527f79207265766f6b65640000000000000000000000000000000000000000000000602082015250565b6000612729602983611cf2565b9150612734826126cd565b604082019050919050565b600060208201905081810360008301526127588161271c565b9050919050565b7f4e6f20636572746966696361746520666f756e6420666f72207468697320737460008201527f7564656e74000000000000000000000000000000000000000000000000000000602082015250565b60006127bb602583611cf2565b91506127c68261275f565b604082019050919050565b600060208201905081810360008301526127ea816127ae565b9050919050565b7f5468697320636572746966696361746520686173206265656e207265766f6b6560008201527f6400000000000000000000000000000000000000000000000000000000000000602082015250565b600061284d602183611cf2565b9150612858826127f1565b604082019050919050565b6000602082019050818103600083015261287c81612840565b9050919050565b7f496e76616c696420726563697069656e74206164647265737300000000000000600082015250565b60006128b9601983611cf2565b91506128c482612883565b602082019050919050565b600060208201905081810360008301526128e8816128ac565b9050919050565b7f4e6f20636572746966696361746520666f756e6420666f72207468697320726560008201527f63697069656e7400000000000000000000000000000000000000000000000000602082015250565b600061294b602783611cf2565b9150612956826128ef565b604082019050919050565b6000602082019050818103600083015261297a8161293e565b9050919050565b7f4365727469666963617465206e6f742069737375656400000000000000000000600082015250565b60006129b7601683611cf2565b91506129c282612981565b602082019050919050565b600060208201905081810360008301526129e6816129aa565b9050919050565b7f4365727469666963617465206973207265766f6b656400000000000000000000600082015250565b6000612a23601683611cf2565b9150612a2e826129ed565b602082019050919050565b60006020820190508181036000830152612a5281612a16565b9050919050565b6000612a64826120ff565b9150612a6f836120ff565b9250828203905081811115612a8757612a86612532565b5b92915050565b7f4e487b7100000000000000000000000000000000000000000000000000000000600052603160045260246000fd5b7f4365727469666963617465206e6f74207368617265642077697468207468697360008201527f20656d706c6f7965720000000000000000000000000000000000000000000000602082015250565b6000612b18602983611cf2565b9150612b2382612abc565b604082019050919050565b60006020820190508181036000830152612b4781612b0b565b9050919050565b7f4365727469666963617465206e6f7420697373756564206f7220616c7265616460008201527f79207265766f6b656420666f72207468697320726563697069656e7400000000602082015250565b6000612baa603c83611cf2565b9150612bb582612b4e565b604082019050919050565b60006020820190508181036000830152612bd981612b9d565b9050919050565b60008190508160005260206000209050919050565b60006020601f8301049050919050565b600082821b905092915050565b600060088302612c427fffffffffffffffffffffffffffffffffffffffffffffffffffffffffffffffff82612c05565b612c4c8683612c05565b95508019841693508086168417925050509392505050565b6000819050919050565b6000612c89612c84612c7f846120ff565b612c64565b6120ff565b9050919050565b6000819050919050565b612ca383612c6e565b612cb7612caf82612c90565b848454612c12565b825550505050565b600090565b612ccc612cbf565b612cd7818484612c9a565b505050565b5b81811015612cfb57612cf0600082612cc4565b600181019050612cdd565b5050565b601f821115612d4057612d1181612be0565b612d1a84612bf5565b81016020851015612d29578190505b612d3d612d3585612bf5565b830182612cdc565b50505b505050565b600082821c905092915050565b6000612d6360001984600802612d45565b1980831691505092915050565b6000612d7c8383612d52565b9150826002028217905092915050565b612d9582611ce7565b67ffffffffffffffff811115612dae57612dad6121df565b5b612db882546124d2565b612dc3828285612cff565b600060209050601f831160018114612df65760008415612de4578287015190505b612dee8582612d70565b865550612e56565b601f198416612e0486612be0565b60005b82811015612e2c57848901518255600182019150602085019450602081019050612e07565b86831015612e495784890151612e45601f891682612d52565b8355505b6001600288020188555050505b505050505050565b60008190508160005260206000209050919050565b601f821115612eb457612e8581612e5e565b612e8e84612bf5565b81016020851015612e9d578190505b612eb1612ea985612bf5565b830182612cdc565b50505b505050565b612ec282611d90565b67ffffffffffffffff811115612edb57612eda6121df565b5b612ee582546124d2565b612ef0828285612e73565b600060209050601f831160018114612f235760008415612f11578287015190505b612f1b8582612d70565b865550612f83565b601f198416612f3186612e5e565b60005b82811015612f5957848901518255600182019150602085019450602081019050612f34565b86831015612f765784890151612f72601f891682612d52565b8355505b6001600288020188555050505b505050505050565b7f436572746966696361746520616c726561647920697373756564206f7220726560008201527f766f6b656420666f72207468697320726563697069656e740000000000000000602082015250565b6000612fe7603883611cf2565b9150612ff282612f8b565b604082019050919050565b6000602082019050818103600083015261301681612fda565b905091905056fea26469706673582212205cf82e92e72fd7fde53f57df7387a464a8059fe7bbed5ee8ee173c6ced13abcc64736f6c63430008130033",
  "linkReferences": {},
  "deployedLinkReferences": {}
}