{
  "_format": "hh-sol-artifact-1",
  "contractName": "CertificateNFT",
  "sourceName": "contracts/CertificateNFT.sol",
  "abi": [
    {
      "inputs": [],
      "stateMutability": "nonpayable",
      "type": "constructor"
    },
    {
      "anonymous": false,
      "inputs": [
        {
          "indexed": true,
          "internalType": "bytes32",
          "name": "certificateHash",
          "type": "bytes32"
        },
        {
          "indexed": true,
          "internalType": "address",
          "name": "recipient",
          "type": "address"
        }
      ],
      "name": "CertificateIssued",
      "type": "event"
    },
    {
      "inputs": [
        {
          "internalType": "bytes32",
          "name": "",
          "type": "bytes32"
        }
      ],
      "name": "certificates",
      "outputs": [
        {
          "internalType": "string",
          "name": "name",
          "type": "string"
        },
        {
          "internalType": "string",
          "name": "degreeName",
          "type": "string"
        },
        {
          "internalType": "string",
          "name": "subject",
          "type": "string"
        },
        {
          "internalType": "address",
          "name": "recipient",
          "type": "address"
        },
        {
          "internalType": "uint256",
          "name": "timestamp",
          "type": "uint256"
        },
        {
          "internalType": "bool",
          "name": "isIssued",
          "type": "bool"
        },
        {
          "internalType": "string",
          "name": "fileCID",
          "type": "string"
        }
      ],
      "stateMutability": "view",
      "type": "function"
    },
    {
      "inputs": [
        {
          "internalType": "string",
          "name": "name",
          "type": "string"
        },
        {
          "internalType": "string",
          "name": "degreeName",
          "type": "string"
        },
        {
          "internalType": "string",
          "name": "subject",
          "type": "string"
        },
        {
          "internalType": "address",
          "name": "recipient",
          "type": "address"
        },
        {
          "internalType": "uint256",
          "name": "timestamp",
          "type": "uint256"
        },
        {
          "internalType": "string",
          "name": "fileCID",
          "type": "string"
        }
      ],
      "name": "issueCertificate",
      "outputs": [],
      "stateMutability": "nonpayable",
      "type": "function"
    },
    {
      "inputs": [],
      "name": "owner",
      "outputs": [
        {
          "internalType": "address",
          "name": "",
          "type": "address"
        }
      ],
      "stateMutability": "view",
      "type": "function"
    },
    {
      "inputs": [
        {
          "internalType": "string",
          "name": "name",
          "type": "string"
        },
        {
          "internalType": "string",
          "name": "degreeName",
          "type": "string"
        },
        {
          "internalType": "string",
          "name": "subject",
          "type": "string"
        },
        {
          "internalType": "address",
          "name": "recipient",
          "type": "address"
        },
        {
          "internalType": "uint256",
          "name": "timestamp",
          "type": "uint256"
        },
        {
          "internalType": "string",
          "name": "fileCID",
          "type": "string"
        }
      ],
      "name": "verifyCertificate",
      "outputs": [
        {
          "internalType": "bool",
          "name": "",
          "type": "bool"
        }
      ],
      "stateMutability": "view",
      "type": "function"
    },
    {
      "inputs": [
        {
          "internalType": "address",
          "name": "studentAddress",
          "type": "address"
        }
      ],
      "name": "viewCertificate",
      "outputs": [
        {
          "internalType": "string",
          "name": "name",
          "type": "string"
        },
        {
          "internalType": "string",
          "name": "degreeName",
          "type": "string"
        },
        {
          "internalType": "string",
          "name": "subject",
          "type": "string"
        },
        {
          "internalType": "uint256",
          "name": "timestamp",
          "type": "uint256"
        },
        {
          "internalType": "string",
          "name": "fileCID",
          "type": "string"
        }
      ],
      "stateMutability": "view",
      "type": "function"
    }
  ],
  "bytecode": "0x608060405234801561001057600080fd5b50336000806101000a81548173ffffffffffffffffffffffffffffffffffffffff021916908373ffffffffffffffffffffffffffffffffffffffff16021790555061166c806100606000396000f3fe608060405234801561001057600080fd5b50600436106100575760003560e01c80632613826e1461005c57806364dbbaa21461008c5780636fb7e0ff146100c0578063742f0688146100dc5780638da5cb5b14610112575b600080fd5b61007660048036038101906100719190610cc7565b610130565b6040516100839190610ddf565b60405180910390f35b6100a660048036038101906100a19190610dfa565b610197565b6040516100b7959493929190610eb5565b60405180910390f35b6100da60048036038101906100d59190610cc7565b610522565b005b6100f660048036038101906100f19190610f5a565b610826565b6040516101099796959493929190610f96565b60405180910390f35b61011a610ab5565b6040516101279190611021565b60405180910390f35b60008087878787878760405160200161014e969594939291906110e1565b6040516020818303038152906040528051906020012090506001600082815260200190815260200160002060050160009054906101000a900460ff169150509695505050505050565b6060806060600060606000866040516020016101b39190611141565b6040516020818303038152906040528051906020012090508673ffffffffffffffffffffffffffffffffffffffff166001600083815260200190815260200160002060030160009054906101000a900473ffffffffffffffffffffffffffffffffffffffff1673ffffffffffffffffffffffffffffffffffffffff161461026f576040517f08c379a0000000000000000000000000000000000000000000000000000000008152600401610266906111ce565b60405180910390fd5b6001600082815260200190815260200160002060000160016000838152602001908152602001600020600101600160008481526020019081526020016000206002016001600085815260200190815260200160002060040154600160008681526020019081526020016000206006018480546102ea9061121d565b80601f01602080910402602001604051908101604052809291908181526020018280546103169061121d565b80156103635780601f1061033857610100808354040283529160200191610363565b820191906000526020600020905b81548152906001019060200180831161034657829003601f168201915b505050505094508380546103769061121d565b80601f01602080910402602001604051908101604052809291908181526020018280546103a29061121d565b80156103ef5780601f106103c4576101008083540402835291602001916103ef565b820191906000526020600020905b8154815290600101906020018083116103d257829003601f168201915b505050505093508280546104029061121d565b80601f016020809104026020016040519081016040528092919081815260200182805461042e9061121d565b801561047b5780601f106104505761010080835404028352916020019161047b565b820191906000526020600020905b81548152906001019060200180831161045e57829003601f168201915b5050505050925080805461048e9061121d565b80601f01602080910402602001604051908101604052809291908181526020018280546104ba9061121d565b80156105075780601f106104dc57610100808354040283529160200191610507565b820191906000526020600020905b8154815290600101906020018083116104ea57829003601f168201915b50505050509050955095509550955095505091939590929450565b60008054906101000a900473ffffffffffffffffffffffffffffffffffffffff1673ffffffffffffffffffffffffffffffffffffffff163373ffffffffffffffffffffffffffffffffffffffff16146105b0576040517f08c379a00000000000000000000000000000000000000000000000000000000081526004016105a7906112c0565b60405180910390fd5b600073ffffffffffffffffffffffffffffffffffffffff168373ffffffffffffffffffffffffffffffffffffffff160361061f576040517f08c379a00000000000000000000000000000000000000000000000000000000081526004016106169061132c565b60405180910390fd5b6000836040516020016106329190611141565b6040516020818303038152906040528051906020012090506001600082815260200190815260200160002060050160009054906101000a900460ff16156106ae576040517f08c379a00000000000000000000000000000000000000000000000000000000081526004016106a590611398565b60405180910390fd5b6040518060e001604052808881526020018781526020018681526020018573ffffffffffffffffffffffffffffffffffffffff168152602001848152602001600115158152602001838152506001600083815260200190815260200160002060008201518160000190816107229190611564565b5060208201518160010190816107389190611564565b50604082015181600201908161074e9190611564565b5060608201518160030160006101000a81548173ffffffffffffffffffffffffffffffffffffffff021916908373ffffffffffffffffffffffffffffffffffffffff1602179055506080820151816004015560a08201518160050160006101000a81548160ff02191690831515021790555060c08201518160060190816107d59190611564565b509050508373ffffffffffffffffffffffffffffffffffffffff16817f11fb9f283c08b0122fe14bf3b5692d38f07282003f545f4bbc8b766ddcbda83260405160405180910390a350505050505050565b60016020528060005260406000206000915090508060000180546108499061121d565b80601f01602080910402602001604051908101604052809291908181526020018280546108759061121d565b80156108c25780601f10610897576101008083540402835291602001916108c2565b820191906000526020600020905b8154815290600101906020018083116108a557829003601f168201915b5050505050908060010180546108d79061121d565b80601f01602080910402602001604051908101604052809291908181526020018280546109039061121d565b80156109505780601f1061092557610100808354040283529160200191610950565b820191906000526020600020905b81548152906001019060200180831161093357829003601f168201915b5050505050908060020180546109659061121d565b80601f01602080910402602001604051908101604052809291908181526020018280546109919061121d565b80156109de5780601f106109b3576101008083540402835291602001916109de565b820191906000526020600020905b8154815290600101906020018083116109c157829003601f168201915b5050505050908060030160009054906101000a900473ffffffffffffffffffffffffffffffffffffffff16908060040154908060050160009054906101000a900460ff1690806006018054610a329061121d565b80601f0160208091040260200160405190810160405280929190818152602001828054610a5e9061121d565b8015610aab5780601f10610a8057610100808354040283529160200191610aab565b820191906000526020600020905b815481529060010190602001808311610a8e57829003601f168201915b5050505050905087565b60008054906101000a900473ffffffffffffffffffffffffffffffffffffffff1681565b6000604051905090565b600080fd5b600080fd5b600080fd5b600080fd5b6000601f19601f8301169050919050565b7f4e487b7100000000000000000000000000000000000000000000000000000000600052604160045260246000fd5b610b4082610af7565b810181811067ffffffffffffffff82111715610b5f57610b5e610b08565b5b80604052505050565b6000610b72610ad9565b9050610b7e8282610b37565b919050565b600067ffffffffffffffff821115610b9e57610b9d610b08565b5b610ba782610af7565b9050602081019050919050565b82818337600083830152505050565b6000610bd6610bd184610b83565b610b68565b905082815260208101848484011115610bf257610bf1610af2565b5b610bfd848285610bb4565b509392505050565b600082601f830112610c1a57610c19610aed565b5b8135610c2a848260208601610bc3565b91505092915050565b600073ffffffffffffffffffffffffffffffffffffffff82169050919050565b6000610c5e82610c33565b9050919050565b610c6e81610c53565b8114610c7957600080fd5b50565b600081359050610c8b81610c65565b92915050565b6000819050919050565b610ca481610c91565b8114610caf57600080fd5b50565b600081359050610cc181610c9b565b92915050565b60008060008060008060c08789031215610ce457610ce3610ae3565b5b600087013567ffffffffffffffff811115610d0257610d01610ae8565b5b610d0e89828a01610c05565b965050602087013567ffffffffffffffff811115610d2f57610d2e610ae8565b5b610d3b89828a01610c05565b955050604087013567ffffffffffffffff811115610d5c57610d5b610ae8565b5b610d6889828a01610c05565b9450506060610d7989828a01610c7c565b9350506080610d8a89828a01610cb2565b92505060a087013567ffffffffffffffff811115610dab57610daa610ae8565b5b610db789828a01610c05565b9150509295509295509295565b60008115159050919050565b610dd981610dc4565b82525050565b6000602082019050610df46000830184610dd0565b92915050565b600060208284031215610e1057610e0f610ae3565b5b6000610e1e84828501610c7c565b91505092915050565b600081519050919050565b600082825260208201905092915050565b60005b83811015610e61578082015181840152602081019050610e46565b60008484015250505050565b6000610e7882610e27565b610e828185610e32565b9350610e92818560208601610e43565b610e9b81610af7565b840191505092915050565b610eaf81610c91565b82525050565b600060a0820190508181036000830152610ecf8188610e6d565b90508181036020830152610ee38187610e6d565b90508181036040830152610ef78186610e6d565b9050610f066060830185610ea6565b8181036080830152610f188184610e6d565b90509695505050505050565b6000819050919050565b610f3781610f24565b8114610f4257600080fd5b50565b600081359050610f5481610f2e565b92915050565b600060208284031215610f7057610f6f610ae3565b5b6000610f7e84828501610f45565b91505092915050565b610f9081610c53565b82525050565b600060e0820190508181036000830152610fb0818a610e6d565b90508181036020830152610fc48189610e6d565b90508181036040830152610fd88188610e6d565b9050610fe76060830187610f87565b610ff46080830186610ea6565b61100160a0830185610dd0565b81810360c08301526110138184610e6d565b905098975050505050505050565b60006020820190506110366000830184610f87565b92915050565b600081905092915050565b600061105282610e27565b61105c818561103c565b935061106c818560208601610e43565b80840191505092915050565b60008160601b9050919050565b600061109082611078565b9050919050565b60006110a282611085565b9050919050565b6110ba6110b582610c53565b611097565b82525050565b6000819050919050565b6110db6110d682610c91565b6110c0565b82525050565b60006110ed8289611047565b91506110f98288611047565b91506111058287611047565b915061111182866110a9565b60148201915061112182856110ca565b6020820191506111318284611047565b9150819050979650505050505050565b600061114d82846110a9565b60148201915081905092915050565b7f4e6f20636572746966696361746520666f756e6420666f72207468697320737460008201527f7564656e74000000000000000000000000000000000000000000000000000000602082015250565b60006111b8602583610e32565b91506111c38261115c565b604082019050919050565b600060208201905081810360008301526111e7816111ab565b9050919050565b7f4e487b7100000000000000000000000000000000000000000000000000000000600052602260045260246000fd5b6000600282049050600182168061123557607f821691505b602082108103611248576112476111ee565b5b50919050565b7f4f6e6c7920746865206f776e65722063616e2063616c6c20746869732066756e60008201527f6374696f6e000000000000000000000000000000000000000000000000000000602082015250565b60006112aa602583610e32565b91506112b58261124e565b604082019050919050565b600060208201905081810360008301526112d98161129d565b9050919050565b7f496e76616c696420726563697069656e74206164647265737300000000000000600082015250565b6000611316601983610e32565b9150611321826112e0565b602082019050919050565b6000602082019050818103600083015261134581611309565b9050919050565b7f436572746966696361746520616c726561647920697373756564000000000000600082015250565b6000611382601a83610e32565b915061138d8261134c565b602082019050919050565b600060208201905081810360008301526113b181611375565b9050919050565b60008190508160005260206000209050919050565b60006020601f8301049050919050565b600082821b905092915050565b60006008830261141a7fffffffffffffffffffffffffffffffffffffffffffffffffffffffffffffffff826113dd565b61142486836113dd565b95508019841693508086168417925050509392505050565b6000819050919050565b600061146161145c61145784610c91565b61143c565b610c91565b9050919050565b6000819050919050565b61147b83611446565b61148f61148782611468565b8484546113ea565b825550505050565b600090565b6114a4611497565b6114af818484611472565b505050565b5b818110156114d3576114c860008261149c565b6001810190506114b5565b5050565b601f821115611518576114e9816113b8565b6114f2846113cd565b81016020851015611501578190505b61151561150d856113cd565b8301826114b4565b50505b505050565b600082821c905092915050565b600061153b6000198460080261151d565b1980831691505092915050565b6000611554838361152a565b9150826002028217905092915050565b61156d82610e27565b67ffffffffffffffff81111561158657611585610b08565b5b611590825461121d565b61159b8282856114d7565b600060209050601f8311600181146115ce57600084156115bc578287015190505b6115c68582611548565b86555061162e565b601f1984166115dc866113b8565b60005b82811015611604578489015182556001820191506020850194506020810190506115df565b86831015611621578489015161161d601f89168261152a565b8355505b6001600288020188555050505b50505050505056fea2646970667358221220b65112bc3498723d1fbd6f00903b3957b5b18f301c169e79a6ab7936280dd2b764736f6c63430008130033",
  "linkReferences": {},
  "deployedLinkReferences": {}
}