{
  "_format": "hh-sol-artifact-1",
  "contractName": "CertificateNFT",
  "sourceName": "contracts/CertificateNFT.sol",
  "abi": [
    {
      "inputs": [],
      "stateMutability": "nonpayable",
      "type": "constructor"
    },
    {
      "inputs": [
        {
          "internalType": "bytes32",
          "name": "",
          "type": "bytes32"
        }
      ],
      "name": "certificates",
      "outputs": [
        {
          "internalType": "string",
          "name": "name",
          "type": "string"
        },
        {
          "internalType": "string",
          "name": "roll",
          "type": "string"
        },
        {
          "internalType": "string",
          "name": "degreeName",
          "type": "string"
        },
        {
          "internalType": "string",
          "name": "subject",
          "type": "string"
        },
        {
          "internalType": "address",
          "name": "recipient",
          "type": "address"
        },
        {
          "internalType": "uint256",
          "name": "timestamp",
          "type": "uint256"
        },
        {
          "internalType": "uint256",
          "name": "expiration",
          "type": "uint256"
        },
        {
          "internalType": "bool",
          "name": "isIssued",
          "type": "bool"
        },
        {
          "internalType": "bool",
          "name": "isRevoked",
          "type": "bool"
        },
        {
          "internalType": "string",
          "name": "fileCID",
          "type": "string"
        },
        {
          "internalType": "bytes",
          "name": "signature",
          "type": "bytes"
        }
      ],
      "stateMutability": "view",
      "type": "function"
    },
    {
      "inputs": [],
      "name": "getAllCertificates",
      "outputs": [
        {
          "components": [
            {
              "internalType": "string",
              "name": "name",
              "type": "string"
            },
            {
              "internalType": "string",
              "name": "roll",
              "type": "string"
            },
            {
              "internalType": "string",
              "name": "degreeName",
              "type": "string"
            },
            {
              "internalType": "string",
              "name": "subject",
              "type": "string"
            },
            {
              "internalType": "address",
              "name": "recipient",
              "type": "address"
            },
            {
              "internalType": "uint256",
              "name": "timestamp",
              "type": "uint256"
            },
            {
              "internalType": "uint256",
              "name": "expiration",
              "type": "uint256"
            },
            {
              "internalType": "bool",
              "name": "isIssued",
              "type": "bool"
            },
            {
              "internalType": "bool",
              "name": "isRevoked",
              "type": "bool"
            },
            {
              "internalType": "string",
              "name": "fileCID",
              "type": "string"
            },
            {
              "internalType": "bytes",
              "name": "signature",
              "type": "bytes"
            }
          ],
          "internalType": "struct CertificateNFT.Certificate[]",
          "name": "",
          "type": "tuple[]"
        }
      ],
      "stateMutability": "view",
      "type": "function"
    },
    {
      "inputs": [
        {
          "internalType": "address",
          "name": "student",
          "type": "address"
        },
        {
          "internalType": "address",
          "name": "employer",
          "type": "address"
        }
      ],
      "name": "isCertificateSharedWith",
      "outputs": [
        {
          "internalType": "bool",
          "name": "",
          "type": "bool"
        }
      ],
      "stateMutability": "view",
      "type": "function"
    },
    {
      "inputs": [
        {
          "internalType": "string",
          "name": "name",
          "type": "string"
        },
        {
          "internalType": "string",
          "name": "roll",
          "type": "string"
        },
        {
          "internalType": "string",
          "name": "degreeName",
          "type": "string"
        },
        {
          "internalType": "string",
          "name": "subject",
          "type": "string"
        },
        {
          "internalType": "address",
          "name": "recipient",
          "type": "address"
        },
        {
          "internalType": "uint256",
          "name": "timestamp",
          "type": "uint256"
        },
        {
          "internalType": "uint256",
          "name": "expiration",
          "type": "uint256"
        },
        {
          "internalType": "string",
          "name": "fileCID",
          "type": "string"
        },
        {
          "internalType": "bytes",
          "name": "signature",
          "type": "bytes"
        }
      ],
      "name": "issueCertificate",
      "outputs": [],
      "stateMutability": "nonpayable",
      "type": "function"
    },
    {
      "inputs": [],
      "name": "owner",
      "outputs": [
        {
          "internalType": "address",
          "name": "",
          "type": "address"
        }
      ],
      "stateMutability": "view",
      "type": "function"
    },
    {
      "inputs": [
        {
          "internalType": "uint256",
          "name": "",
          "type": "uint256"
        }
      ],
      "name": "recipients",
      "outputs": [
        {
          "internalType": "address",
          "name": "",
          "type": "address"
        }
      ],
      "stateMutability": "view",
      "type": "function"
    },
    {
      "inputs": [
        {
          "internalType": "address",
          "name": "recipient",
          "type": "address"
        }
      ],
      "name": "revokeCertificate",
      "outputs": [],
      "stateMutability": "nonpayable",
      "type": "function"
    },
    {
      "inputs": [
        {
          "internalType": "address",
          "name": "student",
          "type": "address"
        },
        {
          "internalType": "address",
          "name": "employer",
          "type": "address"
        }
      ],
      "name": "shareCertificate",
      "outputs": [],
      "stateMutability": "nonpayable",
      "type": "function"
    },
    {
      "inputs": [
        {
          "internalType": "bytes32",
          "name": "",
          "type": "bytes32"
        },
        {
          "internalType": "uint256",
          "name": "",
          "type": "uint256"
        }
      ],
      "name": "sharedCertificates",
      "outputs": [
        {
          "internalType": "address",
          "name": "",
          "type": "address"
        }
      ],
      "stateMutability": "view",
      "type": "function"
    },
    {
      "inputs": [
        {
          "internalType": "address",
          "name": "recipient",
          "type": "address"
        },
        {
          "internalType": "string",
          "name": "degreeName",
          "type": "string"
        },
        {
          "internalType": "string",
          "name": "subject",
          "type": "string"
        },
        {
          "internalType": "uint256",
          "name": "timestamp",
          "type": "uint256"
        },
        {
          "internalType": "uint256",
          "name": "expiration",
          "type": "uint256"
        },
        {
          "internalType": "string",
          "name": "fileCID",
          "type": "string"
        },
        {
          "internalType": "bytes",
          "name": "signature",
          "type": "bytes"
        }
      ],
      "name": "updateCertificate",
      "outputs": [],
      "stateMutability": "nonpayable",
      "type": "function"
    },
    {
      "inputs": [
        {
          "internalType": "address",
          "name": "recipient",
          "type": "address"
        }
      ],
      "name": "verifyCertificate",
      "outputs": [
        {
          "internalType": "bool",
          "name": "",
          "type": "bool"
        }
      ],
      "stateMutability": "view",
      "type": "function"
    },
    {
      "inputs": [
        {
          "internalType": "address",
          "name": "studentAddress",
          "type": "address"
        }
      ],
      "name": "viewCertificate",
      "outputs": [
        {
          "internalType": "string",
          "name": "name",
          "type": "string"
        },
        {
          "internalType": "string",
          "name": "roll",
          "type": "string"
        },
        {
          "internalType": "string",
          "name": "degreeName",
          "type": "string"
        },
        {
          "internalType": "string",
          "name": "subject",
          "type": "string"
        },
        {
          "internalType": "uint256",
          "name": "timestamp",
          "type": "uint256"
        },
        {
          "internalType": "uint256",
          "name": "expiration",
          "type": "uint256"
        },
        {
          "internalType": "string",
          "name": "fileCID",
          "type": "string"
        },
        {
          "internalType": "bytes",
          "name": "signature",
          "type": "bytes"
        }
      ],
      "stateMutability": "view",
      "type": "function"
    }
  ],
  "bytecode": "0x608060405234801561001057600080fd5b50336000806101000a81548173ffffffffffffffffffffffffffffffffffffffff021916908373ffffffffffffffffffffffffffffffffffffffff1602179055506135ab806100606000396000f3fe608060405234801561001057600080fd5b50600436106100b45760003560e01c8063742f068811610071578063742f0688146101ba57806385cea6f6146101f45780638da5cb5b14610210578063ad38ce561461022e578063bf01d4c11461024a578063d1bc76a114610266576100b4565b806313fcfe80146100b95780632c5dcee9146100d75780632e06a88a146101075780635f893bfa1461013757806364dbbaa2146101535780636b9afc901461018a575b600080fd5b6100c1610296565b6040516100ce91906121f4565b60405180910390f35b6100f160048036038101906100ec919061228c565b6107d3565b6040516100fe91906122db565b60405180910390f35b610121600480360381019061011c9190612322565b610821565b60405161012e9190612371565b60405180910390f35b610151600480360381019061014c919061238c565b61096f565b005b61016d6004803603810190610168919061238c565b610b4b565b60405161018198979695949392919061245c565b60405180910390f35b6101a4600480360381019061019f919061238c565b6110a0565b6040516101b19190612371565b60405180910390f35b6101d460048036038101906101cf9190612504565b611238565b6040516101eb9b9a99989796959493929190612531565b60405180910390f35b61020e60048036038101906102099190612322565b6115fc565b005b6102186117f5565b60405161022591906122db565b60405180910390f35b610248600480360381019061024391906127dc565b611819565b005b610264600480360381019061025f91906128ee565b611a4d565b005b610280600480360381019061027b9190612a60565b611e13565b60405161028d91906122db565b60405180910390f35b6060600060038054905067ffffffffffffffff8111156102b9576102b8612610565b5b6040519080825280602002602001820160405280156102f257816020015b6102df611e52565b8152602001906001900390816102d75790505b50905060005b6003805490508110156107cb5760006003828154811061031b5761031a612a8d565b5b9060005260206000200160009054906101000a900473ffffffffffffffffffffffffffffffffffffffff166040516020016103569190612b04565b604051602081830303815290604052805190602001209050600160008281526020019081526020016000206040518061016001604052908160008201805461039d90612b4e565b80601f01602080910402602001604051908101604052809291908181526020018280546103c990612b4e565b80156104165780601f106103eb57610100808354040283529160200191610416565b820191906000526020600020905b8154815290600101906020018083116103f957829003601f168201915b5050505050815260200160018201805461042f90612b4e565b80601f016020809104026020016040519081016040528092919081815260200182805461045b90612b4e565b80156104a85780601f1061047d576101008083540402835291602001916104a8565b820191906000526020600020905b81548152906001019060200180831161048b57829003601f168201915b505050505081526020016002820180546104c190612b4e565b80601f01602080910402602001604051908101604052809291908181526020018280546104ed90612b4e565b801561053a5780601f1061050f5761010080835404028352916020019161053a565b820191906000526020600020905b81548152906001019060200180831161051d57829003601f168201915b5050505050815260200160038201805461055390612b4e565b80601f016020809104026020016040519081016040528092919081815260200182805461057f90612b4e565b80156105cc5780601f106105a1576101008083540402835291602001916105cc565b820191906000526020600020905b8154815290600101906020018083116105af57829003601f168201915b505050505081526020016004820160009054906101000a900473ffffffffffffffffffffffffffffffffffffffff1673ffffffffffffffffffffffffffffffffffffffff1673ffffffffffffffffffffffffffffffffffffffff16815260200160058201548152602001600682015481526020016007820160009054906101000a900460ff161515151581526020016007820160019054906101000a900460ff1615151515815260200160088201805461068590612b4e565b80601f01602080910402602001604051908101604052809291908181526020018280546106b190612b4e565b80156106fe5780601f106106d3576101008083540402835291602001916106fe565b820191906000526020600020905b8154815290600101906020018083116106e157829003601f168201915b5050505050815260200160098201805461071790612b4e565b80601f016020809104026020016040519081016040528092919081815260200182805461074390612b4e565b80156107905780601f1061076557610100808354040283529160200191610790565b820191906000526020600020905b81548152906001019060200180831161077357829003601f168201915b5050505050815250508383815181106107ac576107ab612a8d565b5b60200260200101819052505080806107c390612bae565b9150506102f8565b508091505090565b600260205281600052604060002081815481106107ef57600080fd5b906000526020600020016000915091509054906101000a900473ffffffffffffffffffffffffffffffffffffffff1681565b600080836040516020016108359190612b04565b6040516020818303038152906040528051906020012090506000600260008381526020019081526020016000208054806020026020016040519081016040528092919081815260200182805480156108e257602002820191906000526020600020905b8160009054906101000a900473ffffffffffffffffffffffffffffffffffffffff1673ffffffffffffffffffffffffffffffffffffffff1681526020019060010190808311610898575b5050505050905060005b8151811015610961578473ffffffffffffffffffffffffffffffffffffffff1682828151811061091f5761091e612a8d565b5b602002602001015173ffffffffffffffffffffffffffffffffffffffff160361094e5760019350505050610969565b808061095990612bae565b9150506108ec565b506000925050505b92915050565b60008054906101000a900473ffffffffffffffffffffffffffffffffffffffff1673ffffffffffffffffffffffffffffffffffffffff163373ffffffffffffffffffffffffffffffffffffffff16146109fd576040517f08c379a00000000000000000000000000000000000000000000000000000000081526004016109f490612c68565b60405180910390fd5b60008054906101000a900473ffffffffffffffffffffffffffffffffffffffff1673ffffffffffffffffffffffffffffffffffffffff163373ffffffffffffffffffffffffffffffffffffffff1614610a8b576040517f08c379a0000000000000000000000000000000000000000000000000000000008152600401610a8290612cfa565b60405180910390fd5b600081604051602001610a9e9190612b04565b6040516020818303038152906040528051906020012090506001600082815260200190815260200160002060070160009054906101000a900460ff16610b19576040517f08c379a0000000000000000000000000000000000000000000000000000000008152600401610b1090612d8c565b60405180910390fd5b600180600083815260200190815260200160002060070160016101000a81548160ff0219169083151502179055505050565b606080606080600080606080600089604051602001610b6a9190612b04565b6040516020818303038152906040528051906020012090508973ffffffffffffffffffffffffffffffffffffffff166001600083815260200190815260200160002060040160009054906101000a900473ffffffffffffffffffffffffffffffffffffffff1673ffffffffffffffffffffffffffffffffffffffff1614610c26576040517f08c379a0000000000000000000000000000000000000000000000000000000008152600401610c1d90612e1e565b60405180910390fd5b6001600082815260200190815260200160002060070160019054906101000a900460ff1615610c8a576040517f08c379a0000000000000000000000000000000000000000000000000000000008152600401610c8190612eb0565b60405180910390fd5b60016000828152602001908152602001600020600001600160008381526020019081526020016000206001016001600084815260200190815260200160002060020160016000858152602001908152602001600020600301600160008681526020019081526020016000206005015460016000878152602001908152602001600020600601546001600088815260200190815260200160002060080160016000898152602001908152602001600020600901878054610d4890612b4e565b80601f0160208091040260200160405190810160405280929190818152602001828054610d7490612b4e565b8015610dc15780601f10610d9657610100808354040283529160200191610dc1565b820191906000526020600020905b815481529060010190602001808311610da457829003601f168201915b50505050509750868054610dd490612b4e565b80601f0160208091040260200160405190810160405280929190818152602001828054610e0090612b4e565b8015610e4d5780601f10610e2257610100808354040283529160200191610e4d565b820191906000526020600020905b815481529060010190602001808311610e3057829003601f168201915b50505050509650858054610e6090612b4e565b80601f0160208091040260200160405190810160405280929190818152602001828054610e8c90612b4e565b8015610ed95780601f10610eae57610100808354040283529160200191610ed9565b820191906000526020600020905b815481529060010190602001808311610ebc57829003601f168201915b50505050509550848054610eec90612b4e565b80601f0160208091040260200160405190810160405280929190818152602001828054610f1890612b4e565b8015610f655780601f10610f3a57610100808354040283529160200191610f65565b820191906000526020600020905b815481529060010190602001808311610f4857829003601f168201915b50505050509450818054610f7890612b4e565b80601f0160208091040260200160405190810160405280929190818152602001828054610fa490612b4e565b8015610ff15780601f10610fc657610100808354040283529160200191610ff1565b820191906000526020600020905b815481529060010190602001808311610fd457829003601f168201915b5050505050915080805461100490612b4e565b80601f016020809104026020016040519081016040528092919081815260200182805461103090612b4e565b801561107d5780601f106110525761010080835404028352916020019161107d565b820191906000526020600020905b81548152906001019060200180831161106057829003601f168201915b505050505090509850985098509850985098509850985050919395975091939597565b60008073ffffffffffffffffffffffffffffffffffffffff168273ffffffffffffffffffffffffffffffffffffffff1603611110576040517f08c379a000000000000000000000000000000000000000000000000000000000815260040161110790612f1c565b60405180910390fd5b6000826040516020016111239190612b04565b6040516020818303038152906040528051906020012090508273ffffffffffffffffffffffffffffffffffffffff166001600083815260200190815260200160002060040160009054906101000a900473ffffffffffffffffffffffffffffffffffffffff1673ffffffffffffffffffffffffffffffffffffffff16146111df576040517f08c379a00000000000000000000000000000000000000000000000000000000081526004016111d690612fae565b60405180910390fd5b6001600082815260200190815260200160002060070160009054906101000a900460ff16801561123057506001600082815260200190815260200160002060070160019054906101000a900460ff16155b915050919050565b600160205280600052604060002060009150905080600001805461125b90612b4e565b80601f016020809104026020016040519081016040528092919081815260200182805461128790612b4e565b80156112d45780601f106112a9576101008083540402835291602001916112d4565b820191906000526020600020905b8154815290600101906020018083116112b757829003601f168201915b5050505050908060010180546112e990612b4e565b80601f016020809104026020016040519081016040528092919081815260200182805461131590612b4e565b80156113625780601f1061133757610100808354040283529160200191611362565b820191906000526020600020905b81548152906001019060200180831161134557829003601f168201915b50505050509080600201805461137790612b4e565b80601f01602080910402602001604051908101604052809291908181526020018280546113a390612b4e565b80156113f05780601f106113c5576101008083540402835291602001916113f0565b820191906000526020600020905b8154815290600101906020018083116113d357829003601f168201915b50505050509080600301805461140590612b4e565b80601f016020809104026020016040519081016040528092919081815260200182805461143190612b4e565b801561147e5780601f106114535761010080835404028352916020019161147e565b820191906000526020600020905b81548152906001019060200180831161146157829003601f168201915b5050505050908060040160009054906101000a900473ffffffffffffffffffffffffffffffffffffffff16908060050154908060060154908060070160009054906101000a900460ff16908060070160019054906101000a900460ff16908060080180546114eb90612b4e565b80601f016020809104026020016040519081016040528092919081815260200182805461151790612b4e565b80156115645780601f1061153957610100808354040283529160200191611564565b820191906000526020600020905b81548152906001019060200180831161154757829003601f168201915b50505050509080600901805461157990612b4e565b80601f01602080910402602001604051908101604052809291908181526020018280546115a590612b4e565b80156115f25780601f106115c7576101008083540402835291602001916115f2565b820191906000526020600020905b8154815290600101906020018083116115d557829003601f168201915b505050505090508b565b60008054906101000a900473ffffffffffffffffffffffffffffffffffffffff1673ffffffffffffffffffffffffffffffffffffffff163373ffffffffffffffffffffffffffffffffffffffff161461168a576040517f08c379a000000000000000000000000000000000000000000000000000000000815260040161168190612c68565b60405180910390fd5b60008260405160200161169d9190612b04565b6040516020818303038152906040528051906020012090506001600082815260200190815260200160002060070160009054906101000a900460ff16611718576040517f08c379a000000000000000000000000000000000000000000000000000000000815260040161170f9061301a565b60405180910390fd5b6001600082815260200190815260200160002060070160019054906101000a900460ff161561177c576040517f08c379a000000000000000000000000000000000000000000000000000000000815260040161177390613086565b60405180910390fd5b60026000828152602001908152602001600020829080600181540180825580915050600190039060005260206000200160009091909190916101000a81548173ffffffffffffffffffffffffffffffffffffffff021916908373ffffffffffffffffffffffffffffffffffffffff160217905550505050565b60008054906101000a900473ffffffffffffffffffffffffffffffffffffffff1681565b60008054906101000a900473ffffffffffffffffffffffffffffffffffffffff1673ffffffffffffffffffffffffffffffffffffffff163373ffffffffffffffffffffffffffffffffffffffff16146118a7576040517f08c379a000000000000000000000000000000000000000000000000000000000815260040161189e90612c68565b60405180910390fd5b600073ffffffffffffffffffffffffffffffffffffffff168773ffffffffffffffffffffffffffffffffffffffff1603611916576040517f08c379a000000000000000000000000000000000000000000000000000000000815260040161190d90612f1c565b60405180910390fd5b6000876040516020016119299190612b04565b6040516020818303038152906040528051906020012090506001600082815260200190815260200160002060070160009054906101000a900460ff16801561199257506001600082815260200190815260200160002060070160019054906101000a900460ff16155b6119d1576040517f08c379a00000000000000000000000000000000000000000000000000000000081526004016119c890613118565b60405180910390fd5b6000600160008381526020019081526020016000209050878160020190816119f991906132e4565b5086816003019081611a0b91906132e4565b5085816005018190555084816006018190555083816008019081611a2f91906132e4565b5082816009019081611a419190613411565b50505050505050505050565b60008054906101000a900473ffffffffffffffffffffffffffffffffffffffff1673ffffffffffffffffffffffffffffffffffffffff163373ffffffffffffffffffffffffffffffffffffffff1614611adb576040517f08c379a0000000000000000000000000000000000000000000000000000000008152600401611ad290612c68565b60405180910390fd5b600073ffffffffffffffffffffffffffffffffffffffff168573ffffffffffffffffffffffffffffffffffffffff1603611b4a576040517f08c379a0000000000000000000000000000000000000000000000000000000008152600401611b4190612f1c565b60405180910390fd5b6003859080600181540180825580915050600190039060005260206000200160009091909190916101000a81548173ffffffffffffffffffffffffffffffffffffffff021916908373ffffffffffffffffffffffffffffffffffffffff160217905550600085604051602001611bc09190612b04565b6040516020818303038152906040528051906020012090506001600082815260200190815260200160002060070160009054906101000a900460ff161580611c2857506001600082815260200190815260200160002060070160019054906101000a900460ff165b611c67576040517f08c379a0000000000000000000000000000000000000000000000000000000008152600401611c5e90613555565b60405180910390fd5b6040518061016001604052808b81526020018a81526020018981526020018881526020018773ffffffffffffffffffffffffffffffffffffffff16815260200186815260200185815260200160011515815260200160001515815260200184815260200183815250600160008381526020019081526020016000206000820151816000019081611cf791906132e4565b506020820151816001019081611d0d91906132e4565b506040820151816002019081611d2391906132e4565b506060820151816003019081611d3991906132e4565b5060808201518160040160006101000a81548173ffffffffffffffffffffffffffffffffffffffff021916908373ffffffffffffffffffffffffffffffffffffffff16021790555060a0820151816005015560c0820151816006015560e08201518160070160006101000a81548160ff0219169083151502179055506101008201518160070160016101000a81548160ff021916908315150217905550610120820151816008019081611dec91906132e4565b50610140820151816009019081611e039190613411565b5090505050505050505050505050565b60038181548110611e2357600080fd5b906000526020600020016000915054906101000a900473ffffffffffffffffffffffffffffffffffffffff1681565b60405180610160016040528060608152602001606081526020016060815260200160608152602001600073ffffffffffffffffffffffffffffffffffffffff168152602001600081526020016000815260200160001515815260200160001515815260200160608152602001606081525090565b600081519050919050565b600082825260208201905092915050565b6000819050602082019050919050565b600081519050919050565b600082825260208201905092915050565b60005b83811015611f2c578082015181840152602081019050611f11565b60008484015250505050565b6000601f19601f8301169050919050565b6000611f5482611ef2565b611f5e8185611efd565b9350611f6e818560208601611f0e565b611f7781611f38565b840191505092915050565b600073ffffffffffffffffffffffffffffffffffffffff82169050919050565b6000611fad82611f82565b9050919050565b611fbd81611fa2565b82525050565b6000819050919050565b611fd681611fc3565b82525050565b60008115159050919050565b611ff181611fdc565b82525050565b600081519050919050565b600082825260208201905092915050565b600061201e82611ff7565b6120288185612002565b9350612038818560208601611f0e565b61204181611f38565b840191505092915050565b600061016083016000830151848203600086015261206a8282611f49565b915050602083015184820360208601526120848282611f49565b9150506040830151848203604086015261209e8282611f49565b915050606083015184820360608601526120b88282611f49565b91505060808301516120cd6080860182611fb4565b5060a08301516120e060a0860182611fcd565b5060c08301516120f360c0860182611fcd565b5060e083015161210660e0860182611fe8565b5061010083015161211b610100860182611fe8565b506101208301518482036101208601526121358282611f49565b9150506101408301518482036101408601526121518282612013565b9150508091505092915050565b600061216a838361204c565b905092915050565b6000602082019050919050565b600061218a82611ec6565b6121948185611ed1565b9350836020820285016121a685611ee2565b8060005b858110156121e257848403895281516121c3858261215e565b94506121ce83612172565b925060208a019950506001810190506121aa565b50829750879550505050505092915050565b6000602082019050818103600083015261220e818461217f565b905092915050565b6000604051905090565b600080fd5b600080fd5b6000819050919050565b61223d8161222a565b811461224857600080fd5b50565b60008135905061225a81612234565b92915050565b61226981611fc3565b811461227457600080fd5b50565b60008135905061228681612260565b92915050565b600080604083850312156122a3576122a2612220565b5b60006122b18582860161224b565b92505060206122c285828601612277565b9150509250929050565b6122d581611fa2565b82525050565b60006020820190506122f060008301846122cc565b92915050565b6122ff81611fa2565b811461230a57600080fd5b50565b60008135905061231c816122f6565b92915050565b6000806040838503121561233957612338612220565b5b60006123478582860161230d565b92505060206123588582860161230d565b9150509250929050565b61236b81611fdc565b82525050565b60006020820190506123866000830184612362565b92915050565b6000602082840312156123a2576123a1612220565b5b60006123b08482850161230d565b91505092915050565b600082825260208201905092915050565b60006123d582611ef2565b6123df81856123b9565b93506123ef818560208601611f0e565b6123f881611f38565b840191505092915050565b61240c81611fc3565b82525050565b600082825260208201905092915050565b600061242e82611ff7565b6124388185612412565b9350612448818560208601611f0e565b61245181611f38565b840191505092915050565b6000610100820190508181036000830152612477818b6123ca565b9050818103602083015261248b818a6123ca565b9050818103604083015261249f81896123ca565b905081810360608301526124b381886123ca565b90506124c26080830187612403565b6124cf60a0830186612403565b81810360c08301526124e181856123ca565b905081810360e08301526124f58184612423565b90509998505050505050505050565b60006020828403121561251a57612519612220565b5b60006125288482850161224b565b91505092915050565b600061016082019050818103600083015261254c818e6123ca565b90508181036020830152612560818d6123ca565b90508181036040830152612574818c6123ca565b90508181036060830152612588818b6123ca565b9050612597608083018a6122cc565b6125a460a0830189612403565b6125b160c0830188612403565b6125be60e0830187612362565b6125cc610100830186612362565b8181036101208301526125df81856123ca565b90508181036101408301526125f48184612423565b90509c9b505050505050505050505050565b600080fd5b600080fd5b7f4e487b7100000000000000000000000000000000000000000000000000000000600052604160045260246000fd5b61264882611f38565b810181811067ffffffffffffffff8211171561266757612666612610565b5b80604052505050565b600061267a612216565b9050612686828261263f565b919050565b600067ffffffffffffffff8211156126a6576126a5612610565b5b6126af82611f38565b9050602081019050919050565b82818337600083830152505050565b60006126de6126d98461268b565b612670565b9050828152602081018484840111156126fa576126f961260b565b5b6127058482856126bc565b509392505050565b600082601f83011261272257612721612606565b5b81356127328482602086016126cb565b91505092915050565b600067ffffffffffffffff82111561275657612755612610565b5b61275f82611f38565b9050602081019050919050565b600061277f61277a8461273b565b612670565b90508281526020810184848401111561279b5761279a61260b565b5b6127a68482856126bc565b509392505050565b600082601f8301126127c3576127c2612606565b5b81356127d384826020860161276c565b91505092915050565b600080600080600080600060e0888a0312156127fb576127fa612220565b5b60006128098a828b0161230d565b975050602088013567ffffffffffffffff81111561282a57612829612225565b5b6128368a828b0161270d565b965050604088013567ffffffffffffffff81111561285757612856612225565b5b6128638a828b0161270d565b95505060606128748a828b01612277565b94505060806128858a828b01612277565b93505060a088013567ffffffffffffffff8111156128a6576128a5612225565b5b6128b28a828b0161270d565b92505060c088013567ffffffffffffffff8111156128d3576128d2612225565b5b6128df8a828b016127ae565b91505092959891949750929550565b60008060008060008060008060006101208a8c03121561291157612910612220565b5b60008a013567ffffffffffffffff81111561292f5761292e612225565b5b61293b8c828d0161270d565b99505060208a013567ffffffffffffffff81111561295c5761295b612225565b5b6129688c828d0161270d565b98505060408a013567ffffffffffffffff81111561298957612988612225565b5b6129958c828d0161270d565b97505060608a013567ffffffffffffffff8111156129b6576129b5612225565b5b6129c28c828d0161270d565b96505060806129d38c828d0161230d565b95505060a06129e48c828d01612277565b94505060c06129f58c828d01612277565b93505060e08a013567ffffffffffffffff811115612a1657612a15612225565b5b612a228c828d0161270d565b9250506101008a013567ffffffffffffffff811115612a4457612a43612225565b5b612a508c828d016127ae565b9150509295985092959850929598565b600060208284031215612a7657612a75612220565b5b6000612a8484828501612277565b91505092915050565b7f4e487b7100000000000000000000000000000000000000000000000000000000600052603260045260246000fd5b60008160601b9050919050565b6000612ad482612abc565b9050919050565b6000612ae682612ac9565b9050919050565b612afe612af982611fa2565b612adb565b82525050565b6000612b108284612aed565b60148201915081905092915050565b7f4e487b7100000000000000000000000000000000000000000000000000000000600052602260045260246000fd5b60006002820490506001821680612b6657607f821691505b602082108103612b7957612b78612b1f565b5b50919050565b7f4e487b7100000000000000000000000000000000000000000000000000000000600052601160045260246000fd5b6000612bb982611fc3565b91507fffffffffffffffffffffffffffffffffffffffffffffffffffffffffffffffff8203612beb57612bea612b7f565b5b600182019050919050565b7f4f6e6c792074686520556e69766572736974792063616e2063616c6c2074686960008201527f732066756e6374696f6e00000000000000000000000000000000000000000000602082015250565b6000612c52602a836123b9565b9150612c5d82612bf6565b604082019050919050565b60006020820190508181036000830152612c8181612c45565b9050919050565b7f4f6e6c792074686520556e69766572736974792063616e207265766f6b65206360008201527f6572746966696361746573000000000000000000000000000000000000000000602082015250565b6000612ce4602b836123b9565b9150612cef82612c88565b604082019050919050565b60006020820190508181036000830152612d1381612cd7565b9050919050565b7f4365727469666963617465206e6f7420697373756564206f7220616c7265616460008201527f79207265766f6b65640000000000000000000000000000000000000000000000602082015250565b6000612d766029836123b9565b9150612d8182612d1a565b604082019050919050565b60006020820190508181036000830152612da581612d69565b9050919050565b7f4e6f20636572746966696361746520666f756e6420666f72207468697320737460008201527f7564656e74000000000000000000000000000000000000000000000000000000602082015250565b6000612e086025836123b9565b9150612e1382612dac565b604082019050919050565b60006020820190508181036000830152612e3781612dfb565b9050919050565b7f5468697320636572746966696361746520686173206265656e207265766f6b6560008201527f6400000000000000000000000000000000000000000000000000000000000000602082015250565b6000612e9a6021836123b9565b9150612ea582612e3e565b604082019050919050565b60006020820190508181036000830152612ec981612e8d565b9050919050565b7f496e76616c696420726563697069656e74206164647265737300000000000000600082015250565b6000612f066019836123b9565b9150612f1182612ed0565b602082019050919050565b60006020820190508181036000830152612f3581612ef9565b9050919050565b7f4e6f20636572746966696361746520666f756e6420666f72207468697320726560008201527f63697069656e7400000000000000000000000000000000000000000000000000602082015250565b6000612f986027836123b9565b9150612fa382612f3c565b604082019050919050565b60006020820190508181036000830152612fc781612f8b565b9050919050565b7f4365727469666963617465206e6f742069737375656400000000000000000000600082015250565b60006130046016836123b9565b915061300f82612fce565b602082019050919050565b6000602082019050818103600083015261303381612ff7565b9050919050565b7f4365727469666963617465206973207265766f6b656400000000000000000000600082015250565b60006130706016836123b9565b915061307b8261303a565b602082019050919050565b6000602082019050818103600083015261309f81613063565b9050919050565b7f4365727469666963617465206e6f7420697373756564206f7220616c7265616460008201527f79207265766f6b656420666f72207468697320726563697069656e7400000000602082015250565b6000613102603c836123b9565b915061310d826130a6565b604082019050919050565b60006020820190508181036000830152613131816130f5565b9050919050565b60008190508160005260206000209050919050565b60006020601f8301049050919050565b600082821b905092915050565b60006008830261319a7fffffffffffffffffffffffffffffffffffffffffffffffffffffffffffffffff8261315d565b6131a4868361315d565b95508019841693508086168417925050509392505050565b6000819050919050565b60006131e16131dc6131d784611fc3565b6131bc565b611fc3565b9050919050565b6000819050919050565b6131fb836131c6565b61320f613207826131e8565b84845461316a565b825550505050565b600090565b613224613217565b61322f8184846131f2565b505050565b5b818110156132535761324860008261321c565b600181019050613235565b5050565b601f8211156132985761326981613138565b6132728461314d565b81016020851015613281578190505b61329561328d8561314d565b830182613234565b50505b505050565b600082821c905092915050565b60006132bb6000198460080261329d565b1980831691505092915050565b60006132d483836132aa565b9150826002028217905092915050565b6132ed82611ef2565b67ffffffffffffffff81111561330657613305612610565b5b6133108254612b4e565b61331b828285613257565b600060209050601f83116001811461334e576000841561333c578287015190505b61334685826132c8565b8655506133ae565b601f19841661335c86613138565b60005b828110156133845784890151825560018201915060208501945060208101905061335f565b868310156133a1578489015161339d601f8916826132aa565b8355505b6001600288020188555050505b505050505050565b60008190508160005260206000209050919050565b601f82111561340c576133dd816133b6565b6133e68461314d565b810160208510156133f5578190505b6134096134018561314d565b830182613234565b50505b505050565b61341a82611ff7565b67ffffffffffffffff81111561343357613432612610565b5b61343d8254612b4e565b6134488282856133cb565b600060209050601f83116001811461347b5760008415613469578287015190505b61347385826132c8565b8655506134db565b601f198416613489866133b6565b60005b828110156134b15784890151825560018201915060208501945060208101905061348c565b868310156134ce57848901516134ca601f8916826132aa565b8355505b6001600288020188555050505b505050505050565b7f436572746966696361746520616c726561647920697373756564206f7220726560008201527f766f6b656420666f72207468697320726563697069656e740000000000000000602082015250565b600061353f6038836123b9565b915061354a826134e3565b604082019050919050565b6000602082019050818103600083015261356e81613532565b905091905056fea2646970667358221220a0ae0dc4f454266da953c94911b905ab24092c7bc321436ccda87f1a4a54618164736f6c63430008130033",
  "linkReferences": {},
  "deployedLinkReferences": {}
}