{
  "_format": "hh-sol-artifact-1",
  "contractName": "CertificateNFT",
  "sourceName": "contracts/CertificateNFT.sol",
  "abi": [
    {
      "inputs": [],
      "stateMutability": "nonpayable",
      "type": "constructor"
    },
    {
      "inputs": [
        {
          "internalType": "address",
          "name": "",
          "type": "address"
        }
      ],
      "name": "certificates",
      "outputs": [
        {
          "internalType": "address",
          "name": "recipient",
          "type": "address"
        },
        {
          "internalType": "string",
          "name": "encryptedData",
          "type": "string"
        },
        {
          "internalType": "bytes32",
          "name": "dataHash",
          "type": "bytes32"
        },
        {
          "internalType": "bytes",
          "name": "signature",
          "type": "bytes"
        },
        {
          "internalType": "bool",
          "name": "isIssued",
          "type": "bool"
        },
        {
          "internalType": "bool",
          "name": "isRevoked",
          "type": "bool"
        }
      ],
      "stateMutability": "view",
      "type": "function"
    },
    {
      "inputs": [],
      "name": "getAllCertificates",
      "outputs": [
        {
          "components": [
            {
              "internalType": "address",
              "name": "recipient",
              "type": "address"
            },
            {
              "internalType": "string",
              "name": "encryptedData",
              "type": "string"
            },
            {
              "internalType": "bytes32",
              "name": "dataHash",
              "type": "bytes32"
            },
            {
              "internalType": "bytes",
              "name": "signature",
              "type": "bytes"
            },
            {
              "internalType": "bool",
              "name": "isIssued",
              "type": "bool"
            },
            {
              "internalType": "bool",
              "name": "isRevoked",
              "type": "bool"
            }
          ],
          "internalType": "struct CertificateNFT.Certificate[]",
          "name": "",
          "type": "tuple[]"
        }
      ],
      "stateMutability": "view",
      "type": "function"
    },
    {
      "inputs": [
        {
          "internalType": "address",
          "name": "student",
          "type": "address"
        },
        {
          "internalType": "address",
          "name": "employer",
          "type": "address"
        }
      ],
      "name": "isCertificateSharedWith",
      "outputs": [
        {
          "internalType": "bool",
          "name": "",
          "type": "bool"
        }
      ],
      "stateMutability": "view",
      "type": "function"
    },
    {
      "inputs": [
        {
          "internalType": "address",
          "name": "recipient",
          "type": "address"
        },
        {
          "internalType": "string",
          "name": "encryptedData",
          "type": "string"
        },
        {
          "internalType": "bytes32",
          "name": "dataHash",
          "type": "bytes32"
        },
        {
          "internalType": "bytes",
          "name": "signature",
          "type": "bytes"
        }
      ],
      "name": "issueCertificate",
      "outputs": [],
      "stateMutability": "nonpayable",
      "type": "function"
    },
    {
      "inputs": [],
      "name": "owner",
      "outputs": [
        {
          "internalType": "address",
          "name": "",
          "type": "address"
        }
      ],
      "stateMutability": "view",
      "type": "function"
    },
    {
      "inputs": [
        {
          "internalType": "uint256",
          "name": "",
          "type": "uint256"
        }
      ],
      "name": "recipients",
      "outputs": [
        {
          "internalType": "address",
          "name": "",
          "type": "address"
        }
      ],
      "stateMutability": "view",
      "type": "function"
    },
    {
      "inputs": [
        {
          "internalType": "address",
          "name": "recipient",
          "type": "address"
        }
      ],
      "name": "revokeCertificate",
      "outputs": [],
      "stateMutability": "nonpayable",
      "type": "function"
    },
    {
      "inputs": [
        {
          "internalType": "address",
          "name": "student",
          "type": "address"
        },
        {
          "internalType": "address",
          "name": "employer",
          "type": "address"
        }
      ],
      "name": "shareCertificate",
      "outputs": [],
      "stateMutability": "nonpayable",
      "type": "function"
    },
    {
      "inputs": [
        {
          "internalType": "address",
          "name": "",
          "type": "address"
        },
        {
          "internalType": "uint256",
          "name": "",
          "type": "uint256"
        }
      ],
      "name": "sharedCertificates",
      "outputs": [
        {
          "internalType": "address",
          "name": "",
          "type": "address"
        }
      ],
      "stateMutability": "view",
      "type": "function"
    },
    {
      "inputs": [
        {
          "internalType": "address",
          "name": "student",
          "type": "address"
        },
        {
          "internalType": "address",
          "name": "employer",
          "type": "address"
        }
      ],
      "name": "unshareCertificate",
      "outputs": [],
      "stateMutability": "nonpayable",
      "type": "function"
    },
    {
      "inputs": [
        {
          "internalType": "address",
          "name": "recipient",
          "type": "address"
        },
        {
          "internalType": "string",
          "name": "encryptedData",
          "type": "string"
        },
        {
          "internalType": "bytes32",
          "name": "dataHash",
          "type": "bytes32"
        },
        {
          "internalType": "bytes",
          "name": "signature",
          "type": "bytes"
        }
      ],
      "name": "updateCertificate",
      "outputs": [],
      "stateMutability": "nonpayable",
      "type": "function"
    },
    {
      "inputs": [
        {
          "internalType": "address",
          "name": "recipient",
          "type": "address"
        }
      ],
      "name": "verifyCertificate",
      "outputs": [
        {
          "internalType": "bool",
          "name": "",
          "type": "bool"
        }
      ],
      "stateMutability": "view",
      "type": "function"
    },
    {
      "inputs": [
        {
          "internalType": "address",
          "name": "studentAddress",
          "type": "address"
        }
      ],
      "name": "viewCertificate",
      "outputs": [
        {
          "internalType": "string",
          "name": "encryptedData",
          "type": "string"
        },
        {
          "internalType": "bytes32",
          "name": "dataHash",
          "type": "bytes32"
        },
        {
          "internalType": "bytes",
          "name": "signature",
          "type": "bytes"
        }
      ],
      "stateMutability": "view",
      "type": "function"
    }
  ],
  "bytecode": "0x608060405234801561001057600080fd5b50336000806101000a81548173ffffffffffffffffffffffffffffffffffffffff021916908373ffffffffffffffffffffffffffffffffffffffff1602179055506130e1806100606000396000f3fe608060405234801561001057600080fd5b50600436106100ce5760003560e01c80636b9afc901161008c5780638da5cb5b116100665780638da5cb5b1461023c5780638dce674a1461025a578063cbe26a2a14610276578063d1bc76a114610292576100ce565b80636b9afc90146101d4578063753cd2081461020457806385cea6f614610220576100ce565b806216e526146100d357806313fcfe80146101085780632e06a88a146101265780634581e0d5146101565780635f893bfa1461018657806364dbbaa2146101a2575b600080fd5b6100ed60048036038101906100e89190611d39565b6102c2565b6040516100ff96959493929190611e8e565b60405180910390f35b610110610448565b60405161011d9190612110565b60405180910390f35b610140600480360381019061013b9190612132565b610732565b60405161014d9190612172565b60405180910390f35b610170600480360381019061016b91906121c3565b61087f565b60405161017d9190612203565b60405180910390f35b6101a0600480360381019061019b9190611d39565b6108cd565b005b6101bc60048036038101906101b79190611d39565b610ad5565b6040516101cb9392919061221e565b60405180910390f35b6101ee60048036038101906101e99190611d39565b610e27565b6040516101fb9190612172565b60405180910390f35b61021e60048036038101906102199190612132565b611017565b005b61023a60048036038101906102359190612132565b6113cf565b005b610244611620565b6040516102519190612203565b60405180910390f35b610274600480360381019061026f9190612465565b611644565b005b610290600480360381019061028b9190612465565b6118a0565b005b6102ac60048036038101906102a79190612504565b611c35565b6040516102b99190612203565b60405180910390f35b60016020528060005260406000206000915090508060000160009054906101000a900473ffffffffffffffffffffffffffffffffffffffff169080600101805461030b90612560565b80601f016020809104026020016040519081016040528092919081815260200182805461033790612560565b80156103845780601f1061035957610100808354040283529160200191610384565b820191906000526020600020905b81548152906001019060200180831161036757829003601f168201915b50505050509080600201549080600301805461039f90612560565b80601f01602080910402602001604051908101604052809291908181526020018280546103cb90612560565b80156104185780601f106103ed57610100808354040283529160200191610418565b820191906000526020600020905b8154815290600101906020018083116103fb57829003601f168201915b5050505050908060040160009054906101000a900460ff16908060040160019054906101000a900460ff16905086565b6060600060038054905067ffffffffffffffff81111561046b5761046a61226d565b5b6040519080825280602002602001820160405280156104a457816020015b610491611c74565b8152602001906001900390816104895790505b50905060005b60038054905081101561072a5760016000600383815481106104cf576104ce612591565b5b9060005260206000200160009054906101000a900473ffffffffffffffffffffffffffffffffffffffff1673ffffffffffffffffffffffffffffffffffffffff1673ffffffffffffffffffffffffffffffffffffffff1681526020019081526020016000206040518060c00160405290816000820160009054906101000a900473ffffffffffffffffffffffffffffffffffffffff1673ffffffffffffffffffffffffffffffffffffffff1673ffffffffffffffffffffffffffffffffffffffff1681526020016001820180546105a590612560565b80601f01602080910402602001604051908101604052809291908181526020018280546105d190612560565b801561061e5780601f106105f35761010080835404028352916020019161061e565b820191906000526020600020905b81548152906001019060200180831161060157829003601f168201915b505050505081526020016002820154815260200160038201805461064190612560565b80601f016020809104026020016040519081016040528092919081815260200182805461066d90612560565b80156106ba5780601f1061068f576101008083540402835291602001916106ba565b820191906000526020600020905b81548152906001019060200180831161069d57829003601f168201915b505050505081526020016004820160009054906101000a900460ff161515151581526020016004820160019054906101000a900460ff16151515158152505082828151811061070c5761070b612591565b5b60200260200101819052508080610722906125ef565b9150506104aa565b508091505090565b600080600260008573ffffffffffffffffffffffffffffffffffffffff1673ffffffffffffffffffffffffffffffffffffffff1681526020019081526020016000208054806020026020016040519081016040528092919081815260200182805480156107f457602002820191906000526020600020905b8160009054906101000a900473ffffffffffffffffffffffffffffffffffffffff1673ffffffffffffffffffffffffffffffffffffffff16815260200190600101908083116107aa575b5050505050905060005b8151811015610872578373ffffffffffffffffffffffffffffffffffffffff1682828151811061083157610830612591565b5b602002602001015173ffffffffffffffffffffffffffffffffffffffff160361085f57600192505050610879565b808061086a906125ef565b9150506107fe565b5060009150505b92915050565b6002602052816000526040600020818154811061089b57600080fd5b906000526020600020016000915091509054906101000a900473ffffffffffffffffffffffffffffffffffffffff1681565b60008054906101000a900473ffffffffffffffffffffffffffffffffffffffff1673ffffffffffffffffffffffffffffffffffffffff163373ffffffffffffffffffffffffffffffffffffffff161461095b576040517f08c379a0000000000000000000000000000000000000000000000000000000008152600401610952906126a9565b60405180910390fd5b60008054906101000a900473ffffffffffffffffffffffffffffffffffffffff1673ffffffffffffffffffffffffffffffffffffffff163373ffffffffffffffffffffffffffffffffffffffff16146109e9576040517f08c379a00000000000000000000000000000000000000000000000000000000081526004016109e09061273b565b60405180910390fd5b600160008273ffffffffffffffffffffffffffffffffffffffff1673ffffffffffffffffffffffffffffffffffffffff16815260200190815260200160002060040160009054906101000a900460ff16610a78576040517f08c379a0000000000000000000000000000000000000000000000000000000008152600401610a6f906127cd565b60405180910390fd5b60018060008373ffffffffffffffffffffffffffffffffffffffff1673ffffffffffffffffffffffffffffffffffffffff16815260200190815260200160002060040160016101000a81548160ff02191690831515021790555050565b6060600060608373ffffffffffffffffffffffffffffffffffffffff16600160008673ffffffffffffffffffffffffffffffffffffffff1673ffffffffffffffffffffffffffffffffffffffff16815260200190815260200160002060000160009054906101000a900473ffffffffffffffffffffffffffffffffffffffff1673ffffffffffffffffffffffffffffffffffffffff1614610bab576040517f08c379a0000000000000000000000000000000000000000000000000000000008152600401610ba29061285f565b60405180910390fd5b600160008573ffffffffffffffffffffffffffffffffffffffff1673ffffffffffffffffffffffffffffffffffffffff16815260200190815260200160002060040160019054906101000a900460ff1615610c3b576040517f08c379a0000000000000000000000000000000000000000000000000000000008152600401610c32906128f1565b60405180910390fd5b600160008573ffffffffffffffffffffffffffffffffffffffff1673ffffffffffffffffffffffffffffffffffffffff168152602001908152602001600020600101600160008673ffffffffffffffffffffffffffffffffffffffff1673ffffffffffffffffffffffffffffffffffffffff16815260200190815260200160002060020154600160008773ffffffffffffffffffffffffffffffffffffffff1673ffffffffffffffffffffffffffffffffffffffff168152602001908152602001600020600301828054610d0e90612560565b80601f0160208091040260200160405190810160405280929190818152602001828054610d3a90612560565b8015610d875780601f10610d5c57610100808354040283529160200191610d87565b820191906000526020600020905b815481529060010190602001808311610d6a57829003601f168201915b50505050509250808054610d9a90612560565b80601f0160208091040260200160405190810160405280929190818152602001828054610dc690612560565b8015610e135780601f10610de857610100808354040283529160200191610e13565b820191906000526020600020905b815481529060010190602001808311610df657829003601f168201915b505050505090509250925092509193909250565b60008073ffffffffffffffffffffffffffffffffffffffff168273ffffffffffffffffffffffffffffffffffffffff1603610e97576040517f08c379a0000000000000000000000000000000000000000000000000000000008152600401610e8e9061295d565b60405180910390fd5b8173ffffffffffffffffffffffffffffffffffffffff16600160008473ffffffffffffffffffffffffffffffffffffffff1673ffffffffffffffffffffffffffffffffffffffff16815260200190815260200160002060000160009054906101000a900473ffffffffffffffffffffffffffffffffffffffff1673ffffffffffffffffffffffffffffffffffffffff1614610f67576040517f08c379a0000000000000000000000000000000000000000000000000000000008152600401610f5e906129ef565b60405180910390fd5b600160008373ffffffffffffffffffffffffffffffffffffffff1673ffffffffffffffffffffffffffffffffffffffff16815260200190815260200160002060040160009054906101000a900460ff1680156110105750600160008373ffffffffffffffffffffffffffffffffffffffff1673ffffffffffffffffffffffffffffffffffffffff16815260200190815260200160002060040160019054906101000a900460ff16155b9050919050565b60008054906101000a900473ffffffffffffffffffffffffffffffffffffffff1673ffffffffffffffffffffffffffffffffffffffff163373ffffffffffffffffffffffffffffffffffffffff16146110a5576040517f08c379a000000000000000000000000000000000000000000000000000000000815260040161109c906126a9565b60405180910390fd5b600160008373ffffffffffffffffffffffffffffffffffffffff1673ffffffffffffffffffffffffffffffffffffffff16815260200190815260200160002060040160009054906101000a900460ff16611134576040517f08c379a000000000000000000000000000000000000000000000000000000000815260040161112b90612a5b565b60405180910390fd5b600160008373ffffffffffffffffffffffffffffffffffffffff1673ffffffffffffffffffffffffffffffffffffffff16815260200190815260200160002060040160019054906101000a900460ff16156111c4576040517f08c379a00000000000000000000000000000000000000000000000000000000081526004016111bb90612ac7565b60405180910390fd5b6000600260008473ffffffffffffffffffffffffffffffffffffffff1673ffffffffffffffffffffffffffffffffffffffff168152602001908152602001600020905060005b818054905081101561138f578273ffffffffffffffffffffffffffffffffffffffff168282815481106112405761123f612591565b5b9060005260206000200160009054906101000a900473ffffffffffffffffffffffffffffffffffffffff1673ffffffffffffffffffffffffffffffffffffffff160361137c5781600183805490506112989190612ae7565b815481106112a9576112a8612591565b5b9060005260206000200160009054906101000a900473ffffffffffffffffffffffffffffffffffffffff168282815481106112e7576112e6612591565b5b9060005260206000200160006101000a81548173ffffffffffffffffffffffffffffffffffffffff021916908373ffffffffffffffffffffffffffffffffffffffff160217905550818054806113405761133f612b1b565b5b6001900381819060005260206000200160006101000a81549073ffffffffffffffffffffffffffffffffffffffff0219169055905550506113cb565b8080611387906125ef565b91505061120a565b506040517f08c379a00000000000000000000000000000000000000000000000000000000081526004016113c290612bbc565b60405180910390fd5b5050565b60008054906101000a900473ffffffffffffffffffffffffffffffffffffffff1673ffffffffffffffffffffffffffffffffffffffff163373ffffffffffffffffffffffffffffffffffffffff161461145d576040517f08c379a0000000000000000000000000000000000000000000000000000000008152600401611454906126a9565b60405180910390fd5b600160008373ffffffffffffffffffffffffffffffffffffffff1673ffffffffffffffffffffffffffffffffffffffff16815260200190815260200160002060040160009054906101000a900460ff166114ec576040517f08c379a00000000000000000000000000000000000000000000000000000000081526004016114e390612a5b565b60405180910390fd5b600160008373ffffffffffffffffffffffffffffffffffffffff1673ffffffffffffffffffffffffffffffffffffffff16815260200190815260200160002060040160019054906101000a900460ff161561157c576040517f08c379a000000000000000000000000000000000000000000000000000000000815260040161157390612ac7565b60405180910390fd5b600260008373ffffffffffffffffffffffffffffffffffffffff1673ffffffffffffffffffffffffffffffffffffffff168152602001908152602001600020819080600181540180825580915050600190039060005260206000200160009091909190916101000a81548173ffffffffffffffffffffffffffffffffffffffff021916908373ffffffffffffffffffffffffffffffffffffffff1602179055505050565b60008054906101000a900473ffffffffffffffffffffffffffffffffffffffff1681565b60008054906101000a900473ffffffffffffffffffffffffffffffffffffffff1673ffffffffffffffffffffffffffffffffffffffff163373ffffffffffffffffffffffffffffffffffffffff16146116d2576040517f08c379a00000000000000000000000000000000000000000000000000000000081526004016116c9906126a9565b60405180910390fd5b600073ffffffffffffffffffffffffffffffffffffffff168473ffffffffffffffffffffffffffffffffffffffff1603611741576040517f08c379a00000000000000000000000000000000000000000000000000000000081526004016117389061295d565b60405180910390fd5b600160008573ffffffffffffffffffffffffffffffffffffffff1673ffffffffffffffffffffffffffffffffffffffff16815260200190815260200160002060040160009054906101000a900460ff1680156117ea5750600160008573ffffffffffffffffffffffffffffffffffffffff1673ffffffffffffffffffffffffffffffffffffffff16815260200190815260200160002060040160019054906101000a900460ff16155b611829576040517f08c379a000000000000000000000000000000000000000000000000000000000815260040161182090612c4e565b60405180910390fd5b6000600160008673ffffffffffffffffffffffffffffffffffffffff1673ffffffffffffffffffffffffffffffffffffffff16815260200190815260200160002090508381600101908161187d9190612e1a565b50828160020181905550818160030190816118989190612f47565b505050505050565b60008054906101000a900473ffffffffffffffffffffffffffffffffffffffff1673ffffffffffffffffffffffffffffffffffffffff163373ffffffffffffffffffffffffffffffffffffffff161461192e576040517f08c379a0000000000000000000000000000000000000000000000000000000008152600401611925906126a9565b60405180910390fd5b600073ffffffffffffffffffffffffffffffffffffffff168473ffffffffffffffffffffffffffffffffffffffff160361199d576040517f08c379a00000000000000000000000000000000000000000000000000000000081526004016119949061295d565b60405180910390fd5b6003849080600181540180825580915050600190039060005260206000200160009091909190916101000a81548173ffffffffffffffffffffffffffffffffffffffff021916908373ffffffffffffffffffffffffffffffffffffffff160217905550600160008573ffffffffffffffffffffffffffffffffffffffff1673ffffffffffffffffffffffffffffffffffffffff16815260200190815260200160002060040160009054906101000a900460ff161580611aa85750600160008573ffffffffffffffffffffffffffffffffffffffff1673ffffffffffffffffffffffffffffffffffffffff16815260200190815260200160002060040160019054906101000a900460ff165b611ae7576040517f08c379a0000000000000000000000000000000000000000000000000000000008152600401611ade9061308b565b60405180910390fd5b6040518060c001604052808573ffffffffffffffffffffffffffffffffffffffff16815260200184815260200183815260200182815260200160011515815260200160001515815250600160008673ffffffffffffffffffffffffffffffffffffffff1673ffffffffffffffffffffffffffffffffffffffff16815260200190815260200160002060008201518160000160006101000a81548173ffffffffffffffffffffffffffffffffffffffff021916908373ffffffffffffffffffffffffffffffffffffffff1602179055506020820151816001019081611bcb9190612e1a565b50604082015181600201556060820151816003019081611beb9190612f47565b5060808201518160040160006101000a81548160ff02191690831515021790555060a08201518160040160016101000a81548160ff02191690831515021790555090505050505050565b60038181548110611c4557600080fd5b906000526020600020016000915054906101000a900473ffffffffffffffffffffffffffffffffffffffff1681565b6040518060c00160405280600073ffffffffffffffffffffffffffffffffffffffff1681526020016060815260200160008019168152602001606081526020016000151581526020016000151581525090565b6000604051905090565b600080fd5b600080fd5b600073ffffffffffffffffffffffffffffffffffffffff82169050919050565b6000611d0682611cdb565b9050919050565b611d1681611cfb565b8114611d2157600080fd5b50565b600081359050611d3381611d0d565b92915050565b600060208284031215611d4f57611d4e611cd1565b5b6000611d5d84828501611d24565b91505092915050565b611d6f81611cfb565b82525050565b600081519050919050565b600082825260208201905092915050565b60005b83811015611daf578082015181840152602081019050611d94565b60008484015250505050565b6000601f19601f8301169050919050565b6000611dd782611d75565b611de18185611d80565b9350611df1818560208601611d91565b611dfa81611dbb565b840191505092915050565b6000819050919050565b611e1881611e05565b82525050565b600081519050919050565b600082825260208201905092915050565b6000611e4582611e1e565b611e4f8185611e29565b9350611e5f818560208601611d91565b611e6881611dbb565b840191505092915050565b60008115159050919050565b611e8881611e73565b82525050565b600060c082019050611ea36000830189611d66565b8181036020830152611eb58188611dcc565b9050611ec46040830187611e0f565b8181036060830152611ed68186611e3a565b9050611ee56080830185611e7f565b611ef260a0830184611e7f565b979650505050505050565b600081519050919050565b600082825260208201905092915050565b6000819050602082019050919050565b611f3281611cfb565b82525050565b600082825260208201905092915050565b6000611f5482611d75565b611f5e8185611f38565b9350611f6e818560208601611d91565b611f7781611dbb565b840191505092915050565b611f8b81611e05565b82525050565b600082825260208201905092915050565b6000611fad82611e1e565b611fb78185611f91565b9350611fc7818560208601611d91565b611fd081611dbb565b840191505092915050565b611fe481611e73565b82525050565b600060c0830160008301516120026000860182611f29565b506020830151848203602086015261201a8282611f49565b915050604083015161202f6040860182611f82565b50606083015184820360608601526120478282611fa2565b915050608083015161205c6080860182611fdb565b5060a083015161206f60a0860182611fdb565b508091505092915050565b60006120868383611fea565b905092915050565b6000602082019050919050565b60006120a682611efd565b6120b08185611f08565b9350836020820285016120c285611f19565b8060005b858110156120fe57848403895281516120df858261207a565b94506120ea8361208e565b925060208a019950506001810190506120c6565b50829750879550505050505092915050565b6000602082019050818103600083015261212a818461209b565b905092915050565b6000806040838503121561214957612148611cd1565b5b600061215785828601611d24565b925050602061216885828601611d24565b9150509250929050565b60006020820190506121876000830184611e7f565b92915050565b6000819050919050565b6121a08161218d565b81146121ab57600080fd5b50565b6000813590506121bd81612197565b92915050565b600080604083850312156121da576121d9611cd1565b5b60006121e885828601611d24565b92505060206121f9858286016121ae565b9150509250929050565b60006020820190506122186000830184611d66565b92915050565b600060608201905081810360008301526122388186611dcc565b90506122476020830185611e0f565b81810360408301526122598184611e3a565b9050949350505050565b600080fd5b600080fd5b7f4e487b7100000000000000000000000000000000000000000000000000000000600052604160045260246000fd5b6122a582611dbb565b810181811067ffffffffffffffff821117156122c4576122c361226d565b5b80604052505050565b60006122d7611cc7565b90506122e3828261229c565b919050565b600067ffffffffffffffff8211156123035761230261226d565b5b61230c82611dbb565b9050602081019050919050565b82818337600083830152505050565b600061233b612336846122e8565b6122cd565b90508281526020810184848401111561235757612356612268565b5b612362848285612319565b509392505050565b600082601f83011261237f5761237e612263565b5b813561238f848260208601612328565b91505092915050565b6123a181611e05565b81146123ac57600080fd5b50565b6000813590506123be81612398565b92915050565b600067ffffffffffffffff8211156123df576123de61226d565b5b6123e882611dbb565b9050602081019050919050565b6000612408612403846123c4565b6122cd565b90508281526020810184848401111561242457612423612268565b5b61242f848285612319565b509392505050565b600082601f83011261244c5761244b612263565b5b813561245c8482602086016123f5565b91505092915050565b6000806000806080858703121561247f5761247e611cd1565b5b600061248d87828801611d24565b945050602085013567ffffffffffffffff8111156124ae576124ad611cd6565b5b6124ba8782880161236a565b93505060406124cb878288016123af565b925050606085013567ffffffffffffffff8111156124ec576124eb611cd6565b5b6124f887828801612437565b91505092959194509250565b60006020828403121561251a57612519611cd1565b5b6000612528848285016121ae565b91505092915050565b7f4e487b7100000000000000000000000000000000000000000000000000000000600052602260045260246000fd5b6000600282049050600182168061257857607f821691505b60208210810361258b5761258a612531565b5b50919050565b7f4e487b7100000000000000000000000000000000000000000000000000000000600052603260045260246000fd5b7f4e487b7100000000000000000000000000000000000000000000000000000000600052601160045260246000fd5b60006125fa8261218d565b91507fffffffffffffffffffffffffffffffffffffffffffffffffffffffffffffffff820361262c5761262b6125c0565b5b600182019050919050565b7f4f6e6c792074686520556e69766572736974792063616e2063616c6c2074686960008201527f732066756e6374696f6e00000000000000000000000000000000000000000000602082015250565b6000612693602a83611d80565b915061269e82612637565b604082019050919050565b600060208201905081810360008301526126c281612686565b9050919050565b7f4f6e6c792074686520556e69766572736974792063616e207265766f6b65206360008201527f6572746966696361746573000000000000000000000000000000000000000000602082015250565b6000612725602b83611d80565b9150612730826126c9565b604082019050919050565b6000602082019050818103600083015261275481612718565b9050919050565b7f4365727469666963617465206e6f7420697373756564206f7220616c7265616460008201527f79207265766f6b65640000000000000000000000000000000000000000000000602082015250565b60006127b7602983611d80565b91506127c28261275b565b604082019050919050565b600060208201905081810360008301526127e6816127aa565b9050919050565b7f4e6f20636572746966696361746520666f756e6420666f72207468697320737460008201527f7564656e74000000000000000000000000000000000000000000000000000000602082015250565b6000612849602583611d80565b9150612854826127ed565b604082019050919050565b600060208201905081810360008301526128788161283c565b9050919050565b7f5468697320636572746966696361746520686173206265656e207265766f6b6560008201527f6400000000000000000000000000000000000000000000000000000000000000602082015250565b60006128db602183611d80565b91506128e68261287f565b604082019050919050565b6000602082019050818103600083015261290a816128ce565b9050919050565b7f496e76616c696420726563697069656e74206164647265737300000000000000600082015250565b6000612947601983611d80565b915061295282612911565b602082019050919050565b600060208201905081810360008301526129768161293a565b9050919050565b7f4e6f20636572746966696361746520666f756e6420666f72207468697320726560008201527f63697069656e7400000000000000000000000000000000000000000000000000602082015250565b60006129d9602783611d80565b91506129e48261297d565b604082019050919050565b60006020820190508181036000830152612a08816129cc565b9050919050565b7f4365727469666963617465206e6f742069737375656400000000000000000000600082015250565b6000612a45601683611d80565b9150612a5082612a0f565b602082019050919050565b60006020820190508181036000830152612a7481612a38565b9050919050565b7f4365727469666963617465206973207265766f6b656400000000000000000000600082015250565b6000612ab1601683611d80565b9150612abc82612a7b565b602082019050919050565b60006020820190508181036000830152612ae081612aa4565b9050919050565b6000612af28261218d565b9150612afd8361218d565b9250828203905081811115612b1557612b146125c0565b5b92915050565b7f4e487b7100000000000000000000000000000000000000000000000000000000600052603160045260246000fd5b7f4365727469666963617465206e6f74207368617265642077697468207468697360008201527f20656d706c6f7965720000000000000000000000000000000000000000000000602082015250565b6000612ba6602983611d80565b9150612bb182612b4a565b604082019050919050565b60006020820190508181036000830152612bd581612b99565b9050919050565b7f4365727469666963617465206e6f7420697373756564206f7220616c7265616460008201527f79207265766f6b656420666f72207468697320726563697069656e7400000000602082015250565b6000612c38603c83611d80565b9150612c4382612bdc565b604082019050919050565b60006020820190508181036000830152612c6781612c2b565b9050919050565b60008190508160005260206000209050919050565b60006020601f8301049050919050565b600082821b905092915050565b600060088302612cd07fffffffffffffffffffffffffffffffffffffffffffffffffffffffffffffffff82612c93565b612cda8683612c93565b95508019841693508086168417925050509392505050565b6000819050919050565b6000612d17612d12612d0d8461218d565b612cf2565b61218d565b9050919050565b6000819050919050565b612d3183612cfc565b612d45612d3d82612d1e565b848454612ca0565b825550505050565b600090565b612d5a612d4d565b612d65818484612d28565b505050565b5b81811015612d8957612d7e600082612d52565b600181019050612d6b565b5050565b601f821115612dce57612d9f81612c6e565b612da884612c83565b81016020851015612db7578190505b612dcb612dc385612c83565b830182612d6a565b50505b505050565b600082821c905092915050565b6000612df160001984600802612dd3565b1980831691505092915050565b6000612e0a8383612de0565b9150826002028217905092915050565b612e2382611d75565b67ffffffffffffffff811115612e3c57612e3b61226d565b5b612e468254612560565b612e51828285612d8d565b600060209050601f831160018114612e845760008415612e72578287015190505b612e7c8582612dfe565b865550612ee4565b601f198416612e9286612c6e565b60005b82811015612eba57848901518255600182019150602085019450602081019050612e95565b86831015612ed75784890151612ed3601f891682612de0565b8355505b6001600288020188555050505b505050505050565b60008190508160005260206000209050919050565b601f821115612f4257612f1381612eec565b612f1c84612c83565b81016020851015612f2b578190505b612f3f612f3785612c83565b830182612d6a565b50505b505050565b612f5082611e1e565b67ffffffffffffffff811115612f6957612f6861226d565b5b612f738254612560565b612f7e828285612f01565b600060209050601f831160018114612fb15760008415612f9f578287015190505b612fa98582612dfe565b865550613011565b601f198416612fbf86612eec565b60005b82811015612fe757848901518255600182019150602085019450602081019050612fc2565b868310156130045784890151613000601f891682612de0565b8355505b6001600288020188555050505b505050505050565b7f436572746966696361746520616c726561647920697373756564206f7220726560008201527f766f6b656420666f72207468697320726563697069656e740000000000000000602082015250565b6000613075603883611d80565b915061308082613019565b604082019050919050565b600060208201905081810360008301526130a481613068565b905091905056fea2646970667358221220d18588f77bf6a5037f06fbf0ec264d98ce96bc05525676834139b10c1a8b184c64736f6c63430008130033",
  "linkReferences": {},
  "deployedLinkReferences": {}
}