{"contracts/IPFSstorage.sol":{"IpfsStorage":{"abi":[{"inputs":[{"internalType":"string","name":"file","type":"string"}],"name":"setFile","outputs":[],"stateMutability":"nonpayable","type":"function"},{"inputs":[{"internalType":"address","name":"","type":"address"}],"name":"userFiles","outputs":[{"internalType":"string","name":"","type":"string"}],"stateMutability":"view","type":"function"}],"evm":{"bytecode":{"linkReferences":{},"object":"608060405234801561001057600080fd5b50610763806100206000396000f3fe608060405234801561001057600080fd5b50600436106100365760003560e01c8063b0b190721461003b578063e423c1581461006b575b600080fd5b610055600480360381019061005091906101e8565b610087565b60405161006291906102a5565b60405180910390f35b610085600480360381019061008091906103fc565b610127565b005b600060205280600052604060002060009150905080546100a690610474565b80601f01602080910402602001604051908101604052809291908181526020018280546100d290610474565b801561011f5780601f106100f45761010080835404028352916020019161011f565b820191906000526020600020905b81548152906001019060200180831161010257829003601f168201915b505050505081565b806000803373ffffffffffffffffffffffffffffffffffffffff1673ffffffffffffffffffffffffffffffffffffffff1681526020019081526020016000209081610172919061065b565b5050565b6000604051905090565b600080fd5b600080fd5b600073ffffffffffffffffffffffffffffffffffffffff82169050919050565b60006101b58261018a565b9050919050565b6101c5816101aa565b81146101d057600080fd5b50565b6000813590506101e2816101bc565b92915050565b6000602082840312156101fe576101fd610180565b5b600061020c848285016101d3565b91505092915050565b600081519050919050565b600082825260208201905092915050565b60005b8381101561024f578082015181840152602081019050610234565b60008484015250505050565b6000601f19601f8301169050919050565b600061027782610215565b6102818185610220565b9350610291818560208601610231565b61029a8161025b565b840191505092915050565b600060208201905081810360008301526102bf818461026c565b905092915050565b600080fd5b600080fd5b7f4e487b7100000000000000000000000000000000000000000000000000000000600052604160045260246000fd5b6103098261025b565b810181811067ffffffffffffffff82111715610328576103276102d1565b5b80604052505050565b600061033b610176565b90506103478282610300565b919050565b600067ffffffffffffffff821115610367576103666102d1565b5b6103708261025b565b9050602081019050919050565b82818337600083830152505050565b600061039f61039a8461034c565b610331565b9050828152602081018484840111156103bb576103ba6102cc565b5b6103c684828561037d565b509392505050565b600082601f8301126103e3576103e26102c7565b5b81356103f384826020860161038c565b91505092915050565b60006020828403121561041257610411610180565b5b600082013567ffffffffffffffff8111156104305761042f610185565b5b61043c848285016103ce565b91505092915050565b7f4e487b7100000000000000000000000000000000000000000000000000000000600052602260045260246000fd5b6000600282049050600182168061048c57607f821691505b60208210810361049f5761049e610445565b5b50919050565b60008190508160005260206000209050919050565b60006020601f8301049050919050565b600082821b905092915050565b6000600883026105077fffffffffffffffffffffffffffffffffffffffffffffffffffffffffffffffff826104ca565b61051186836104ca565b95508019841693508086168417925050509392505050565b6000819050919050565b6000819050919050565b600061055861055361054e84610529565b610533565b610529565b9050919050565b6000819050919050565b6105728361053d565b61058661057e8261055f565b8484546104d7565b825550505050565b600090565b61059b61058e565b6105a6818484610569565b505050565b5b818110156105ca576105bf600082610593565b6001810190506105ac565b5050565b601f82111561060f576105e0816104a5565b6105e9846104ba565b810160208510156105f8578190505b61060c610604856104ba565b8301826105ab565b50505b505050565b600082821c905092915050565b600061063260001984600802610614565b1980831691505092915050565b600061064b8383610621565b9150826002028217905092915050565b61066482610215565b67ffffffffffffffff81111561067d5761067c6102d1565b5b6106878254610474565b6106928282856105ce565b600060209050601f8311600181146106c557600084156106b3578287015190505b6106bd858261063f565b865550610725565b601f1984166106d3866104a5565b60005b828110156106fb578489015182556001820191506020850194506020810190506106d6565b868310156107185784890151610714601f891682610621565b8355505b6001600288020188555050505b50505050505056fea26469706673582212200ea6c06a9fc915e05bae375238ee477a583f019b7165e27149abc2261baa57c964736f6c63430008130033","opcodes":"PUSH1 0x80 PUSH1 0x40 MSTORE CALLVALUE DUP1 ISZERO PUSH2 0x10 JUMPI PUSH1 0x0 DUP1 REVERT JUMPDEST POP PUSH2 0x763 DUP1 PUSH2 0x20 PUSH1 0x0 CODECOPY PUSH1 0x0 RETURN INVALID PUSH1 0x80 PUSH1 0x40 MSTORE CALLVALUE DUP1 ISZERO PUSH2 0x10 JUMPI PUSH1 0x0 DUP1 REVERT JUMPDEST POP PUSH1 0x4 CALLDATASIZE LT PUSH2 0x36 JUMPI PUSH1 0x0 CALLDATALOAD PUSH1 0xE0 SHR DUP1 PUSH4 0xB0B19072 EQ PUSH2 0x3B JUMPI DUP1 PUSH4 0xE423C158 EQ PUSH2 0x6B JUMPI JUMPDEST PUSH1 0x0 DUP1 REVERT JUMPDEST PUSH2 0x55 PUSH1 0x4 DUP1 CALLDATASIZE SUB DUP2 ADD SWAP1 PUSH2 0x50 SWAP2 SWAP1 PUSH2 0x1E8 JUMP JUMPDEST PUSH2 0x87 JUMP JUMPDEST PUSH1 0x40 MLOAD PUSH2 0x62 SWAP2 SWAP1 PUSH2 0x2A5 JUMP JUMPDEST PUSH1 0x40 MLOAD DUP1 SWAP2 SUB SWAP1 RETURN JUMPDEST PUSH2 0x85 PUSH1 0x4 DUP1 CALLDATASIZE SUB DUP2 ADD SWAP1 PUSH2 0x80 SWAP2 SWAP1 PUSH2 0x3FC JUMP JUMPDEST PUSH2 0x127 JUMP JUMPDEST STOP JUMPDEST PUSH1 0x0 PUSH1 0x20 MSTORE DUP1 PUSH1 0x0 MSTORE PUSH1 0x40 PUSH1 0x0 KECCAK256 PUSH1 0x0 SWAP2 POP SWAP1 POP DUP1 SLOAD PUSH2 0xA6 SWAP1 PUSH2 0x474 JUMP JUMPDEST DUP1 PUSH1 0x1F ADD PUSH1 0x20 DUP1 SWAP2 DIV MUL PUSH1 0x20 ADD PUSH1 0x40 MLOAD SWAP1 DUP2 ADD PUSH1 0x40 MSTORE DUP1 SWAP3 SWAP2 SWAP1 DUP2 DUP2 MSTORE PUSH1 0x20 ADD DUP3 DUP1 SLOAD PUSH2 0xD2 SWAP1 PUSH2 0x474 JUMP JUMPDEST DUP1 ISZERO PUSH2 0x11F JUMPI DUP1 PUSH1 0x1F LT PUSH2 0xF4 JUMPI PUSH2 0x100 DUP1 DUP4 SLOAD DIV MUL DUP4 MSTORE SWAP2 PUSH1 0x20 ADD SWAP2 PUSH2 0x11F JUMP JUMPDEST DUP3 ADD SWAP2 SWAP1 PUSH1 0x0 MSTORE PUSH1 0x20 PUSH1 0x0 KECCAK256 SWAP1 JUMPDEST DUP2 SLOAD DUP2 MSTORE SWAP1 PUSH1 0x1 ADD SWAP1 PUSH1 0x20 ADD DUP1 DUP4 GT PUSH2 0x102 JUMPI DUP3 SWAP1 SUB PUSH1 0x1F AND DUP3 ADD SWAP2 JUMPDEST POP POP POP POP POP DUP2 JUMP JUMPDEST DUP1 PUSH1 0x0 DUP1 CALLER PUSH20 0xFFFFFFFFFFFFFFFFFFFFFFFFFFFFFFFFFFFFFFFF AND PUSH20 0xFFFFFFFFFFFFFFFFFFFFFFFFFFFFFFFFFFFFFFFF AND DUP2 MSTORE PUSH1 0x20 ADD SWAP1 DUP2 MSTORE PUSH1 0x20 ADD PUSH1 0x0 KECCAK256 SWAP1 DUP2 PUSH2 0x172 SWAP2 SWAP1 PUSH2 0x65B JUMP JUMPDEST POP POP JUMP JUMPDEST PUSH1 0x0 PUSH1 0x40 MLOAD SWAP1 POP SWAP1 JUMP JUMPDEST PUSH1 0x0 DUP1 REVERT JUMPDEST PUSH1 0x0 DUP1 REVERT JUMPDEST PUSH1 0x0 PUSH20 0xFFFFFFFFFFFFFFFFFFFFFFFFFFFFFFFFFFFFFFFF DUP3 AND SWAP1 POP SWAP2 SWAP1 POP JUMP JUMPDEST PUSH1 0x0 PUSH2 0x1B5 DUP3 PUSH2 0x18A JUMP JUMPDEST SWAP1 POP SWAP2 SWAP1 POP JUMP JUMPDEST PUSH2 0x1C5 DUP2 PUSH2 0x1AA JUMP JUMPDEST DUP2 EQ PUSH2 0x1D0 JUMPI PUSH1 0x0 DUP1 REVERT JUMPDEST POP JUMP JUMPDEST PUSH1 0x0 DUP2 CALLDATALOAD SWAP1 POP PUSH2 0x1E2 DUP2 PUSH2 0x1BC JUMP JUMPDEST SWAP3 SWAP2 POP POP JUMP JUMPDEST PUSH1 0x0 PUSH1 0x20 DUP3 DUP5 SUB SLT ISZERO PUSH2 0x1FE JUMPI PUSH2 0x1FD PUSH2 0x180 JUMP JUMPDEST JUMPDEST PUSH1 0x0 PUSH2 0x20C DUP5 DUP3 DUP6 ADD PUSH2 0x1D3 JUMP JUMPDEST SWAP2 POP POP SWAP3 SWAP2 POP POP JUMP JUMPDEST PUSH1 0x0 DUP2 MLOAD SWAP1 POP SWAP2 SWAP1 POP JUMP JUMPDEST PUSH1 0x0 DUP3 DUP3 MSTORE PUSH1 0x20 DUP3 ADD SWAP1 POP SWAP3 SWAP2 POP POP JUMP JUMPDEST PUSH1 0x0 JUMPDEST DUP4 DUP2 LT ISZERO PUSH2 0x24F JUMPI DUP1 DUP3 ADD MLOAD DUP2 DUP5 ADD MSTORE PUSH1 0x20 DUP2 ADD SWAP1 POP PUSH2 0x234 JUMP JUMPDEST PUSH1 0x0 DUP5 DUP5 ADD MSTORE POP POP POP POP JUMP JUMPDEST PUSH1 0x0 PUSH1 0x1F NOT PUSH1 0x1F DUP4 ADD AND SWAP1 POP SWAP2 SWAP1 POP JUMP JUMPDEST PUSH1 0x0 PUSH2 0x277 DUP3 PUSH2 0x215 JUMP JUMPDEST PUSH2 0x281 DUP2 DUP6 PUSH2 0x220 JUMP JUMPDEST SWAP4 POP PUSH2 0x291 DUP2 DUP6 PUSH1 0x20 DUP7 ADD PUSH2 0x231 JUMP JUMPDEST PUSH2 0x29A DUP2 PUSH2 0x25B JUMP JUMPDEST DUP5 ADD SWAP2 POP POP SWAP3 SWAP2 POP POP JUMP JUMPDEST PUSH1 0x0 PUSH1 0x20 DUP3 ADD SWAP1 POP DUP2 DUP2 SUB PUSH1 0x0 DUP4 ADD MSTORE PUSH2 0x2BF DUP2 DUP5 PUSH2 0x26C JUMP JUMPDEST SWAP1 POP SWAP3 SWAP2 POP POP JUMP JUMPDEST PUSH1 0x0 DUP1 REVERT JUMPDEST PUSH1 0x0 DUP1 REVERT JUMPDEST PUSH32 0x4E487B7100000000000000000000000000000000000000000000000000000000 PUSH1 0x0 MSTORE PUSH1 0x41 PUSH1 0x4 MSTORE PUSH1 0x24 PUSH1 0x0 REVERT JUMPDEST PUSH2 0x309 DUP3 PUSH2 0x25B JUMP JUMPDEST DUP2 ADD DUP2 DUP2 LT PUSH8 0xFFFFFFFFFFFFFFFF DUP3 GT OR ISZERO PUSH2 0x328 JUMPI PUSH2 0x327 PUSH2 0x2D1 JUMP JUMPDEST JUMPDEST DUP1 PUSH1 0x40 MSTORE POP POP POP JUMP JUMPDEST PUSH1 0x0 PUSH2 0x33B PUSH2 0x176 JUMP JUMPDEST SWAP1 POP PUSH2 0x347 DUP3 DUP3 PUSH2 0x300 JUMP JUMPDEST SWAP2 SWAP1 POP JUMP JUMPDEST PUSH1 0x0 PUSH8 0xFFFFFFFFFFFFFFFF DUP3 GT ISZERO PUSH2 0x367 JUMPI PUSH2 0x366 PUSH2 0x2D1 JUMP JUMPDEST JUMPDEST PUSH2 0x370 DUP3 PUSH2 0x25B JUMP JUMPDEST SWAP1 POP PUSH1 0x20 DUP2 ADD SWAP1 POP SWAP2 SWAP1 POP JUMP JUMPDEST DUP3 DUP2 DUP4 CALLDATACOPY PUSH1 0x0 DUP4 DUP4 ADD MSTORE POP POP POP JUMP JUMPDEST PUSH1 0x0 PUSH2 0x39F PUSH2 0x39A DUP5 PUSH2 0x34C JUMP JUMPDEST PUSH2 0x331 JUMP JUMPDEST SWAP1 POP DUP3 DUP2 MSTORE PUSH1 0x20 DUP2 ADD DUP5 DUP5 DUP5 ADD GT ISZERO PUSH2 0x3BB JUMPI PUSH2 0x3BA PUSH2 0x2CC JUMP JUMPDEST JUMPDEST PUSH2 0x3C6 DUP5 DUP3 DUP6 PUSH2 0x37D JUMP JUMPDEST POP SWAP4 SWAP3 POP POP POP JUMP JUMPDEST PUSH1 0x0 DUP3 PUSH1 0x1F DUP4 ADD SLT PUSH2 0x3E3 JUMPI PUSH2 0x3E2 PUSH2 0x2C7 JUMP JUMPDEST JUMPDEST DUP2 CALLDATALOAD PUSH2 0x3F3 DUP5 DUP3 PUSH1 0x20 DUP7 ADD PUSH2 0x38C JUMP JUMPDEST SWAP2 POP POP SWAP3 SWAP2 POP POP JUMP JUMPDEST PUSH1 0x0 PUSH1 0x20 DUP3 DUP5 SUB SLT ISZERO PUSH2 0x412 JUMPI PUSH2 0x411 PUSH2 0x180 JUMP JUMPDEST JUMPDEST PUSH1 0x0 DUP3 ADD CALLDATALOAD PUSH8 0xFFFFFFFFFFFFFFFF DUP2 GT ISZERO PUSH2 0x430 JUMPI PUSH2 0x42F PUSH2 0x185 JUMP JUMPDEST JUMPDEST PUSH2 0x43C DUP5 DUP3 DUP6 ADD PUSH2 0x3CE JUMP JUMPDEST SWAP2 POP POP SWAP3 SWAP2 POP POP JUMP JUMPDEST PUSH32 0x4E487B7100000000000000000000000000000000000000000000000000000000 PUSH1 0x0 MSTORE PUSH1 0x22 PUSH1 0x4 MSTORE PUSH1 0x24 PUSH1 0x0 REVERT JUMPDEST PUSH1 0x0 PUSH1 0x2 DUP3 DIV SWAP1 POP PUSH1 0x1 DUP3 AND DUP1 PUSH2 0x48C JUMPI PUSH1 0x7F DUP3 AND SWAP2 POP JUMPDEST PUSH1 0x20 DUP3 LT DUP2 SUB PUSH2 0x49F JUMPI PUSH2 0x49E PUSH2 0x445 JUMP JUMPDEST JUMPDEST POP SWAP2 SWAP1 POP JUMP JUMPDEST PUSH1 0x0 DUP2 SWAP1 POP DUP2 PUSH1 0x0 MSTORE PUSH1 0x20 PUSH1 0x0 KECCAK256 SWAP1 POP SWAP2 SWAP1 POP JUMP JUMPDEST PUSH1 0x0 PUSH1 0x20 PUSH1 0x1F DUP4 ADD DIV SWAP1 POP SWAP2 SWAP1 POP JUMP JUMPDEST PUSH1 0x0 DUP3 DUP3 SHL SWAP1 POP SWAP3 SWAP2 POP POP JUMP JUMPDEST PUSH1 0x0 PUSH1 0x8 DUP4 MUL PUSH2 0x507 PUSH32 0xFFFFFFFFFFFFFFFFFFFFFFFFFFFFFFFFFFFFFFFFFFFFFFFFFFFFFFFFFFFFFFFF DUP3 PUSH2 0x4CA JUMP JUMPDEST PUSH2 0x511 DUP7 DUP4 PUSH2 0x4CA JUMP JUMPDEST SWAP6 POP DUP1 NOT DUP5 AND SWAP4 POP DUP1 DUP7 AND DUP5 OR SWAP3 POP POP POP SWAP4 SWAP3 POP POP POP JUMP JUMPDEST PUSH1 0x0 DUP2 SWAP1 POP SWAP2 SWAP1 POP JUMP JUMPDEST PUSH1 0x0 DUP2 SWAP1 POP SWAP2 SWAP1 POP JUMP JUMPDEST PUSH1 0x0 PUSH2 0x558 PUSH2 0x553 PUSH2 0x54E DUP5 PUSH2 0x529 JUMP JUMPDEST PUSH2 0x533 JUMP JUMPDEST PUSH2 0x529 JUMP JUMPDEST SWAP1 POP SWAP2 SWAP1 POP JUMP JUMPDEST PUSH1 0x0 DUP2 SWAP1 POP SWAP2 SWAP1 POP JUMP JUMPDEST PUSH2 0x572 DUP4 PUSH2 0x53D JUMP JUMPDEST PUSH2 0x586 PUSH2 0x57E DUP3 PUSH2 0x55F JUMP JUMPDEST DUP5 DUP5 SLOAD PUSH2 0x4D7 JUMP JUMPDEST DUP3 SSTORE POP POP POP POP JUMP JUMPDEST PUSH1 0x0 SWAP1 JUMP JUMPDEST PUSH2 0x59B PUSH2 0x58E JUMP JUMPDEST PUSH2 0x5A6 DUP2 DUP5 DUP5 PUSH2 0x569 JUMP JUMPDEST POP POP POP JUMP JUMPDEST JUMPDEST DUP2 DUP2 LT ISZERO PUSH2 0x5CA JUMPI PUSH2 0x5BF PUSH1 0x0 DUP3 PUSH2 0x593 JUMP JUMPDEST PUSH1 0x1 DUP2 ADD SWAP1 POP PUSH2 0x5AC JUMP JUMPDEST POP POP JUMP JUMPDEST PUSH1 0x1F DUP3 GT ISZERO PUSH2 0x60F JUMPI PUSH2 0x5E0 DUP2 PUSH2 0x4A5 JUMP JUMPDEST PUSH2 0x5E9 DUP5 PUSH2 0x4BA JUMP JUMPDEST DUP2 ADD PUSH1 0x20 DUP6 LT ISZERO PUSH2 0x5F8 JUMPI DUP2 SWAP1 POP JUMPDEST PUSH2 0x60C PUSH2 0x604 DUP6 PUSH2 0x4BA JUMP JUMPDEST DUP4 ADD DUP3 PUSH2 0x5AB JUMP JUMPDEST POP POP JUMPDEST POP POP POP JUMP JUMPDEST PUSH1 0x0 DUP3 DUP3 SHR SWAP1 POP SWAP3 SWAP2 POP POP JUMP JUMPDEST PUSH1 0x0 PUSH2 0x632 PUSH1 0x0 NOT DUP5 PUSH1 0x8 MUL PUSH2 0x614 JUMP JUMPDEST NOT DUP1 DUP4 AND SWAP2 POP POP SWAP3 SWAP2 POP POP JUMP JUMPDEST PUSH1 0x0 PUSH2 0x64B DUP4 DUP4 PUSH2 0x621 JUMP JUMPDEST SWAP2 POP DUP3 PUSH1 0x2 MUL DUP3 OR SWAP1 POP SWAP3 SWAP2 POP POP JUMP JUMPDEST PUSH2 0x664 DUP3 PUSH2 0x215 JUMP JUMPDEST PUSH8 0xFFFFFFFFFFFFFFFF DUP2 GT ISZERO PUSH2 0x67D JUMPI PUSH2 0x67C PUSH2 0x2D1 JUMP JUMPDEST JUMPDEST PUSH2 0x687 DUP3 SLOAD PUSH2 0x474 JUMP JUMPDEST PUSH2 0x692 DUP3 DUP3 DUP6 PUSH2 0x5CE JUMP JUMPDEST PUSH1 0x0 PUSH1 0x20 SWAP1 POP PUSH1 0x1F DUP4 GT PUSH1 0x1 DUP2 EQ PUSH2 0x6C5 JUMPI PUSH1 0x0 DUP5 ISZERO PUSH2 0x6B3 JUMPI DUP3 DUP8 ADD MLOAD SWAP1 POP JUMPDEST PUSH2 0x6BD DUP6 DUP3 PUSH2 0x63F JUMP JUMPDEST DUP7 SSTORE POP PUSH2 0x725 JUMP JUMPDEST PUSH1 0x1F NOT DUP5 AND PUSH2 0x6D3 DUP7 PUSH2 0x4A5 JUMP JUMPDEST PUSH1 0x0 JUMPDEST DUP3 DUP2 LT ISZERO PUSH2 0x6FB JUMPI DUP5 DUP10 ADD MLOAD DUP3 SSTORE PUSH1 0x1 DUP3 ADD SWAP2 POP PUSH1 0x20 DUP6 ADD SWAP5 POP PUSH1 0x20 DUP2 ADD SWAP1 POP PUSH2 0x6D6 JUMP JUMPDEST DUP7 DUP4 LT ISZERO PUSH2 0x718 JUMPI DUP5 DUP10 ADD MLOAD PUSH2 0x714 PUSH1 0x1F DUP10 AND DUP3 PUSH2 0x621 JUMP JUMPDEST DUP4 SSTORE POP JUMPDEST PUSH1 0x1 PUSH1 0x2 DUP9 MUL ADD DUP9 SSTORE POP POP POP JUMPDEST POP POP POP POP POP POP JUMP INVALID LOG2 PUSH5 0x6970667358 0x22 SLT KECCAK256 0xE 0xA6 0xC0 PUSH11 0x9FC915E05BAE375238EE47 PUSH27 0x583F019B7165E27149ABC2261BAA57C964736F6C63430008130033 "},"methodIdentifiers":{"setFile(string)":"e423c158","userFiles(address)":"b0b19072"}}}}}