{
  "_format": "hh-sol-artifact-1",
  "contractName": "IpfsStorage",
  "sourceName": "contracts/IPFSstorage.sol",
  "abi": [
    {
      "inputs": [
        {
          "internalType": "string",
          "name": "file",
          "type": "string"
        }
      ],
      "name": "setFile",
      "outputs": [],
      "stateMutability": "nonpayable",
      "type": "function"
    },
    {
      "inputs": [
        {
          "internalType": "address",
          "name": "",
          "type": "address"
        }
      ],
      "name": "userFiles",
      "outputs": [
        {
          "internalType": "string",
          "name": "",
          "type": "string"
        }
      ],
      "stateMutability": "view",
      "type": "function"
    }
  ],
  "bytecode": "0x608060405234801561001057600080fd5b50610763806100206000396000f3fe608060405234801561001057600080fd5b50600436106100365760003560e01c8063b0b190721461003b578063e423c1581461006b575b600080fd5b610055600480360381019061005091906101e8565b610087565b60405161006291906102a5565b60405180910390f35b610085600480360381019061008091906103fc565b610127565b005b600060205280600052604060002060009150905080546100a690610474565b80601f01602080910402602001604051908101604052809291908181526020018280546100d290610474565b801561011f5780601f106100f45761010080835404028352916020019161011f565b820191906000526020600020905b81548152906001019060200180831161010257829003601f168201915b505050505081565b806000803373ffffffffffffffffffffffffffffffffffffffff1673ffffffffffffffffffffffffffffffffffffffff1681526020019081526020016000209081610172919061065b565b5050565b6000604051905090565b600080fd5b600080fd5b600073ffffffffffffffffffffffffffffffffffffffff82169050919050565b60006101b58261018a565b9050919050565b6101c5816101aa565b81146101d057600080fd5b50565b6000813590506101e2816101bc565b92915050565b6000602082840312156101fe576101fd610180565b5b600061020c848285016101d3565b91505092915050565b600081519050919050565b600082825260208201905092915050565b60005b8381101561024f578082015181840152602081019050610234565b60008484015250505050565b6000601f19601f8301169050919050565b600061027782610215565b6102818185610220565b9350610291818560208601610231565b61029a8161025b565b840191505092915050565b600060208201905081810360008301526102bf818461026c565b905092915050565b600080fd5b600080fd5b7f4e487b7100000000000000000000000000000000000000000000000000000000600052604160045260246000fd5b6103098261025b565b810181811067ffffffffffffffff82111715610328576103276102d1565b5b80604052505050565b600061033b610176565b90506103478282610300565b919050565b600067ffffffffffffffff821115610367576103666102d1565b5b6103708261025b565b9050602081019050919050565b82818337600083830152505050565b600061039f61039a8461034c565b610331565b9050828152602081018484840111156103bb576103ba6102cc565b5b6103c684828561037d565b509392505050565b600082601f8301126103e3576103e26102c7565b5b81356103f384826020860161038c565b91505092915050565b60006020828403121561041257610411610180565b5b600082013567ffffffffffffffff8111156104305761042f610185565b5b61043c848285016103ce565b91505092915050565b7f4e487b7100000000000000000000000000000000000000000000000000000000600052602260045260246000fd5b6000600282049050600182168061048c57607f821691505b60208210810361049f5761049e610445565b5b50919050565b60008190508160005260206000209050919050565b60006020601f8301049050919050565b600082821b905092915050565b6000600883026105077fffffffffffffffffffffffffffffffffffffffffffffffffffffffffffffffff826104ca565b61051186836104ca565b95508019841693508086168417925050509392505050565b6000819050919050565b6000819050919050565b600061055861055361054e84610529565b610533565b610529565b9050919050565b6000819050919050565b6105728361053d565b61058661057e8261055f565b8484546104d7565b825550505050565b600090565b61059b61058e565b6105a6818484610569565b505050565b5b818110156105ca576105bf600082610593565b6001810190506105ac565b5050565b601f82111561060f576105e0816104a5565b6105e9846104ba565b810160208510156105f8578190505b61060c610604856104ba565b8301826105ab565b50505b505050565b600082821c905092915050565b600061063260001984600802610614565b1980831691505092915050565b600061064b8383610621565b9150826002028217905092915050565b61066482610215565b67ffffffffffffffff81111561067d5761067c6102d1565b5b6106878254610474565b6106928282856105ce565b600060209050601f8311600181146106c557600084156106b3578287015190505b6106bd858261063f565b865550610725565b601f1984166106d3866104a5565b60005b828110156106fb578489015182556001820191506020850194506020810190506106d6565b868310156107185784890151610714601f891682610621565b8355505b6001600288020188555050505b50505050505056fea26469706673582212200ea6c06a9fc915e05bae375238ee477a583f019b7165e27149abc2261baa57c964736f6c63430008130033",
  "linkReferences": {},
  "deployedLinkReferences": {}
}